{
  "contractName": "ERC1155Custom",
  "abi": [
    {
      "inputs": [
        {
          "internalType": "string",
          "name": "_uri",
          "type": "string"
        }
      ],
      "stateMutability": "nonpayable",
      "type": "constructor"
    },
    {
      "anonymous": false,
      "inputs": [
        {
          "indexed": true,
          "internalType": "address",
          "name": "account",
          "type": "address"
        },
        {
          "indexed": true,
          "internalType": "address",
          "name": "operator",
          "type": "address"
        },
        {
          "indexed": false,
          "internalType": "bool",
          "name": "approved",
          "type": "bool"
        }
      ],
      "name": "ApprovalForAll",
      "type": "event"
    },
    {
      "anonymous": false,
      "inputs": [
        {
          "indexed": true,
          "internalType": "address",
          "name": "previousOwner",
          "type": "address"
        },
        {
          "indexed": true,
          "internalType": "address",
          "name": "newOwner",
          "type": "address"
        }
      ],
      "name": "OwnershipTransferred",
      "type": "event"
    },
    {
      "anonymous": false,
      "inputs": [
        {
          "indexed": false,
          "internalType": "address",
          "name": "account",
          "type": "address"
        }
      ],
      "name": "Paused",
      "type": "event"
    },
    {
      "anonymous": false,
      "inputs": [
        {
          "indexed": true,
          "internalType": "address",
          "name": "operator",
          "type": "address"
        },
        {
          "indexed": true,
          "internalType": "address",
          "name": "from",
          "type": "address"
        },
        {
          "indexed": true,
          "internalType": "address",
          "name": "to",
          "type": "address"
        },
        {
          "indexed": false,
          "internalType": "uint256[]",
          "name": "ids",
          "type": "uint256[]"
        },
        {
          "indexed": false,
          "internalType": "uint256[]",
          "name": "values",
          "type": "uint256[]"
        }
      ],
      "name": "TransferBatch",
      "type": "event"
    },
    {
      "anonymous": false,
      "inputs": [
        {
          "indexed": true,
          "internalType": "address",
          "name": "operator",
          "type": "address"
        },
        {
          "indexed": true,
          "internalType": "address",
          "name": "from",
          "type": "address"
        },
        {
          "indexed": true,
          "internalType": "address",
          "name": "to",
          "type": "address"
        },
        {
          "indexed": false,
          "internalType": "uint256",
          "name": "id",
          "type": "uint256"
        },
        {
          "indexed": false,
          "internalType": "uint256",
          "name": "value",
          "type": "uint256"
        }
      ],
      "name": "TransferSingle",
      "type": "event"
    },
    {
      "anonymous": false,
      "inputs": [
        {
          "indexed": false,
          "internalType": "string",
          "name": "value",
          "type": "string"
        },
        {
          "indexed": true,
          "internalType": "uint256",
          "name": "id",
          "type": "uint256"
        }
      ],
      "name": "URI",
      "type": "event"
    },
    {
      "anonymous": false,
      "inputs": [
        {
          "indexed": false,
          "internalType": "address",
          "name": "account",
          "type": "address"
        }
      ],
      "name": "Unpaused",
      "type": "event"
    },
    {
      "inputs": [
        {
          "internalType": "address",
          "name": "account",
          "type": "address"
        },
        {
          "internalType": "uint256",
          "name": "id",
          "type": "uint256"
        }
      ],
      "name": "balanceOf",
      "outputs": [
        {
          "internalType": "uint256",
          "name": "",
          "type": "uint256"
        }
      ],
      "stateMutability": "view",
      "type": "function"
    },
    {
      "inputs": [
        {
          "internalType": "address[]",
          "name": "accounts",
          "type": "address[]"
        },
        {
          "internalType": "uint256[]",
          "name": "ids",
          "type": "uint256[]"
        }
      ],
      "name": "balanceOfBatch",
      "outputs": [
        {
          "internalType": "uint256[]",
          "name": "",
          "type": "uint256[]"
        }
      ],
      "stateMutability": "view",
      "type": "function"
    },
    {
      "inputs": [
        {
          "internalType": "address",
          "name": "account",
          "type": "address"
        },
        {
          "internalType": "uint256",
          "name": "id",
          "type": "uint256"
        },
        {
          "internalType": "uint256",
          "name": "value",
          "type": "uint256"
        }
      ],
      "name": "burn",
      "outputs": [],
      "stateMutability": "nonpayable",
      "type": "function"
    },
    {
      "inputs": [
        {
          "internalType": "address",
          "name": "account",
          "type": "address"
        },
        {
          "internalType": "uint256[]",
          "name": "ids",
          "type": "uint256[]"
        },
        {
          "internalType": "uint256[]",
          "name": "values",
          "type": "uint256[]"
        }
      ],
      "name": "burnBatch",
      "outputs": [],
      "stateMutability": "nonpayable",
      "type": "function"
    },
    {
      "inputs": [
        {
          "internalType": "uint256",
          "name": "id",
          "type": "uint256"
        }
      ],
      "name": "exists",
      "outputs": [
        {
          "internalType": "bool",
          "name": "",
          "type": "bool"
        }
      ],
      "stateMutability": "view",
      "type": "function"
    },
    {
      "inputs": [
        {
          "internalType": "address",
          "name": "account",
          "type": "address"
        },
        {
          "internalType": "address",
          "name": "operator",
          "type": "address"
        }
      ],
      "name": "isApprovedForAll",
      "outputs": [
        {
          "internalType": "bool",
          "name": "",
          "type": "bool"
        }
      ],
      "stateMutability": "view",
      "type": "function"
    },
    {
      "inputs": [],
      "name": "owner",
      "outputs": [
        {
          "internalType": "address",
          "name": "",
          "type": "address"
        }
      ],
      "stateMutability": "view",
      "type": "function"
    },
    {
      "inputs": [],
      "name": "paused",
      "outputs": [
        {
          "internalType": "bool",
          "name": "",
          "type": "bool"
        }
      ],
      "stateMutability": "view",
      "type": "function"
    },
    {
      "inputs": [],
      "name": "renounceOwnership",
      "outputs": [],
      "stateMutability": "nonpayable",
      "type": "function"
    },
    {
      "inputs": [
        {
          "internalType": "address",
          "name": "from",
          "type": "address"
        },
        {
          "internalType": "address",
          "name": "to",
          "type": "address"
        },
        {
          "internalType": "uint256[]",
          "name": "ids",
          "type": "uint256[]"
        },
        {
          "internalType": "uint256[]",
          "name": "amounts",
          "type": "uint256[]"
        },
        {
          "internalType": "bytes",
          "name": "data",
          "type": "bytes"
        }
      ],
      "name": "safeBatchTransferFrom",
      "outputs": [],
      "stateMutability": "nonpayable",
      "type": "function"
    },
    {
      "inputs": [
        {
          "internalType": "address",
          "name": "from",
          "type": "address"
        },
        {
          "internalType": "address",
          "name": "to",
          "type": "address"
        },
        {
          "internalType": "uint256",
          "name": "id",
          "type": "uint256"
        },
        {
          "internalType": "uint256",
          "name": "amount",
          "type": "uint256"
        },
        {
          "internalType": "bytes",
          "name": "data",
          "type": "bytes"
        }
      ],
      "name": "safeTransferFrom",
      "outputs": [],
      "stateMutability": "nonpayable",
      "type": "function"
    },
    {
      "inputs": [
        {
          "internalType": "address",
          "name": "operator",
          "type": "address"
        },
        {
          "internalType": "bool",
          "name": "approved",
          "type": "bool"
        }
      ],
      "name": "setApprovalForAll",
      "outputs": [],
      "stateMutability": "nonpayable",
      "type": "function"
    },
    {
      "inputs": [
        {
          "internalType": "bytes4",
          "name": "interfaceId",
          "type": "bytes4"
        }
      ],
      "name": "supportsInterface",
      "outputs": [
        {
          "internalType": "bool",
          "name": "",
          "type": "bool"
        }
      ],
      "stateMutability": "view",
      "type": "function"
    },
    {
      "inputs": [
        {
          "internalType": "uint256",
          "name": "id",
          "type": "uint256"
        }
      ],
      "name": "totalSupply",
      "outputs": [
        {
          "internalType": "uint256",
          "name": "",
          "type": "uint256"
        }
      ],
      "stateMutability": "view",
      "type": "function"
    },
    {
      "inputs": [
        {
          "internalType": "address",
          "name": "newOwner",
          "type": "address"
        }
      ],
      "name": "transferOwnership",
      "outputs": [],
      "stateMutability": "nonpayable",
      "type": "function"
    },
    {
      "inputs": [
        {
          "internalType": "uint256",
          "name": "",
          "type": "uint256"
        }
      ],
      "name": "uri",
      "outputs": [
        {
          "internalType": "string",
          "name": "",
          "type": "string"
        }
      ],
      "stateMutability": "view",
      "type": "function"
    },
    {
      "inputs": [
        {
          "internalType": "string",
          "name": "newuri",
          "type": "string"
        }
      ],
      "name": "setURI",
      "outputs": [],
      "stateMutability": "nonpayable",
      "type": "function"
    },
    {
      "inputs": [],
      "name": "pause",
      "outputs": [],
      "stateMutability": "nonpayable",
      "type": "function"
    },
    {
      "inputs": [],
      "name": "unpause",
      "outputs": [],
      "stateMutability": "nonpayable",
      "type": "function"
    },
    {
      "inputs": [
        {
          "internalType": "address",
          "name": "account",
          "type": "address"
        },
        {
          "internalType": "uint256",
          "name": "id",
          "type": "uint256"
        },
        {
          "internalType": "uint256",
          "name": "amount",
          "type": "uint256"
        },
        {
          "internalType": "bytes",
          "name": "data",
          "type": "bytes"
        }
      ],
      "name": "mint",
      "outputs": [],
      "stateMutability": "nonpayable",
      "type": "function"
    },
    {
      "inputs": [
        {
          "internalType": "address",
          "name": "to",
          "type": "address"
        },
        {
          "internalType": "uint256[]",
          "name": "ids",
          "type": "uint256[]"
        },
        {
          "internalType": "uint256[]",
          "name": "amounts",
          "type": "uint256[]"
        },
        {
          "internalType": "bytes",
          "name": "data",
          "type": "bytes"
        }
      ],
      "name": "mintBatch",
      "outputs": [],
      "stateMutability": "nonpayable",
      "type": "function"
    }
  ],
  "bytecode": "0x60806040523480156200001157600080fd5b506040516200261338038062002613833981016040819052620000349162000187565b80620000408162000060565b506200004c3362000079565b506003805460ff60a01b19169055620002a0565b805162000075906002906020840190620000cb565b5050565b600380546001600160a01b038381166001600160a01b0319831681179093556040519116919082907f8be0079c531659141344cd1fd0a4f28419497f9722a3daafe3b4186f6b6457e090600090a35050565b828054620000d99062000263565b90600052602060002090601f016020900481019282620000fd576000855562000148565b82601f106200011857805160ff191683800117855562000148565b8280016001018555821562000148579182015b82811115620001485782518255916020019190600101906200012b565b50620001569291506200015a565b5090565b5b808211156200015657600081556001016200015b565b634e487b7160e01b600052604160045260246000fd5b600060208083850312156200019b57600080fd5b82516001600160401b0380821115620001b357600080fd5b818501915085601f830112620001c857600080fd5b815181811115620001dd57620001dd62000171565b604051601f8201601f19908116603f0116810190838211818310171562000208576200020862000171565b8160405282815288868487010111156200022157600080fd5b600093505b8284101562000245578484018601518185018701529285019262000226565b82841115620002575760008684830101525b98975050505050505050565b600181811c908216806200027857607f821691505b602082108114156200029a57634e487b7160e01b600052602260045260246000fd5b50919050565b61236380620002b06000396000f3fe608060405234801561001057600080fd5b50600436106101365760003560e01c80636b20c454116100b8578063a22cb4651161007c578063a22cb4651461028c578063bd85b0391461029f578063e985e9c5146102bf578063f242432a146102fb578063f2fde38b1461030e578063f5298aca1461032157600080fd5b80636b20c4541461023b578063715018a61461024e578063731133e9146102565780638456cb59146102695780638da5cb5b1461027157600080fd5b80632eb2c2d6116100ff5780632eb2c2d6146101cc5780633f4ba83a146101df5780634e1273f4146101e75780634f558e79146102075780635c975abb1461022957600080fd5b8062fdd58e1461013b57806301ffc9a71461016157806302fe5305146101845780630e89341c146101995780631f7fdffa146101b9575b600080fd5b61014e6101493660046117b8565b610334565b6040519081526020015b60405180910390f35b61017461016f3660046117f8565b6103cb565b6040519015158152602001610158565b6101976101923660046118bd565b61041d565b005b6101ac6101a736600461190e565b610453565b6040516101589190611974565b6101976101c7366004611a3c565b6104e7565b6101976101da366004611ad5565b610523565b6101976105ba565b6101fa6101f5366004611b7f565b6105ee565b6040516101589190611c85565b61017461021536600461190e565b600090815260046020526040902054151590565b600354600160a01b900460ff16610174565b610197610249366004611c98565b610718565b610197610760565b610197610264366004611d0c565b610794565b6101976107ca565b6003546040516001600160a01b039091168152602001610158565b61019761029a366004611d61565b6107fc565b61014e6102ad36600461190e565b60009081526004602052604090205490565b6101746102cd366004611d9d565b6001600160a01b03918216600090815260016020908152604080832093909416825291909152205460ff1690565b610197610309366004611dd0565b61080b565b61019761031c366004611e35565b610850565b61019761032f366004611e50565b6108e8565b60006001600160a01b0383166103a55760405162461bcd60e51b815260206004820152602b60248201527f455243313135353a2062616c616e636520717565727920666f7220746865207a60448201526a65726f206164647265737360a81b60648201526084015b60405180910390fd5b506000908152602081815260408083206001600160a01b03949094168352929052205490565b60006001600160e01b03198216636cdb3d1360e11b14806103fc57506001600160e01b031982166303a24d0760e21b145b8061041757506301ffc9a760e01b6001600160e01b03198316145b92915050565b6003546001600160a01b031633146104475760405162461bcd60e51b815260040161039c90611e83565b6104508161092b565b50565b60606002805461046290611eb8565b80601f016020809104026020016040519081016040528092919081815260200182805461048e90611eb8565b80156104db5780601f106104b0576101008083540402835291602001916104db565b820191906000526020600020905b8154815290600101906020018083116104be57829003601f168201915b50505050509050919050565b6003546001600160a01b031633146105115760405162461bcd60e51b815260040161039c90611e83565b61051d8484848461093e565b50505050565b6001600160a01b03851633148061053f575061053f85336102cd565b6105a65760405162461bcd60e51b815260206004820152603260248201527f455243313135353a207472616e736665722063616c6c6572206973206e6f74206044820152711bdddb995c881b9bdc88185c1c1c9bdd995960721b606482015260840161039c565b6105b38585858585610a98565b5050505050565b6003546001600160a01b031633146105e45760405162461bcd60e51b815260040161039c90611e83565b6105ec610c42565b565b606081518351146106535760405162461bcd60e51b815260206004820152602960248201527f455243313135353a206163636f756e747320616e6420696473206c656e677468604482015268040dad2e6dac2e8c6d60bb1b606482015260840161039c565b6000835167ffffffffffffffff81111561066f5761066f61181c565b604051908082528060200260200182016040528015610698578160200160208202803683370190505b50905060005b8451811015610710576106e38582815181106106bc576106bc611ef3565b60200260200101518583815181106106d6576106d6611ef3565b6020026020010151610334565b8282815181106106f5576106f5611ef3565b602090810291909101015261070981611f1f565b905061069e565b509392505050565b6001600160a01b038316331480610734575061073483336102cd565b6107505760405162461bcd60e51b815260040161039c90611f3a565b61075b838383610cdf565b505050565b6003546001600160a01b0316331461078a5760405162461bcd60e51b815260040161039c90611e83565b6105ec6000610e6d565b6003546001600160a01b031633146107be5760405162461bcd60e51b815260040161039c90611e83565b61051d84848484610ebf565b6003546001600160a01b031633146107f45760405162461bcd60e51b815260040161039c90611e83565b6105ec610f95565b61080733838361101d565b5050565b6001600160a01b038516331480610827575061082785336102cd565b6108435760405162461bcd60e51b815260040161039c90611f3a565b6105b385858585856110fe565b6003546001600160a01b0316331461087a5760405162461bcd60e51b815260040161039c90611e83565b6001600160a01b0381166108df5760405162461bcd60e51b815260206004820152602660248201527f4f776e61626c653a206e6577206f776e657220697320746865207a65726f206160448201526564647265737360d01b606482015260840161039c565b61045081610e6d565b6001600160a01b038316331480610904575061090483336102cd565b6109205760405162461bcd60e51b815260040161039c90611f3a565b61075b83838361121b565b8051610807906002906020840190611703565b6001600160a01b0384166109645760405162461bcd60e51b815260040161039c90611f83565b81518351146109855760405162461bcd60e51b815260040161039c90611fc4565b336109958160008787878761131c565b60005b8451811015610a30578381815181106109b3576109b3611ef3565b60200260200101516000808784815181106109d0576109d0611ef3565b602002602001015181526020019081526020016000206000886001600160a01b03166001600160a01b031681526020019081526020016000206000828254610a18919061200c565b90915550819050610a2881611f1f565b915050610998565b50846001600160a01b031660006001600160a01b0316826001600160a01b03167f4a39dc06d4c0dbc64b70af90fd698a233a518aa5d07e595d983b8c0526c8f7fb8787604051610a81929190612024565b60405180910390a46105b381600087878787611377565b8151835114610ab95760405162461bcd60e51b815260040161039c90611fc4565b6001600160a01b038416610adf5760405162461bcd60e51b815260040161039c90612052565b33610aee81878787878761131c565b60005b8451811015610bd4576000858281518110610b0e57610b0e611ef3565b602002602001015190506000858381518110610b2c57610b2c611ef3565b602090810291909101810151600084815280835260408082206001600160a01b038e168352909352919091205490915081811015610b7c5760405162461bcd60e51b815260040161039c90612097565b6000838152602081815260408083206001600160a01b038e8116855292528083208585039055908b16825281208054849290610bb990849061200c565b9250508190555050505080610bcd90611f1f565b9050610af1565b50846001600160a01b0316866001600160a01b0316826001600160a01b03167f4a39dc06d4c0dbc64b70af90fd698a233a518aa5d07e595d983b8c0526c8f7fb8787604051610c24929190612024565b60405180910390a4610c3a818787878787611377565b505050505050565b600354600160a01b900460ff16610c925760405162461bcd60e51b815260206004820152601460248201527314185d5cd8589b194e881b9bdd081c185d5cd95960621b604482015260640161039c565b6003805460ff60a01b191690557f5db9ee0a495bf2e6ff9c91a7834c1ba4fdd244a5e8aa4e537bd38aeae4b073aa335b6040516001600160a01b03909116815260200160405180910390a1565b6001600160a01b038316610d055760405162461bcd60e51b815260040161039c906120e1565b8051825114610d265760405162461bcd60e51b815260040161039c90611fc4565b6000339050610d498185600086866040518060200160405280600081525061131c565b60005b8351811015610e0e576000848281518110610d6957610d69611ef3565b602002602001015190506000848381518110610d8757610d87611ef3565b602090810291909101810151600084815280835260408082206001600160a01b038c168352909352919091205490915081811015610dd75760405162461bcd60e51b815260040161039c90612124565b6000928352602083815260408085206001600160a01b038b1686529091529092209103905580610e0681611f1f565b915050610d4c565b5060006001600160a01b0316846001600160a01b0316826001600160a01b03167f4a39dc06d4c0dbc64b70af90fd698a233a518aa5d07e595d983b8c0526c8f7fb8686604051610e5f929190612024565b60405180910390a450505050565b600380546001600160a01b038381166001600160a01b0319831681179093556040519116919082907f8be0079c531659141344cd1fd0a4f28419497f9722a3daafe3b4186f6b6457e090600090a35050565b6001600160a01b038416610ee55760405162461bcd60e51b815260040161039c90611f83565b33610f0581600087610ef6886114e2565b610eff886114e2565b8761131c565b6000848152602081815260408083206001600160a01b038916845290915281208054859290610f3590849061200c565b909155505060408051858152602081018590526001600160a01b0380881692600092918516917fc3d58168c5ae7397731d063d5bbf3d657854427343f4c083240f7aacaa2d0f62910160405180910390a46105b38160008787878761152d565b600354600160a01b900460ff1615610fe25760405162461bcd60e51b815260206004820152601060248201526f14185d5cd8589b194e881c185d5cd95960821b604482015260640161039c565b6003805460ff60a01b1916600160a01b1790557f62e78cea01bee320cd4e420270b5ea74000d11b0c9f74754ebdbfc544b05a258610cc23390565b816001600160a01b0316836001600160a01b031614156110915760405162461bcd60e51b815260206004820152602960248201527f455243313135353a2073657474696e6720617070726f76616c20737461747573604482015268103337b91039b2b63360b91b606482015260840161039c565b6001600160a01b03838116600081815260016020908152604080832094871680845294825291829020805460ff191686151590811790915591519182527f17307eab39ab6107e8899845ad3d59bd9653f200f220920489ca2b5937696c31910160405180910390a3505050565b6001600160a01b0384166111245760405162461bcd60e51b815260040161039c90612052565b33611134818787610ef6886114e2565b6000848152602081815260408083206001600160a01b038a168452909152902054838110156111755760405162461bcd60e51b815260040161039c90612097565b6000858152602081815260408083206001600160a01b038b81168552925280832087850390559088168252812080548692906111b290849061200c565b909155505060408051868152602081018690526001600160a01b03808916928a821692918616917fc3d58168c5ae7397731d063d5bbf3d657854427343f4c083240f7aacaa2d0f62910160405180910390a461121282888888888861152d565b50505050505050565b6001600160a01b0383166112415760405162461bcd60e51b815260040161039c906120e1565b3361127081856000611252876114e2565b61125b876114e2565b6040518060200160405280600081525061131c565b6000838152602081815260408083206001600160a01b0388168452909152902054828110156112b15760405162461bcd60e51b815260040161039c90612124565b6000848152602081815260408083206001600160a01b03898116808652918452828520888703905582518981529384018890529092908616917fc3d58168c5ae7397731d063d5bbf3d657854427343f4c083240f7aacaa2d0f62910160405180910390a45050505050565b600354600160a01b900460ff16156113695760405162461bcd60e51b815260206004820152601060248201526f14185d5cd8589b194e881c185d5cd95960821b604482015260640161039c565b610c3a8686868686866115f7565b6001600160a01b0384163b15610c3a5760405163bc197c8160e01b81526001600160a01b0385169063bc197c81906113bb9089908990889088908890600401612168565b602060405180830381600087803b1580156113d557600080fd5b505af1925050508015611405575060408051601f3d908101601f19168201909252611402918101906121c6565b60015b6114b2576114116121e3565b806308c379a0141561144b57506114266121ff565b80611431575061144d565b8060405162461bcd60e51b815260040161039c9190611974565b505b60405162461bcd60e51b815260206004820152603460248201527f455243313135353a207472616e7366657220746f206e6f6e20455243313135356044820152732932b1b2b4bb32b91034b6b83632b6b2b73a32b960611b606482015260840161039c565b6001600160e01b0319811663bc197c8160e01b146112125760405162461bcd60e51b815260040161039c90612289565b6040805160018082528183019092526060916000919060208083019080368337019050509050828160008151811061151c5761151c611ef3565b602090810291909101015292915050565b6001600160a01b0384163b15610c3a5760405163f23a6e6160e01b81526001600160a01b0385169063f23a6e619061157190899089908890889088906004016122d1565b602060405180830381600087803b15801561158b57600080fd5b505af19250505080156115bb575060408051601f3d908101601f191682019092526115b8918101906121c6565b60015b6115c7576114116121e3565b6001600160e01b0319811663f23a6e6160e01b146112125760405162461bcd60e51b815260040161039c90612289565b6001600160a01b03851661167e5760005b835181101561167c5782818151811061162357611623611ef3565b60200260200101516004600086848151811061164157611641611ef3565b602002602001015181526020019081526020016000206000828254611666919061200c565b90915550611675905081611f1f565b9050611608565b505b6001600160a01b038416610c3a5760005b8351811015611212578281815181106116aa576116aa611ef3565b6020026020010151600460008684815181106116c8576116c8611ef3565b6020026020010151815260200190815260200160002060008282546116ed9190612316565b909155506116fc905081611f1f565b905061168f565b82805461170f90611eb8565b90600052602060002090601f0160209004810192826117315760008555611777565b82601f1061174a57805160ff1916838001178555611777565b82800160010185558215611777579182015b8281111561177757825182559160200191906001019061175c565b50611783929150611787565b5090565b5b808211156117835760008155600101611788565b80356001600160a01b03811681146117b357600080fd5b919050565b600080604083850312156117cb57600080fd5b6117d48361179c565b946020939093013593505050565b6001600160e01b03198116811461045057600080fd5b60006020828403121561180a57600080fd5b8135611815816117e2565b9392505050565b634e487b7160e01b600052604160045260246000fd5b601f8201601f1916810167ffffffffffffffff811182821017156118585761185861181c565b6040525050565b600067ffffffffffffffff8311156118795761187961181c565b604051611890601f8501601f191660200182611832565b8091508381528484840111156118a557600080fd5b83836020830137600060208583010152509392505050565b6000602082840312156118cf57600080fd5b813567ffffffffffffffff8111156118e657600080fd5b8201601f810184136118f757600080fd5b6119068482356020840161185f565b949350505050565b60006020828403121561192057600080fd5b5035919050565b6000815180845260005b8181101561194d57602081850181015186830182015201611931565b8181111561195f576000602083870101525b50601f01601f19169290920160200192915050565b6020815260006118156020830184611927565b600067ffffffffffffffff8211156119a1576119a161181c565b5060051b60200190565b600082601f8301126119bc57600080fd5b813560206119c982611987565b6040516119d68282611832565b83815260059390931b85018201928281019150868411156119f657600080fd5b8286015b84811015611a1157803583529183019183016119fa565b509695505050505050565b600082601f830112611a2d57600080fd5b6118158383356020850161185f565b60008060008060808587031215611a5257600080fd5b611a5b8561179c565b9350602085013567ffffffffffffffff80821115611a7857600080fd5b611a84888389016119ab565b94506040870135915080821115611a9a57600080fd5b611aa6888389016119ab565b93506060870135915080821115611abc57600080fd5b50611ac987828801611a1c565b91505092959194509250565b600080600080600060a08688031215611aed57600080fd5b611af68661179c565b9450611b046020870161179c565b9350604086013567ffffffffffffffff80821115611b2157600080fd5b611b2d89838a016119ab565b94506060880135915080821115611b4357600080fd5b611b4f89838a016119ab565b93506080880135915080821115611b6557600080fd5b50611b7288828901611a1c565b9150509295509295909350565b60008060408385031215611b9257600080fd5b823567ffffffffffffffff80821115611baa57600080fd5b818501915085601f830112611bbe57600080fd5b81356020611bcb82611987565b604051611bd88282611832565b83815260059390931b8501820192828101915089841115611bf857600080fd5b948201945b83861015611c1d57611c0e8661179c565b82529482019490820190611bfd565b96505086013592505080821115611c3357600080fd5b50611c40858286016119ab565b9150509250929050565b600081518084526020808501945080840160005b83811015611c7a57815187529582019590820190600101611c5e565b509495945050505050565b6020815260006118156020830184611c4a565b600080600060608486031215611cad57600080fd5b611cb68461179c565b9250602084013567ffffffffffffffff80821115611cd357600080fd5b611cdf878388016119ab565b93506040860135915080821115611cf557600080fd5b50611d02868287016119ab565b9150509250925092565b60008060008060808587031215611d2257600080fd5b611d2b8561179c565b93506020850135925060408501359150606085013567ffffffffffffffff811115611d5557600080fd5b611ac987828801611a1c565b60008060408385031215611d7457600080fd5b611d7d8361179c565b915060208301358015158114611d9257600080fd5b809150509250929050565b60008060408385031215611db057600080fd5b611db98361179c565b9150611dc76020840161179c565b90509250929050565b600080600080600060a08688031215611de857600080fd5b611df18661179c565b9450611dff6020870161179c565b93506040860135925060608601359150608086013567ffffffffffffffff811115611e2957600080fd5b611b7288828901611a1c565b600060208284031215611e4757600080fd5b6118158261179c565b600080600060608486031215611e6557600080fd5b611e6e8461179c565b95602085013595506040909401359392505050565b6020808252818101527f4f776e61626c653a2063616c6c6572206973206e6f7420746865206f776e6572604082015260600190565b600181811c90821680611ecc57607f821691505b60208210811415611eed57634e487b7160e01b600052602260045260246000fd5b50919050565b634e487b7160e01b600052603260045260246000fd5b634e487b7160e01b600052601160045260246000fd5b6000600019821415611f3357611f33611f09565b5060010190565b60208082526029908201527f455243313135353a2063616c6c6572206973206e6f74206f776e6572206e6f7260408201526808185c1c1c9bdd995960ba1b606082015260800190565b60208082526021908201527f455243313135353a206d696e7420746f20746865207a65726f206164647265736040820152607360f81b606082015260800190565b60208082526028908201527f455243313135353a2069647320616e6420616d6f756e7473206c656e677468206040820152670dad2e6dac2e8c6d60c31b606082015260800190565b6000821982111561201f5761201f611f09565b500190565b6040815260006120376040830185611c4a565b82810360208401526120498185611c4a565b95945050505050565b60208082526025908201527f455243313135353a207472616e7366657220746f20746865207a65726f206164604082015264647265737360d81b606082015260800190565b6020808252602a908201527f455243313135353a20696e73756666696369656e742062616c616e636520666f60408201526939103a3930b739b332b960b11b606082015260800190565b60208082526023908201527f455243313135353a206275726e2066726f6d20746865207a65726f206164647260408201526265737360e81b606082015260800190565b60208082526024908201527f455243313135353a206275726e20616d6f756e7420657863656564732062616c604082015263616e636560e01b606082015260800190565b6001600160a01b0386811682528516602082015260a06040820181905260009061219490830186611c4a565b82810360608401526121a68186611c4a565b905082810360808401526121ba8185611927565b98975050505050505050565b6000602082840312156121d857600080fd5b8151611815816117e2565b600060033d11156121fc5760046000803e5060005160e01c5b90565b600060443d101561220d5790565b6040516003193d81016004833e81513d67ffffffffffffffff816024840111818411171561223d57505050505090565b82850191508151818111156122555750505050505090565b843d870101602082850101111561226f5750505050505090565b61227e60208286010187611832565b509095945050505050565b60208082526028908201527f455243313135353a204552433131353552656365697665722072656a656374656040820152676420746f6b656e7360c01b606082015260800190565b6001600160a01b03868116825285166020820152604081018490526060810183905260a06080820181905260009061230b90830184611927565b979650505050505050565b60008282101561232857612328611f09565b50039056fea2646970667358221220e46c327208d2f92ea7143c281653ef33b51115aed7e785299332bb485fe7f12e64736f6c63430008090033",
  "immutableReferences": {},
  "source": "// SPDX-License-Identifier: GPL-3.0-or-later\n\npragma solidity ^0.8.9;\n\nimport \"@openzeppelin/contracts/token/ERC1155/ERC1155.sol\";\nimport \"@openzeppelin/contracts/access/Ownable.sol\";\nimport \"@openzeppelin/contracts/security/Pausable.sol\";\nimport \"@openzeppelin/contracts/token/ERC1155/extensions/ERC1155Burnable.sol\";\nimport \"@openzeppelin/contracts/token/ERC1155/extensions/ERC1155Supply.sol\";\n\ncontract ERC1155Custom is\n    ERC1155,\n    Ownable,\n    Pausable,\n    ERC1155Burnable,\n    ERC1155Supply\n{\n    constructor(string memory _uri) ERC1155(_uri) {}\n\n    function setURI(string memory newuri) public onlyOwner {\n        _setURI(newuri);\n    }\n\n    function pause() public onlyOwner {\n        _pause();\n    }\n\n    function unpause() public onlyOwner {\n        _unpause();\n    }\n\n    function mint(\n        address account,\n        uint256 id,\n        uint256 amount,\n        bytes memory data\n    ) public onlyOwner {\n        _mint(account, id, amount, data);\n    }\n\n    function mintBatch(\n        address to,\n        uint256[] memory ids,\n        uint256[] memory amounts,\n        bytes memory data\n    ) public onlyOwner {\n        _mintBatch(to, ids, amounts, data);\n    }\n\n    function _beforeTokenTransfer(\n        address operator,\n        address from,\n        address to,\n        uint256[] memory ids,\n        uint256[] memory amounts,\n        bytes memory data\n    ) internal override(ERC1155, ERC1155Supply) whenNotPaused {\n        super._beforeTokenTransfer(operator, from, to, ids, amounts, data);\n    }\n}\n",
  "sourcePath": "/home/yosephkurniasoenggoro/Documents/GitHub/miners-nations-smart-contracts/contracts/tokens/ERC1155Custom.sol",
  "compiler": {
    "name": "solc",
    "version": "0.8.9+commit.e5eed63a.Emscripten.clang"
  },
  "schemaVersion": "3.4.3",
  "updatedAt": "2022-01-08T17:12:57.645Z",
  "devdoc": {
    "kind": "dev",
    "methods": {
      "balanceOf(address,uint256)": {
        "details": "See {IERC1155-balanceOf}. Requirements: - `account` cannot be the zero address."
      },
      "balanceOfBatch(address[],uint256[])": {
        "details": "See {IERC1155-balanceOfBatch}. Requirements: - `accounts` and `ids` must have the same length."
      },
      "exists(uint256)": {
        "details": "Indicates whether any token exist with a given id, or not."
      },
      "isApprovedForAll(address,address)": {
        "details": "See {IERC1155-isApprovedForAll}."
      },
      "owner()": {
        "details": "Returns the address of the current owner."
      },
      "paused()": {
        "details": "Returns true if the contract is paused, and false otherwise."
      },
      "renounceOwnership()": {
        "details": "Leaves the contract without owner. It will not be possible to call `onlyOwner` functions anymore. Can only be called by the current owner. NOTE: Renouncing ownership will leave the contract without an owner, thereby removing any functionality that is only available to the owner."
      },
      "safeBatchTransferFrom(address,address,uint256[],uint256[],bytes)": {
        "details": "See {IERC1155-safeBatchTransferFrom}."
      },
      "safeTransferFrom(address,address,uint256,uint256,bytes)": {
        "details": "See {IERC1155-safeTransferFrom}."
      },
      "setApprovalForAll(address,bool)": {
        "details": "See {IERC1155-setApprovalForAll}."
      },
      "supportsInterface(bytes4)": {
        "details": "See {IERC165-supportsInterface}."
      },
      "totalSupply(uint256)": {
        "details": "Total amount of tokens in with a given id."
      },
      "transferOwnership(address)": {
        "details": "Transfers ownership of the contract to a new account (`newOwner`). Can only be called by the current owner."
      },
      "uri(uint256)": {
        "details": "See {IERC1155MetadataURI-uri}. This implementation returns the same URI for *all* token types. It relies on the token type ID substitution mechanism https://eips.ethereum.org/EIPS/eip-1155#metadata[defined in the EIP]. Clients calling this function must replace the `\\{id\\}` substring with the actual token type ID."
      }
    },
    "version": 1
  },
  "userdoc": {
    "kind": "user",
    "methods": {},
    "version": 1
  }
}