{
  "contractName": "ERC20Custom",
  "abi": [
    {
      "inputs": [
        {
          "internalType": "string",
          "name": "_name",
          "type": "string"
        },
        {
          "internalType": "string",
          "name": "_symbol",
          "type": "string"
        },
        {
          "internalType": "uint256",
          "name": "_capSupply",
          "type": "uint256"
        }
      ],
      "stateMutability": "nonpayable",
      "type": "constructor"
    },
    {
      "anonymous": false,
      "inputs": [
        {
          "indexed": true,
          "internalType": "address",
          "name": "owner",
          "type": "address"
        },
        {
          "indexed": true,
          "internalType": "address",
          "name": "spender",
          "type": "address"
        },
        {
          "indexed": false,
          "internalType": "uint256",
          "name": "value",
          "type": "uint256"
        }
      ],
      "name": "Approval",
      "type": "event"
    },
    {
      "anonymous": false,
      "inputs": [
        {
          "indexed": true,
          "internalType": "address",
          "name": "previousOwner",
          "type": "address"
        },
        {
          "indexed": true,
          "internalType": "address",
          "name": "newOwner",
          "type": "address"
        }
      ],
      "name": "OwnershipTransferred",
      "type": "event"
    },
    {
      "anonymous": false,
      "inputs": [
        {
          "indexed": true,
          "internalType": "address",
          "name": "from",
          "type": "address"
        },
        {
          "indexed": true,
          "internalType": "address",
          "name": "to",
          "type": "address"
        },
        {
          "indexed": false,
          "internalType": "uint256",
          "name": "value",
          "type": "uint256"
        }
      ],
      "name": "Transfer",
      "type": "event"
    },
    {
      "inputs": [],
      "name": "DOMAIN_SEPARATOR",
      "outputs": [
        {
          "internalType": "bytes32",
          "name": "",
          "type": "bytes32"
        }
      ],
      "stateMutability": "view",
      "type": "function"
    },
    {
      "inputs": [
        {
          "internalType": "address",
          "name": "owner",
          "type": "address"
        },
        {
          "internalType": "address",
          "name": "spender",
          "type": "address"
        }
      ],
      "name": "allowance",
      "outputs": [
        {
          "internalType": "uint256",
          "name": "",
          "type": "uint256"
        }
      ],
      "stateMutability": "view",
      "type": "function"
    },
    {
      "inputs": [
        {
          "internalType": "address",
          "name": "spender",
          "type": "address"
        },
        {
          "internalType": "uint256",
          "name": "amount",
          "type": "uint256"
        }
      ],
      "name": "approve",
      "outputs": [
        {
          "internalType": "bool",
          "name": "",
          "type": "bool"
        }
      ],
      "stateMutability": "nonpayable",
      "type": "function"
    },
    {
      "inputs": [
        {
          "internalType": "address",
          "name": "account",
          "type": "address"
        }
      ],
      "name": "balanceOf",
      "outputs": [
        {
          "internalType": "uint256",
          "name": "",
          "type": "uint256"
        }
      ],
      "stateMutability": "view",
      "type": "function"
    },
    {
      "inputs": [
        {
          "internalType": "uint256",
          "name": "amount",
          "type": "uint256"
        }
      ],
      "name": "burn",
      "outputs": [],
      "stateMutability": "nonpayable",
      "type": "function"
    },
    {
      "inputs": [
        {
          "internalType": "address",
          "name": "account",
          "type": "address"
        },
        {
          "internalType": "uint256",
          "name": "amount",
          "type": "uint256"
        }
      ],
      "name": "burnFrom",
      "outputs": [],
      "stateMutability": "nonpayable",
      "type": "function"
    },
    {
      "inputs": [],
      "name": "decimals",
      "outputs": [
        {
          "internalType": "uint8",
          "name": "",
          "type": "uint8"
        }
      ],
      "stateMutability": "view",
      "type": "function"
    },
    {
      "inputs": [
        {
          "internalType": "address",
          "name": "spender",
          "type": "address"
        },
        {
          "internalType": "uint256",
          "name": "subtractedValue",
          "type": "uint256"
        }
      ],
      "name": "decreaseAllowance",
      "outputs": [
        {
          "internalType": "bool",
          "name": "",
          "type": "bool"
        }
      ],
      "stateMutability": "nonpayable",
      "type": "function"
    },
    {
      "inputs": [
        {
          "internalType": "address",
          "name": "token",
          "type": "address"
        },
        {
          "internalType": "uint256",
          "name": "amount",
          "type": "uint256"
        }
      ],
      "name": "flashFee",
      "outputs": [
        {
          "internalType": "uint256",
          "name": "",
          "type": "uint256"
        }
      ],
      "stateMutability": "view",
      "type": "function"
    },
    {
      "inputs": [
        {
          "internalType": "contract IERC3156FlashBorrower",
          "name": "receiver",
          "type": "address"
        },
        {
          "internalType": "address",
          "name": "token",
          "type": "address"
        },
        {
          "internalType": "uint256",
          "name": "amount",
          "type": "uint256"
        },
        {
          "internalType": "bytes",
          "name": "data",
          "type": "bytes"
        }
      ],
      "name": "flashLoan",
      "outputs": [
        {
          "internalType": "bool",
          "name": "",
          "type": "bool"
        }
      ],
      "stateMutability": "nonpayable",
      "type": "function"
    },
    {
      "inputs": [
        {
          "internalType": "address",
          "name": "spender",
          "type": "address"
        },
        {
          "internalType": "uint256",
          "name": "addedValue",
          "type": "uint256"
        }
      ],
      "name": "increaseAllowance",
      "outputs": [
        {
          "internalType": "bool",
          "name": "",
          "type": "bool"
        }
      ],
      "stateMutability": "nonpayable",
      "type": "function"
    },
    {
      "inputs": [
        {
          "internalType": "address",
          "name": "token",
          "type": "address"
        }
      ],
      "name": "maxFlashLoan",
      "outputs": [
        {
          "internalType": "uint256",
          "name": "",
          "type": "uint256"
        }
      ],
      "stateMutability": "view",
      "type": "function"
    },
    {
      "inputs": [],
      "name": "name",
      "outputs": [
        {
          "internalType": "string",
          "name": "",
          "type": "string"
        }
      ],
      "stateMutability": "view",
      "type": "function"
    },
    {
      "inputs": [
        {
          "internalType": "address",
          "name": "owner",
          "type": "address"
        }
      ],
      "name": "nonces",
      "outputs": [
        {
          "internalType": "uint256",
          "name": "",
          "type": "uint256"
        }
      ],
      "stateMutability": "view",
      "type": "function"
    },
    {
      "inputs": [],
      "name": "owner",
      "outputs": [
        {
          "internalType": "address",
          "name": "",
          "type": "address"
        }
      ],
      "stateMutability": "view",
      "type": "function"
    },
    {
      "inputs": [
        {
          "internalType": "address",
          "name": "owner",
          "type": "address"
        },
        {
          "internalType": "address",
          "name": "spender",
          "type": "address"
        },
        {
          "internalType": "uint256",
          "name": "value",
          "type": "uint256"
        },
        {
          "internalType": "uint256",
          "name": "deadline",
          "type": "uint256"
        },
        {
          "internalType": "uint8",
          "name": "v",
          "type": "uint8"
        },
        {
          "internalType": "bytes32",
          "name": "r",
          "type": "bytes32"
        },
        {
          "internalType": "bytes32",
          "name": "s",
          "type": "bytes32"
        }
      ],
      "name": "permit",
      "outputs": [],
      "stateMutability": "nonpayable",
      "type": "function"
    },
    {
      "inputs": [],
      "name": "renounceOwnership",
      "outputs": [],
      "stateMutability": "nonpayable",
      "type": "function"
    },
    {
      "inputs": [],
      "name": "symbol",
      "outputs": [
        {
          "internalType": "string",
          "name": "",
          "type": "string"
        }
      ],
      "stateMutability": "view",
      "type": "function"
    },
    {
      "inputs": [],
      "name": "totalSupply",
      "outputs": [
        {
          "internalType": "uint256",
          "name": "",
          "type": "uint256"
        }
      ],
      "stateMutability": "view",
      "type": "function"
    },
    {
      "inputs": [
        {
          "internalType": "address",
          "name": "recipient",
          "type": "address"
        },
        {
          "internalType": "uint256",
          "name": "amount",
          "type": "uint256"
        }
      ],
      "name": "transfer",
      "outputs": [
        {
          "internalType": "bool",
          "name": "",
          "type": "bool"
        }
      ],
      "stateMutability": "nonpayable",
      "type": "function"
    },
    {
      "inputs": [
        {
          "internalType": "address",
          "name": "sender",
          "type": "address"
        },
        {
          "internalType": "address",
          "name": "recipient",
          "type": "address"
        },
        {
          "internalType": "uint256",
          "name": "amount",
          "type": "uint256"
        }
      ],
      "name": "transferFrom",
      "outputs": [
        {
          "internalType": "bool",
          "name": "",
          "type": "bool"
        }
      ],
      "stateMutability": "nonpayable",
      "type": "function"
    },
    {
      "inputs": [
        {
          "internalType": "address",
          "name": "newOwner",
          "type": "address"
        }
      ],
      "name": "transferOwnership",
      "outputs": [],
      "stateMutability": "nonpayable",
      "type": "function"
    },
    {
      "inputs": [],
      "name": "cap",
      "outputs": [
        {
          "internalType": "uint256",
          "name": "",
          "type": "uint256"
        }
      ],
      "stateMutability": "view",
      "type": "function"
    },
    {
      "inputs": [
        {
          "internalType": "uint256",
          "name": "_newCap",
          "type": "uint256"
        }
      ],
      "name": "setCap",
      "outputs": [],
      "stateMutability": "nonpayable",
      "type": "function"
    },
    {
      "inputs": [
        {
          "internalType": "uint256",
          "name": "_increaseCap",
          "type": "uint256"
        }
      ],
      "name": "increaseCap",
      "outputs": [],
      "stateMutability": "nonpayable",
      "type": "function"
    },
    {
      "inputs": [
        {
          "internalType": "uint256",
          "name": "_decreaseCap",
          "type": "uint256"
        }
      ],
      "name": "decreaseCap",
      "outputs": [],
      "stateMutability": "nonpayable",
      "type": "function"
    }
  ],
  "bytecode": "0x6101606040527f6e71edae12b1b97f4d1f60370fef10105fa2faae0126114a169c64845d6126c9610140523480156200003757600080fd5b506040516200205f3803806200205f8339810160408190526200005a916200037a565b8180604051806040016040528060018152602001603160f81b815250858581600390805190602001906200009092919062000207565b508051620000a690600490602084019062000207565b505050620000c3620000bd620001b160201b60201c565b620001b5565b815160209283012081519183019190912060e08290526101008190524660a0818152604080517f8b73c3c69bb8fe3d512ecc4cf759cc79239f7b179b0ffacaa9a75d522b39400f818801819052818301969096526060810194909452608080850193909352308483018190528151808603909301835260c094850190915281519190950120905291909152610120525080620001a55760405162461bcd60e51b815260206004820152601560248201527f45524332304361707065643a2063617020697320300000000000000000000000604482015260640160405180910390fd5b600755506200042a9050565b3390565b600580546001600160a01b038381166001600160a01b0319831681179093556040519116919082907f8be0079c531659141344cd1fd0a4f28419497f9722a3daafe3b4186f6b6457e090600090a35050565b8280546200021590620003ed565b90600052602060002090601f01602090048101928262000239576000855562000284565b82601f106200025457805160ff191683800117855562000284565b8280016001018555821562000284579182015b828111156200028457825182559160200191906001019062000267565b506200029292915062000296565b5090565b5b8082111562000292576000815560010162000297565b634e487b7160e01b600052604160045260246000fd5b600082601f830112620002d557600080fd5b81516001600160401b0380821115620002f257620002f2620002ad565b604051601f8301601f19908116603f011681019082821181831017156200031d576200031d620002ad565b816040528381526020925086838588010111156200033a57600080fd5b600091505b838210156200035e57858201830151818301840152908201906200033f565b83821115620003705760008385830101525b9695505050505050565b6000806000606084860312156200039057600080fd5b83516001600160401b0380821115620003a857600080fd5b620003b687838801620002c3565b94506020860151915080821115620003cd57600080fd5b50620003dc86828701620002c3565b925050604084015190509250925092565b600181811c908216806200040257607f821691505b602082108114156200042457634e487b7160e01b600052602260045260246000fd5b50919050565b60805160a05160c05160e051610100516101205161014051611bda620004856000396000610b88015260006111100152600061115f0152600061113a01526000611093015260006110bd015260006110e70152611bda6000f3fe608060405234801561001057600080fd5b506004361061018e5760003560e01c806370a08231116100de57806395d89b4111610097578063d505accf11610071578063d505accf1461033f578063d9d98ce414610352578063dd62ed3e14610365578063f2fde38b1461039e57600080fd5b806395d89b4114610311578063a457c2d714610319578063a9059cbb1461032c57600080fd5b806370a082311461028c578063715018a6146102b55780637430a689146102bd57806379cc6790146102d05780637ecebe00146102e35780638da5cb5b146102f657600080fd5b80633644e5151161014b57806347786d371161012557806347786d3714610240578063523e9551146102535780635cffe9de14610266578063613255ab1461027957600080fd5b80633644e51514610210578063395093511461021857806342966c681461022b57600080fd5b806306fdde0314610193578063095ea7b3146101b157806318160ddd146101d457806323b872dd146101e6578063313ce567146101f9578063355274ea14610208575b600080fd5b61019b6103b1565b6040516101a8919061180e565b60405180910390f35b6101c46101bf366004611878565b610443565b60405190151581526020016101a8565b6002545b6040519081526020016101a8565b6101c46101f43660046118a4565b610459565b604051601281526020016101a8565b6007546101d8565b6101d8610508565b6101c4610226366004611878565b610517565b61023e6102393660046118e5565b610553565b005b61023e61024e3660046118e5565b610560565b61023e6102613660046118e5565b610612565b6101c46102743660046118fe565b6106c3565b6101d861028736600461199d565b6108af565b6101d861029a36600461199d565b6001600160a01b031660009081526020819052604090205490565b61023e6108dd565b61023e6102cb3660046118e5565b610913565b61023e6102de366004611878565b6109db565b6101d86102f136600461199d565b610a61565b6005546040516001600160a01b0390911681526020016101a8565b61019b610a7f565b6101c4610327366004611878565b610a8e565b6101c461033a366004611878565b610b27565b61023e61034d3660046119ba565b610b34565b6101d8610360366004611878565b610c98565b6101d8610373366004611a31565b6001600160a01b03918216600090815260016020908152604080832093909416825291909152205490565b61023e6103ac36600461199d565b610cfb565b6060600380546103c090611a6a565b80601f01602080910402602001604051908101604052809291908181526020018280546103ec90611a6a565b80156104395780601f1061040e57610100808354040283529160200191610439565b820191906000526020600020905b81548152906001019060200180831161041c57829003601f168201915b5050505050905090565b6000610450338484610d93565b50600192915050565b6000610466848484610eb7565b6001600160a01b0384166000908152600160209081526040808320338452909152902054828110156104f05760405162461bcd60e51b815260206004820152602860248201527f45524332303a207472616e7366657220616d6f756e74206578636565647320616044820152676c6c6f77616e636560c01b60648201526084015b60405180910390fd5b6104fd8533858403610d93565b506001949350505050565b6000610512611086565b905090565b3360008181526001602090815260408083206001600160a01b0387168452909152812054909161045091859061054e908690611ab5565b610d93565b61055d33826111ad565b50565b6005546001600160a01b0316331461058a5760405162461bcd60e51b81526004016104e790611acd565b600254811161060d5760405162461bcd60e51b815260206004820152604360248201527f4552433230437573746f6d3a204e6577206361702073657420746f206265206c60448201527f6f776572207468616e206f7220657175616c20746f20746f74616c20737570706064820152626c792160e81b608482015260a4016104e7565b600755565b6005546001600160a01b0316331461063c5760405162461bcd60e51b81526004016104e790611acd565b600081116106ab5760405162461bcd60e51b815260206004820152603660248201527f4552433230437573746f6d3a20496e637265617365204361702076616c756520604482015275686173206e6f6e2d76616c696420302076616c75652160501b60648201526084016104e7565b6106bd6106b760075490565b826111bb565b60075550565b6000806106d08686610c98565b90506106dc87866111ce565b6040516323e30c8b60e01b81527f439148f0bbc682ca079e46d6e2c2f0c1e3b820f1a291b069d8882abf8cf18dd9906001600160a01b038916906323e30c8b906107349033908b908b9088908c908c90600401611b02565b602060405180830381600087803b15801561074e57600080fd5b505af1158015610762573d6000803e3d6000fd5b505050506040513d601f19601f820116820180604052508101906107869190611b5e565b146107df5760405162461bcd60e51b8152602060048201526024808201527f4552433230466c6173684d696e743a20696e76616c69642072657475726e2076604482015263616c756560e01b60648201526084016104e7565b6001600160a01b038716600090815260016020908152604080832030845290915290205461080d8287611ab5565b8110156108745760405162461bcd60e51b815260206004820152602f60248201527f4552433230466c6173684d696e743a20616c6c6f77616e636520646f6573206e60448201526e1bdd08185b1b1bddc81c99599d5b99608a1b60648201526084016104e7565b61088e8830846108848a86611b77565b61054e9190611b77565b6108a18861089c8489611ab5565b6111ad565b506001979650505050505050565b60006001600160a01b03821630146108c85760006108d7565b6002546108d790600019611b77565b92915050565b6005546001600160a01b031633146109075760405162461bcd60e51b81526004016104e790611acd565b610911600061123d565b565b6005546001600160a01b0316331461093d5760405162461bcd60e51b81526004016104e790611acd565b600081118015610960575061095c61095460075490565b60025461128f565b8111155b6109c95760405162461bcd60e51b815260206004820152603460248201527f4552433230437573746f6d3a204465637265617365204361702076616c756520604482015273686173206e6f6e2d76616c69642076616c75652160601b60648201526084016104e7565b6106bd6109d560075490565b8261128f565b60006109e78333610373565b905081811015610a455760405162461bcd60e51b8152602060048201526024808201527f45524332303a206275726e20616d6f756e74206578636565647320616c6c6f77604482015263616e636560e01b60648201526084016104e7565b610a528333848403610d93565b610a5c83836111ad565b505050565b6001600160a01b0381166000908152600660205260408120546108d7565b6060600480546103c090611a6a565b3360009081526001602090815260408083206001600160a01b038616845290915281205482811015610b105760405162461bcd60e51b815260206004820152602560248201527f45524332303a2064656372656173656420616c6c6f77616e63652062656c6f77604482015264207a65726f60d81b60648201526084016104e7565b610b1d3385858403610d93565b5060019392505050565b6000610450338484610eb7565b83421115610b845760405162461bcd60e51b815260206004820152601d60248201527f45524332305065726d69743a206578706972656420646561646c696e6500000060448201526064016104e7565b60007f0000000000000000000000000000000000000000000000000000000000000000888888610bb38c61129b565b6040805160208101969096526001600160a01b0394851690860152929091166060840152608083015260a082015260c0810186905260e0016040516020818303038152906040528051906020012090506000610c0e826112c3565b90506000610c1e82878787611311565b9050896001600160a01b0316816001600160a01b031614610c815760405162461bcd60e51b815260206004820152601e60248201527f45524332305065726d69743a20696e76616c6964207369676e6174757265000060448201526064016104e7565b610c8c8a8a8a610d93565b50505050505050505050565b60006001600160a01b0383163014610cf25760405162461bcd60e51b815260206004820152601b60248201527f4552433230466c6173684d696e743a2077726f6e6720746f6b656e000000000060448201526064016104e7565b50600092915050565b6005546001600160a01b03163314610d255760405162461bcd60e51b81526004016104e790611acd565b6001600160a01b038116610d8a5760405162461bcd60e51b815260206004820152602660248201527f4f776e61626c653a206e6577206f776e657220697320746865207a65726f206160448201526564647265737360d01b60648201526084016104e7565b61055d8161123d565b6001600160a01b038316610df55760405162461bcd60e51b8152602060048201526024808201527f45524332303a20617070726f76652066726f6d20746865207a65726f206164646044820152637265737360e01b60648201526084016104e7565b6001600160a01b038216610e565760405162461bcd60e51b815260206004820152602260248201527f45524332303a20617070726f766520746f20746865207a65726f206164647265604482015261737360f01b60648201526084016104e7565b6001600160a01b0383811660008181526001602090815260408083209487168084529482529182902085905590518481527f8c5be1e5ebec7d5bd14f71427d1e84f3dd0314c0f7b2291e5b200ac8c7c3b925910160405180910390a3505050565b6001600160a01b038316610f1b5760405162461bcd60e51b815260206004820152602560248201527f45524332303a207472616e736665722066726f6d20746865207a65726f206164604482015264647265737360d81b60648201526084016104e7565b6001600160a01b038216610f7d5760405162461bcd60e51b815260206004820152602360248201527f45524332303a207472616e7366657220746f20746865207a65726f206164647260448201526265737360e81b60648201526084016104e7565b6001600160a01b03831660009081526020819052604090205481811015610ff55760405162461bcd60e51b815260206004820152602660248201527f45524332303a207472616e7366657220616d6f756e7420657863656564732062604482015265616c616e636560d01b60648201526084016104e7565b6001600160a01b0380851660009081526020819052604080822085850390559185168152908120805484929061102c908490611ab5565b92505081905550826001600160a01b0316846001600160a01b03167fddf252ad1be2c89b69c2b068fc378daa952ba7f163c4a11628f55a4df523b3ef8460405161107891815260200190565b60405180910390a350505050565b6000306001600160a01b037f0000000000000000000000000000000000000000000000000000000000000000161480156110df57507f000000000000000000000000000000000000000000000000000000000000000046145b1561110957507f000000000000000000000000000000000000000000000000000000000000000090565b50604080517f00000000000000000000000000000000000000000000000000000000000000006020808301919091527f0000000000000000000000000000000000000000000000000000000000000000828401527f000000000000000000000000000000000000000000000000000000000000000060608301524660808301523060a0808401919091528351808403909101815260c0909201909252805191012090565b6111b78282611339565b5050565b60006111c78284611ab5565b9392505050565b600754816111db60025490565b6111e59190611ab5565b11156112335760405162461bcd60e51b815260206004820152601960248201527f45524332304361707065643a206361702065786365656465640000000000000060448201526064016104e7565b6111b78282611487565b600580546001600160a01b038381166001600160a01b0319831681179093556040519116919082907f8be0079c531659141344cd1fd0a4f28419497f9722a3daafe3b4186f6b6457e090600090a35050565b60006111c78284611b77565b6001600160a01b03811660009081526006602052604090208054600181018255905b50919050565b60006108d76112d0611086565b8360405161190160f01b6020820152602281018390526042810182905260009060620160405160208183030381529060405280519060200120905092915050565b600080600061132287878787611566565b9150915061132f81611653565b5095945050505050565b6001600160a01b0382166113995760405162461bcd60e51b815260206004820152602160248201527f45524332303a206275726e2066726f6d20746865207a65726f206164647265736044820152607360f81b60648201526084016104e7565b6001600160a01b0382166000908152602081905260409020548181101561140d5760405162461bcd60e51b815260206004820152602260248201527f45524332303a206275726e20616d6f756e7420657863656564732062616c616e604482015261636560f01b60648201526084016104e7565b6001600160a01b038316600090815260208190526040812083830390556002805484929061143c908490611b77565b90915550506040518281526000906001600160a01b038516907fddf252ad1be2c89b69c2b068fc378daa952ba7f163c4a11628f55a4df523b3ef9060200160405180910390a3505050565b6001600160a01b0382166114dd5760405162461bcd60e51b815260206004820152601f60248201527f45524332303a206d696e7420746f20746865207a65726f20616464726573730060448201526064016104e7565b80600260008282546114ef9190611ab5565b90915550506001600160a01b0382166000908152602081905260408120805483929061151c908490611ab5565b90915550506040518181526001600160a01b038316906000907fddf252ad1be2c89b69c2b068fc378daa952ba7f163c4a11628f55a4df523b3ef9060200160405180910390a35050565b6000807f7fffffffffffffffffffffffffffffff5d576e7357a4501ddfe92f46681b20a083111561159d575060009050600361164a565b8460ff16601b141580156115b557508460ff16601c14155b156115c6575060009050600461164a565b6040805160008082526020820180845289905260ff881692820192909252606081018690526080810185905260019060a0016020604051602081039080840390855afa15801561161a573d6000803e3d6000fd5b5050604051601f1901519150506001600160a01b0381166116435760006001925092505061164a565b9150600090505b94509492505050565b600081600481111561166757611667611b8e565b14156116705750565b600181600481111561168457611684611b8e565b14156116d25760405162461bcd60e51b815260206004820152601860248201527f45434453413a20696e76616c6964207369676e6174757265000000000000000060448201526064016104e7565b60028160048111156116e6576116e6611b8e565b14156117345760405162461bcd60e51b815260206004820152601f60248201527f45434453413a20696e76616c6964207369676e6174757265206c656e6774680060448201526064016104e7565b600381600481111561174857611748611b8e565b14156117a15760405162461bcd60e51b815260206004820152602260248201527f45434453413a20696e76616c6964207369676e6174757265202773272076616c604482015261756560f01b60648201526084016104e7565b60048160048111156117b5576117b5611b8e565b141561055d5760405162461bcd60e51b815260206004820152602260248201527f45434453413a20696e76616c6964207369676e6174757265202776272076616c604482015261756560f01b60648201526084016104e7565b600060208083528351808285015260005b8181101561183b5785810183015185820160400152820161181f565b8181111561184d576000604083870101525b50601f01601f1916929092016040019392505050565b6001600160a01b038116811461055d57600080fd5b6000806040838503121561188b57600080fd5b823561189681611863565b946020939093013593505050565b6000806000606084860312156118b957600080fd5b83356118c481611863565b925060208401356118d481611863565b929592945050506040919091013590565b6000602082840312156118f757600080fd5b5035919050565b60008060008060006080868803121561191657600080fd5b853561192181611863565b9450602086013561193181611863565b935060408601359250606086013567ffffffffffffffff8082111561195557600080fd5b818801915088601f83011261196957600080fd5b81358181111561197857600080fd5b89602082850101111561198a57600080fd5b9699959850939650602001949392505050565b6000602082840312156119af57600080fd5b81356111c781611863565b600080600080600080600060e0888a0312156119d557600080fd5b87356119e081611863565b965060208801356119f081611863565b95506040880135945060608801359350608088013560ff81168114611a1457600080fd5b9699959850939692959460a0840135945060c09093013592915050565b60008060408385031215611a4457600080fd5b8235611a4f81611863565b91506020830135611a5f81611863565b809150509250929050565b600181811c90821680611a7e57607f821691505b602082108114156112bd57634e487b7160e01b600052602260045260246000fd5b634e487b7160e01b600052601160045260246000fd5b60008219821115611ac857611ac8611a9f565b500190565b6020808252818101527f4f776e61626c653a2063616c6c6572206973206e6f7420746865206f776e6572604082015260600190565b6001600160a01b03878116825286166020820152604081018590526060810184905260a06080820181905281018290526000828460c0840137600060c0848401015260c0601f19601f8501168301019050979650505050505050565b600060208284031215611b7057600080fd5b5051919050565b600082821015611b8957611b89611a9f565b500390565b634e487b7160e01b600052602160045260246000fdfea2646970667358221220f12cf4ce15923a15dd3bc70e685d7d137eb0d1152c7d50b3344c3865ff0804df64736f6c63430008090033",
  "immutableReferences": {
    "3285": [
      {
        "length": 32,
        "start": 2952
      }
    ],
    "5604": [
      {
        "length": 32,
        "start": 4327
      }
    ],
    "5606": [
      {
        "length": 32,
        "start": 4285
      }
    ],
    "5608": [
      {
        "length": 32,
        "start": 4243
      }
    ],
    "5610": [
      {
        "length": 32,
        "start": 4410
      }
    ],
    "5612": [
      {
        "length": 32,
        "start": 4447
      }
    ],
    "5614": [
      {
        "length": 32,
        "start": 4368
      }
    ]
  },
  "source": "// SPDX-License-Identifier: GPL-3.0-or-later\n\npragma solidity ^0.8.9;\n\nimport \"@openzeppelin/contracts/token/ERC20/ERC20.sol\";\nimport \"@openzeppelin/contracts/token/ERC20/extensions/ERC20Burnable.sol\";\nimport \"@openzeppelin/contracts/access/Ownable.sol\";\nimport \"@openzeppelin/contracts/token/ERC20/extensions/draft-ERC20Permit.sol\";\nimport \"@openzeppelin/contracts/token/ERC20/extensions/ERC20FlashMint.sol\";\nimport \"@openzeppelin/contracts/utils/math/SafeMath.sol\";\n\ncontract ERC20Custom is\n    ERC20,\n    ERC20Burnable,\n    Ownable,\n    ERC20Permit,\n    ERC20FlashMint\n{\n    using SafeMath for uint256;\n    uint256 private _cap;\n\n    constructor(\n        string memory _name,\n        string memory _symbol,\n        uint256 _capSupply\n    ) ERC20(_name, _symbol) ERC20Permit(_symbol) {\n        require(_capSupply > 0, \"ERC20Capped: cap is 0\");\n        _cap = _capSupply;\n    }\n\n    /**\n     * @dev Returns the cap on the token's total supply.\n     */\n    function cap() public view virtual returns (uint256) {\n        return _cap;\n    }\n\n    /**\n     * @dev Set new cap supply\n     */\n    function setCap(uint256 _newCap) public onlyOwner {\n        require(\n            _newCap > totalSupply(),\n            \"ERC20Custom: New cap set to be lower than or equal to total supply!\"\n        );\n        _cap = _newCap;\n    }\n\n    /**\n     * @dev Increase the cap supply\n     */\n    function increaseCap(uint256 _increaseCap) public onlyOwner {\n        require(\n            _increaseCap > 0,\n            \"ERC20Custom: Increase Cap value has non-valid 0 value!\"\n        );\n        _cap = SafeMath.add(cap(), _increaseCap);\n    }\n\n    /**\n     * @dev Decrease the cap supply\n     */\n    function decreaseCap(uint256 _decreaseCap) public onlyOwner {\n        require(\n            (_decreaseCap > 0) &&\n                (_decreaseCap <= SafeMath.sub(cap(), totalSupply())),\n            \"ERC20Custom: Decrease Cap value has non-valid value!\"\n        );\n        _cap = SafeMath.sub(cap(), _decreaseCap);\n    }\n\n    // The following functions are overrides required by Solidity.\n    function _afterTokenTransfer(\n        address from,\n        address to,\n        uint256 amount\n    ) internal virtual override(ERC20) {\n        super._afterTokenTransfer(from, to, amount);\n    }\n\n    function _mint(address to, uint256 amount)\n        internal\n        virtual\n        override(ERC20)\n    {\n        require(\n            ERC20.totalSupply() + amount <= cap(),\n            \"ERC20Capped: cap exceeded\"\n        );\n        super._mint(to, amount);\n    }\n\n    function _burn(address account, uint256 amount)\n        internal\n        virtual\n        override(ERC20)\n    {\n        super._burn(account, amount);\n    }\n}\n",
  "sourcePath": "/home/yosephkurniasoenggoro/Documents/GitHub/miners-nations-smart-contracts/contracts/tokens/ERC20Custom.sol",
  "compiler": {
    "name": "solc",
    "version": "0.8.9+commit.e5eed63a.Emscripten.clang"
  },
  "schemaVersion": "3.4.3",
  "updatedAt": "2022-01-09T14:24:30.060Z",
  "devdoc": {
    "kind": "dev",
    "methods": {
      "DOMAIN_SEPARATOR()": {
        "details": "See {IERC20Permit-DOMAIN_SEPARATOR}."
      },
      "allowance(address,address)": {
        "details": "See {IERC20-allowance}."
      },
      "approve(address,uint256)": {
        "details": "See {IERC20-approve}. Requirements: - `spender` cannot be the zero address."
      },
      "balanceOf(address)": {
        "details": "See {IERC20-balanceOf}."
      },
      "burn(uint256)": {
        "details": "Destroys `amount` tokens from the caller. See {ERC20-_burn}."
      },
      "burnFrom(address,uint256)": {
        "details": "Destroys `amount` tokens from `account`, deducting from the caller's allowance. See {ERC20-_burn} and {ERC20-allowance}. Requirements: - the caller must have allowance for ``accounts``'s tokens of at least `amount`."
      },
      "cap()": {
        "details": "Returns the cap on the token's total supply."
      },
      "decimals()": {
        "details": "Returns the number of decimals used to get its user representation. For example, if `decimals` equals `2`, a balance of `505` tokens should be displayed to a user as `5.05` (`505 / 10 ** 2`). Tokens usually opt for a value of 18, imitating the relationship between Ether and Wei. This is the value {ERC20} uses, unless this function is overridden; NOTE: This information is only used for _display_ purposes: it in no way affects any of the arithmetic of the contract, including {IERC20-balanceOf} and {IERC20-transfer}."
      },
      "decreaseAllowance(address,uint256)": {
        "details": "Atomically decreases the allowance granted to `spender` by the caller. This is an alternative to {approve} that can be used as a mitigation for problems described in {IERC20-approve}. Emits an {Approval} event indicating the updated allowance. Requirements: - `spender` cannot be the zero address. - `spender` must have allowance for the caller of at least `subtractedValue`."
      },
      "decreaseCap(uint256)": {
        "details": "Decrease the cap supply"
      },
      "flashFee(address,uint256)": {
        "details": "Returns the fee applied when doing flash loans. By default this implementation has 0 fees. This function can be overloaded to make the flash loan mechanism deflationary.",
        "params": {
          "amount": "The amount of tokens to be loaned.",
          "token": "The token to be flash loaned."
        },
        "returns": {
          "_0": "The fees applied to the corresponding flash loan."
        }
      },
      "flashLoan(address,address,uint256,bytes)": {
        "details": "Performs a flash loan. New tokens are minted and sent to the `receiver`, who is required to implement the {IERC3156FlashBorrower} interface. By the end of the flash loan, the receiver is expected to own amount + fee tokens and have them approved back to the token contract itself so they can be burned.",
        "params": {
          "amount": "The amount of tokens to be loaned.",
          "data": "An arbitrary datafield that is passed to the receiver.",
          "receiver": "The receiver of the flash loan. Should implement the {IERC3156FlashBorrower.onFlashLoan} interface.",
          "token": "The token to be flash loaned. Only `address(this)` is supported."
        },
        "returns": {
          "_0": "`true` is the flash loan was successful."
        }
      },
      "increaseAllowance(address,uint256)": {
        "details": "Atomically increases the allowance granted to `spender` by the caller. This is an alternative to {approve} that can be used as a mitigation for problems described in {IERC20-approve}. Emits an {Approval} event indicating the updated allowance. Requirements: - `spender` cannot be the zero address."
      },
      "increaseCap(uint256)": {
        "details": "Increase the cap supply"
      },
      "maxFlashLoan(address)": {
        "details": "Returns the maximum amount of tokens available for loan.",
        "params": {
          "token": "The address of the token that is requested."
        },
        "returns": {
          "_0": "The amont of token that can be loaned."
        }
      },
      "name()": {
        "details": "Returns the name of the token."
      },
      "nonces(address)": {
        "details": "See {IERC20Permit-nonces}."
      },
      "owner()": {
        "details": "Returns the address of the current owner."
      },
      "permit(address,address,uint256,uint256,uint8,bytes32,bytes32)": {
        "details": "See {IERC20Permit-permit}."
      },
      "renounceOwnership()": {
        "details": "Leaves the contract without owner. It will not be possible to call `onlyOwner` functions anymore. Can only be called by the current owner. NOTE: Renouncing ownership will leave the contract without an owner, thereby removing any functionality that is only available to the owner."
      },
      "setCap(uint256)": {
        "details": "Set new cap supply"
      },
      "symbol()": {
        "details": "Returns the symbol of the token, usually a shorter version of the name."
      },
      "totalSupply()": {
        "details": "See {IERC20-totalSupply}."
      },
      "transfer(address,uint256)": {
        "details": "See {IERC20-transfer}. Requirements: - `recipient` cannot be the zero address. - the caller must have a balance of at least `amount`."
      },
      "transferFrom(address,address,uint256)": {
        "details": "See {IERC20-transferFrom}. Emits an {Approval} event indicating the updated allowance. This is not required by the EIP. See the note at the beginning of {ERC20}. Requirements: - `sender` and `recipient` cannot be the zero address. - `sender` must have a balance of at least `amount`. - the caller must have allowance for ``sender``'s tokens of at least `amount`."
      },
      "transferOwnership(address)": {
        "details": "Transfers ownership of the contract to a new account (`newOwner`). Can only be called by the current owner."
      }
    },
    "version": 1
  },
  "userdoc": {
    "kind": "user",
    "methods": {},
    "version": 1
  }
}