{
  "contractName": "ERC721Custom",
  "abi": [
    {
      "inputs": [
        {
          "internalType": "string",
          "name": "_name",
          "type": "string"
        },
        {
          "internalType": "string",
          "name": "_symbol",
          "type": "string"
        }
      ],
      "stateMutability": "nonpayable",
      "type": "constructor"
    },
    {
      "anonymous": false,
      "inputs": [
        {
          "indexed": true,
          "internalType": "address",
          "name": "owner",
          "type": "address"
        },
        {
          "indexed": true,
          "internalType": "address",
          "name": "approved",
          "type": "address"
        },
        {
          "indexed": true,
          "internalType": "uint256",
          "name": "tokenId",
          "type": "uint256"
        }
      ],
      "name": "Approval",
      "type": "event"
    },
    {
      "anonymous": false,
      "inputs": [
        {
          "indexed": true,
          "internalType": "address",
          "name": "owner",
          "type": "address"
        },
        {
          "indexed": true,
          "internalType": "address",
          "name": "operator",
          "type": "address"
        },
        {
          "indexed": false,
          "internalType": "bool",
          "name": "approved",
          "type": "bool"
        }
      ],
      "name": "ApprovalForAll",
      "type": "event"
    },
    {
      "anonymous": false,
      "inputs": [
        {
          "indexed": true,
          "internalType": "address",
          "name": "previousOwner",
          "type": "address"
        },
        {
          "indexed": true,
          "internalType": "address",
          "name": "newOwner",
          "type": "address"
        }
      ],
      "name": "OwnershipTransferred",
      "type": "event"
    },
    {
      "anonymous": false,
      "inputs": [
        {
          "indexed": false,
          "internalType": "address",
          "name": "account",
          "type": "address"
        }
      ],
      "name": "Paused",
      "type": "event"
    },
    {
      "anonymous": false,
      "inputs": [
        {
          "indexed": true,
          "internalType": "address",
          "name": "from",
          "type": "address"
        },
        {
          "indexed": true,
          "internalType": "address",
          "name": "to",
          "type": "address"
        },
        {
          "indexed": true,
          "internalType": "uint256",
          "name": "tokenId",
          "type": "uint256"
        }
      ],
      "name": "Transfer",
      "type": "event"
    },
    {
      "anonymous": false,
      "inputs": [
        {
          "indexed": false,
          "internalType": "address",
          "name": "account",
          "type": "address"
        }
      ],
      "name": "Unpaused",
      "type": "event"
    },
    {
      "inputs": [
        {
          "internalType": "address",
          "name": "to",
          "type": "address"
        },
        {
          "internalType": "uint256",
          "name": "tokenId",
          "type": "uint256"
        }
      ],
      "name": "approve",
      "outputs": [],
      "stateMutability": "nonpayable",
      "type": "function"
    },
    {
      "inputs": [
        {
          "internalType": "address",
          "name": "owner",
          "type": "address"
        }
      ],
      "name": "balanceOf",
      "outputs": [
        {
          "internalType": "uint256",
          "name": "",
          "type": "uint256"
        }
      ],
      "stateMutability": "view",
      "type": "function"
    },
    {
      "inputs": [
        {
          "internalType": "uint256",
          "name": "tokenId",
          "type": "uint256"
        }
      ],
      "name": "burn",
      "outputs": [],
      "stateMutability": "nonpayable",
      "type": "function"
    },
    {
      "inputs": [
        {
          "internalType": "uint256",
          "name": "tokenId",
          "type": "uint256"
        }
      ],
      "name": "getApproved",
      "outputs": [
        {
          "internalType": "address",
          "name": "",
          "type": "address"
        }
      ],
      "stateMutability": "view",
      "type": "function"
    },
    {
      "inputs": [
        {
          "internalType": "address",
          "name": "owner",
          "type": "address"
        },
        {
          "internalType": "address",
          "name": "operator",
          "type": "address"
        }
      ],
      "name": "isApprovedForAll",
      "outputs": [
        {
          "internalType": "bool",
          "name": "",
          "type": "bool"
        }
      ],
      "stateMutability": "view",
      "type": "function"
    },
    {
      "inputs": [],
      "name": "name",
      "outputs": [
        {
          "internalType": "string",
          "name": "",
          "type": "string"
        }
      ],
      "stateMutability": "view",
      "type": "function"
    },
    {
      "inputs": [],
      "name": "owner",
      "outputs": [
        {
          "internalType": "address",
          "name": "",
          "type": "address"
        }
      ],
      "stateMutability": "view",
      "type": "function"
    },
    {
      "inputs": [
        {
          "internalType": "uint256",
          "name": "tokenId",
          "type": "uint256"
        }
      ],
      "name": "ownerOf",
      "outputs": [
        {
          "internalType": "address",
          "name": "",
          "type": "address"
        }
      ],
      "stateMutability": "view",
      "type": "function"
    },
    {
      "inputs": [],
      "name": "paused",
      "outputs": [
        {
          "internalType": "bool",
          "name": "",
          "type": "bool"
        }
      ],
      "stateMutability": "view",
      "type": "function"
    },
    {
      "inputs": [],
      "name": "renounceOwnership",
      "outputs": [],
      "stateMutability": "nonpayable",
      "type": "function"
    },
    {
      "inputs": [
        {
          "internalType": "address",
          "name": "from",
          "type": "address"
        },
        {
          "internalType": "address",
          "name": "to",
          "type": "address"
        },
        {
          "internalType": "uint256",
          "name": "tokenId",
          "type": "uint256"
        }
      ],
      "name": "safeTransferFrom",
      "outputs": [],
      "stateMutability": "nonpayable",
      "type": "function"
    },
    {
      "inputs": [
        {
          "internalType": "address",
          "name": "from",
          "type": "address"
        },
        {
          "internalType": "address",
          "name": "to",
          "type": "address"
        },
        {
          "internalType": "uint256",
          "name": "tokenId",
          "type": "uint256"
        },
        {
          "internalType": "bytes",
          "name": "_data",
          "type": "bytes"
        }
      ],
      "name": "safeTransferFrom",
      "outputs": [],
      "stateMutability": "nonpayable",
      "type": "function"
    },
    {
      "inputs": [
        {
          "internalType": "address",
          "name": "operator",
          "type": "address"
        },
        {
          "internalType": "bool",
          "name": "approved",
          "type": "bool"
        }
      ],
      "name": "setApprovalForAll",
      "outputs": [],
      "stateMutability": "nonpayable",
      "type": "function"
    },
    {
      "inputs": [
        {
          "internalType": "bytes4",
          "name": "interfaceId",
          "type": "bytes4"
        }
      ],
      "name": "supportsInterface",
      "outputs": [
        {
          "internalType": "bool",
          "name": "",
          "type": "bool"
        }
      ],
      "stateMutability": "view",
      "type": "function"
    },
    {
      "inputs": [],
      "name": "symbol",
      "outputs": [
        {
          "internalType": "string",
          "name": "",
          "type": "string"
        }
      ],
      "stateMutability": "view",
      "type": "function"
    },
    {
      "inputs": [
        {
          "internalType": "address",
          "name": "from",
          "type": "address"
        },
        {
          "internalType": "address",
          "name": "to",
          "type": "address"
        },
        {
          "internalType": "uint256",
          "name": "tokenId",
          "type": "uint256"
        }
      ],
      "name": "transferFrom",
      "outputs": [],
      "stateMutability": "nonpayable",
      "type": "function"
    },
    {
      "inputs": [
        {
          "internalType": "address",
          "name": "newOwner",
          "type": "address"
        }
      ],
      "name": "transferOwnership",
      "outputs": [],
      "stateMutability": "nonpayable",
      "type": "function"
    },
    {
      "inputs": [],
      "name": "pause",
      "outputs": [],
      "stateMutability": "nonpayable",
      "type": "function"
    },
    {
      "inputs": [],
      "name": "unpause",
      "outputs": [],
      "stateMutability": "nonpayable",
      "type": "function"
    },
    {
      "inputs": [
        {
          "internalType": "address",
          "name": "to",
          "type": "address"
        },
        {
          "internalType": "string",
          "name": "uri",
          "type": "string"
        }
      ],
      "name": "safeMint",
      "outputs": [],
      "stateMutability": "nonpayable",
      "type": "function"
    },
    {
      "inputs": [
        {
          "internalType": "uint256",
          "name": "tokenId",
          "type": "uint256"
        }
      ],
      "name": "tokenURI",
      "outputs": [
        {
          "internalType": "string",
          "name": "",
          "type": "string"
        }
      ],
      "stateMutability": "view",
      "type": "function"
    }
  ],
  "bytecode": "0x60806040523480156200001157600080fd5b506040516200200a3803806200200a833981016040819052620000349162000250565b8151829082906200004d906000906020850190620000dd565b50805162000063906001906020840190620000dd565b50506007805460ff19169055506200007b3362000083565b5050620002f7565b600780546001600160a01b03838116610100818102610100600160a81b031985161790945560405193909204169182907f8be0079c531659141344cd1fd0a4f28419497f9722a3daafe3b4186f6b6457e090600090a35050565b828054620000eb90620002ba565b90600052602060002090601f0160209004810192826200010f57600085556200015a565b82601f106200012a57805160ff19168380011785556200015a565b828001600101855582156200015a579182015b828111156200015a5782518255916020019190600101906200013d565b50620001689291506200016c565b5090565b5b808211156200016857600081556001016200016d565b634e487b7160e01b600052604160045260246000fd5b600082601f830112620001ab57600080fd5b81516001600160401b0380821115620001c857620001c862000183565b604051601f8301601f19908116603f01168101908282118183101715620001f357620001f362000183565b816040528381526020925086838588010111156200021057600080fd5b600091505b8382101562000234578582018301518183018401529082019062000215565b83821115620002465760008385830101525b9695505050505050565b600080604083850312156200026457600080fd5b82516001600160401b03808211156200027c57600080fd5b6200028a8683870162000199565b93506020850151915080821115620002a157600080fd5b50620002b08582860162000199565b9150509250929050565b600181811c90821680620002cf57607f821691505b60208210811415620002f157634e487b7160e01b600052602260045260246000fd5b50919050565b611d0380620003076000396000f3fe608060405234801561001057600080fd5b50600436106101375760003560e01c806370a08231116100b8578063a22cb4651161007c578063a22cb46514610267578063b88d4fde1461027a578063c87b56dd1461028d578063d204c45e146102a0578063e985e9c5146102b3578063f2fde38b146102ef57600080fd5b806370a0823114610218578063715018a6146102395780638456cb59146102415780638da5cb5b1461024957806395d89b411461025f57600080fd5b80633f4ba83a116100ff5780633f4ba83a146101cc57806342842e0e146101d457806342966c68146101e75780635c975abb146101fa5780636352211e1461020557600080fd5b806301ffc9a71461013c57806306fdde0314610164578063081812fc14610179578063095ea7b3146101a457806323b872dd146101b9575b600080fd5b61014f61014a366004611766565b610302565b60405190151581526020015b60405180910390f35b61016c610354565b60405161015b91906117db565b61018c6101873660046117ee565b6103e6565b6040516001600160a01b03909116815260200161015b565b6101b76101b2366004611823565b610473565b005b6101b76101c736600461184d565b610589565b6101b76105bb565b6101b76101e236600461184d565b6105f5565b6101b76101f53660046117ee565b610610565b60075460ff1661014f565b61018c6102133660046117ee565b61068a565b61022b610226366004611889565b610701565b60405190815260200161015b565b6101b7610788565b6101b76107c2565b60075461010090046001600160a01b031661018c565b61016c6107fa565b6101b76102753660046118a4565b610809565b6101b761028836600461196c565b610818565b61016c61029b3660046117ee565b610850565b6101b76102ae3660046119e8565b61085b565b61014f6102c1366004611a4a565b6001600160a01b03918216600090815260056020908152604080832093909416825291909152205460ff1690565b6101b76102fd366004611889565b6108ba565b60006001600160e01b031982166380ac58cd60e01b148061033357506001600160e01b03198216635b5e139f60e01b145b8061034e57506301ffc9a760e01b6001600160e01b03198316145b92915050565b60606000805461036390611a7d565b80601f016020809104026020016040519081016040528092919081815260200182805461038f90611a7d565b80156103dc5780601f106103b1576101008083540402835291602001916103dc565b820191906000526020600020905b8154815290600101906020018083116103bf57829003601f168201915b5050505050905090565b60006103f182610958565b6104575760405162461bcd60e51b815260206004820152602c60248201527f4552433732313a20617070726f76656420717565727920666f72206e6f6e657860448201526b34b9ba32b73a103a37b5b2b760a11b60648201526084015b60405180910390fd5b506000908152600460205260409020546001600160a01b031690565b600061047e8261068a565b9050806001600160a01b0316836001600160a01b031614156104ec5760405162461bcd60e51b815260206004820152602160248201527f4552433732313a20617070726f76616c20746f2063757272656e74206f776e656044820152603960f91b606482015260840161044e565b336001600160a01b0382161480610508575061050881336102c1565b61057a5760405162461bcd60e51b815260206004820152603860248201527f4552433732313a20617070726f76652063616c6c6572206973206e6f74206f7760448201527f6e6572206e6f7220617070726f76656420666f7220616c6c0000000000000000606482015260840161044e565b6105848383610975565b505050565b610594335b826109e3565b6105b05760405162461bcd60e51b815260040161044e90611ab8565b610584838383610acd565b6007546001600160a01b036101009091041633146105eb5760405162461bcd60e51b815260040161044e90611b09565b6105f3610c78565b565b61058483838360405180602001604052806000815250610818565b6106193361058e565b61067e5760405162461bcd60e51b815260206004820152603060248201527f4552433732314275726e61626c653a2063616c6c6572206973206e6f74206f7760448201526f1b995c881b9bdc88185c1c1c9bdd995960821b606482015260840161044e565b61068781610d0b565b50565b6000818152600260205260408120546001600160a01b03168061034e5760405162461bcd60e51b815260206004820152602960248201527f4552433732313a206f776e657220717565727920666f72206e6f6e657869737460448201526832b73a103a37b5b2b760b91b606482015260840161044e565b60006001600160a01b03821661076c5760405162461bcd60e51b815260206004820152602a60248201527f4552433732313a2062616c616e636520717565727920666f7220746865207a65604482015269726f206164647265737360b01b606482015260840161044e565b506001600160a01b031660009081526003602052604090205490565b6007546001600160a01b036101009091041633146107b85760405162461bcd60e51b815260040161044e90611b09565b6105f36000610d14565b6007546001600160a01b036101009091041633146107f25760405162461bcd60e51b815260040161044e90611b09565b6105f3610d6e565b60606001805461036390611a7d565b610814338383610de9565b5050565b61082233836109e3565b61083e5760405162461bcd60e51b815260040161044e90611ab8565b61084a84848484610eb8565b50505050565b606061034e82610eeb565b6007546001600160a01b0361010090910416331461088b5760405162461bcd60e51b815260040161044e90611b09565b600061089660085490565b90506108a6600880546001019055565b6108b0838261105a565b6105848183611074565b6007546001600160a01b036101009091041633146108ea5760405162461bcd60e51b815260040161044e90611b09565b6001600160a01b03811661094f5760405162461bcd60e51b815260206004820152602660248201527f4f776e61626c653a206e6577206f776e657220697320746865207a65726f206160448201526564647265737360d01b606482015260840161044e565b61068781610d14565b6000908152600260205260409020546001600160a01b0316151590565b600081815260046020526040902080546001600160a01b0319166001600160a01b03841690811790915581906109aa8261068a565b6001600160a01b03167f8c5be1e5ebec7d5bd14f71427d1e84f3dd0314c0f7b2291e5b200ac8c7c3b92560405160405180910390a45050565b60006109ee82610958565b610a4f5760405162461bcd60e51b815260206004820152602c60248201527f4552433732313a206f70657261746f7220717565727920666f72206e6f6e657860448201526b34b9ba32b73a103a37b5b2b760a11b606482015260840161044e565b6000610a5a8361068a565b9050806001600160a01b0316846001600160a01b03161480610a955750836001600160a01b0316610a8a846103e6565b6001600160a01b0316145b80610ac557506001600160a01b0380821660009081526005602090815260408083209388168352929052205460ff165b949350505050565b826001600160a01b0316610ae08261068a565b6001600160a01b031614610b485760405162461bcd60e51b815260206004820152602960248201527f4552433732313a207472616e73666572206f6620746f6b656e2074686174206960448201526839903737ba1037bbb760b91b606482015260840161044e565b6001600160a01b038216610baa5760405162461bcd60e51b8152602060048201526024808201527f4552433732313a207472616e7366657220746f20746865207a65726f206164646044820152637265737360e01b606482015260840161044e565b610bb58383836110ff565b610bc0600082610975565b6001600160a01b0383166000908152600360205260408120805460019290610be9908490611b54565b90915550506001600160a01b0382166000908152600360205260408120805460019290610c17908490611b6b565b909155505060008181526002602052604080822080546001600160a01b0319166001600160a01b0386811691821790925591518493918716917fddf252ad1be2c89b69c2b068fc378daa952ba7f163c4a11628f55a4df523b3ef91a4505050565b60075460ff16610cc15760405162461bcd60e51b815260206004820152601460248201527314185d5cd8589b194e881b9bdd081c185d5cd95960621b604482015260640161044e565b6007805460ff191690557f5db9ee0a495bf2e6ff9c91a7834c1ba4fdd244a5e8aa4e537bd38aeae4b073aa335b6040516001600160a01b03909116815260200160405180910390a1565b61068781611145565b600780546001600160a01b03838116610100818102610100600160a81b031985161790945560405193909204169182907f8be0079c531659141344cd1fd0a4f28419497f9722a3daafe3b4186f6b6457e090600090a35050565b60075460ff1615610db45760405162461bcd60e51b815260206004820152601060248201526f14185d5cd8589b194e881c185d5cd95960821b604482015260640161044e565b6007805460ff191660011790557f62e78cea01bee320cd4e420270b5ea74000d11b0c9f74754ebdbfc544b05a258610cee3390565b816001600160a01b0316836001600160a01b03161415610e4b5760405162461bcd60e51b815260206004820152601960248201527f4552433732313a20617070726f766520746f2063616c6c657200000000000000604482015260640161044e565b6001600160a01b03838116600081815260056020908152604080832094871680845294825291829020805460ff191686151590811790915591519182527f17307eab39ab6107e8899845ad3d59bd9653f200f220920489ca2b5937696c31910160405180910390a3505050565b610ec3848484610acd565b610ecf84848484611185565b61084a5760405162461bcd60e51b815260040161044e90611b83565b6060610ef682610958565b610f5c5760405162461bcd60e51b815260206004820152603160248201527f45524337323155524953746f726167653a2055524920717565727920666f72206044820152703737b732bc34b9ba32b73a103a37b5b2b760791b606482015260840161044e565b60008281526006602052604081208054610f7590611a7d565b80601f0160208091040260200160405190810160405280929190818152602001828054610fa190611a7d565b8015610fee5780601f10610fc357610100808354040283529160200191610fee565b820191906000526020600020905b815481529060010190602001808311610fd157829003601f168201915b50505050509050600061100c60408051602081019091526000815290565b905080516000141561101f575092915050565b815115611051578082604051602001611039929190611bd5565b60405160208183030381529060405292505050919050565b610ac584611292565b61081482826040518060200160405280600081525061136a565b61107d82610958565b6110e05760405162461bcd60e51b815260206004820152602e60248201527f45524337323155524953746f726167653a2055524920736574206f66206e6f6e60448201526d32bc34b9ba32b73a103a37b5b2b760911b606482015260840161044e565b6000828152600660209081526040909120825161058492840190611681565b60075460ff16156105845760405162461bcd60e51b815260206004820152601060248201526f14185d5cd8589b194e881c185d5cd95960821b604482015260640161044e565b61114e8161139d565b6000818152600660205260409020805461116790611a7d565b15905061068757600081815260066020526040812061068791611705565b60006001600160a01b0384163b1561128757604051630a85bd0160e11b81526001600160a01b0385169063150b7a02906111c9903390899088908890600401611c04565b602060405180830381600087803b1580156111e357600080fd5b505af1925050508015611213575060408051601f3d908101601f1916820190925261121091810190611c41565b60015b61126d573d808015611241576040519150601f19603f3d011682016040523d82523d6000602084013e611246565b606091505b5080516112655760405162461bcd60e51b815260040161044e90611b83565b805181602001fd5b6001600160e01b031916630a85bd0160e11b149050610ac5565b506001949350505050565b606061129d82610958565b6113015760405162461bcd60e51b815260206004820152602f60248201527f4552433732314d657461646174613a2055524920717565727920666f72206e6f60448201526e3732bc34b9ba32b73a103a37b5b2b760891b606482015260840161044e565b600061131860408051602081019091526000815290565b905060008151116113385760405180602001604052806000815250611363565b8061134284611444565b604051602001611353929190611bd5565b6040516020818303038152906040525b9392505050565b6113748383611542565b6113816000848484611185565b6105845760405162461bcd60e51b815260040161044e90611b83565b60006113a88261068a565b90506113b6816000846110ff565b6113c1600083610975565b6001600160a01b03811660009081526003602052604081208054600192906113ea908490611b54565b909155505060008281526002602052604080822080546001600160a01b0319169055518391906001600160a01b038416907fddf252ad1be2c89b69c2b068fc378daa952ba7f163c4a11628f55a4df523b3ef908390a45050565b6060816114685750506040805180820190915260018152600360fc1b602082015290565b8160005b8115611492578061147c81611c5e565b915061148b9050600a83611c8f565b915061146c565b60008167ffffffffffffffff8111156114ad576114ad6118e0565b6040519080825280601f01601f1916602001820160405280156114d7576020820181803683370190505b5090505b8415610ac5576114ec600183611b54565b91506114f9600a86611ca3565b611504906030611b6b565b60f81b81838151811061151957611519611cb7565b60200101906001600160f81b031916908160001a90535061153b600a86611c8f565b94506114db565b6001600160a01b0382166115985760405162461bcd60e51b815260206004820181905260248201527f4552433732313a206d696e7420746f20746865207a65726f2061646472657373604482015260640161044e565b6115a181610958565b156115ee5760405162461bcd60e51b815260206004820152601c60248201527f4552433732313a20746f6b656e20616c7265616479206d696e74656400000000604482015260640161044e565b6115fa600083836110ff565b6001600160a01b0382166000908152600360205260408120805460019290611623908490611b6b565b909155505060008181526002602052604080822080546001600160a01b0319166001600160a01b03861690811790915590518392907fddf252ad1be2c89b69c2b068fc378daa952ba7f163c4a11628f55a4df523b3ef908290a45050565b82805461168d90611a7d565b90600052602060002090601f0160209004810192826116af57600085556116f5565b82601f106116c857805160ff19168380011785556116f5565b828001600101855582156116f5579182015b828111156116f55782518255916020019190600101906116da565b5061170192915061173b565b5090565b50805461171190611a7d565b6000825580601f10611721575050565b601f01602090049060005260206000209081019061068791905b5b80821115611701576000815560010161173c565b6001600160e01b03198116811461068757600080fd5b60006020828403121561177857600080fd5b813561136381611750565b60005b8381101561179e578181015183820152602001611786565b8381111561084a5750506000910152565b600081518084526117c7816020860160208601611783565b601f01601f19169290920160200192915050565b60208152600061136360208301846117af565b60006020828403121561180057600080fd5b5035919050565b80356001600160a01b038116811461181e57600080fd5b919050565b6000806040838503121561183657600080fd5b61183f83611807565b946020939093013593505050565b60008060006060848603121561186257600080fd5b61186b84611807565b925061187960208501611807565b9150604084013590509250925092565b60006020828403121561189b57600080fd5b61136382611807565b600080604083850312156118b757600080fd5b6118c083611807565b9150602083013580151581146118d557600080fd5b809150509250929050565b634e487b7160e01b600052604160045260246000fd5b600067ffffffffffffffff80841115611911576119116118e0565b604051601f8501601f19908116603f01168101908282118183101715611939576119396118e0565b8160405280935085815286868601111561195257600080fd5b858560208301376000602087830101525050509392505050565b6000806000806080858703121561198257600080fd5b61198b85611807565b935061199960208601611807565b925060408501359150606085013567ffffffffffffffff8111156119bc57600080fd5b8501601f810187136119cd57600080fd5b6119dc878235602084016118f6565b91505092959194509250565b600080604083850312156119fb57600080fd5b611a0483611807565b9150602083013567ffffffffffffffff811115611a2057600080fd5b8301601f81018513611a3157600080fd5b611a40858235602084016118f6565b9150509250929050565b60008060408385031215611a5d57600080fd5b611a6683611807565b9150611a7460208401611807565b90509250929050565b600181811c90821680611a9157607f821691505b60208210811415611ab257634e487b7160e01b600052602260045260246000fd5b50919050565b60208082526031908201527f4552433732313a207472616e736665722063616c6c6572206973206e6f74206f6040820152701ddb995c881b9bdc88185c1c1c9bdd9959607a1b606082015260800190565b6020808252818101527f4f776e61626c653a2063616c6c6572206973206e6f7420746865206f776e6572604082015260600190565b634e487b7160e01b600052601160045260246000fd5b600082821015611b6657611b66611b3e565b500390565b60008219821115611b7e57611b7e611b3e565b500190565b60208082526032908201527f4552433732313a207472616e7366657220746f206e6f6e20455243373231526560408201527131b2b4bb32b91034b6b83632b6b2b73a32b960711b606082015260800190565b60008351611be7818460208801611783565b835190830190611bfb818360208801611783565b01949350505050565b6001600160a01b0385811682528416602082015260408101839052608060608201819052600090611c37908301846117af565b9695505050505050565b600060208284031215611c5357600080fd5b815161136381611750565b6000600019821415611c7257611c72611b3e565b5060010190565b634e487b7160e01b600052601260045260246000fd5b600082611c9e57611c9e611c79565b500490565b600082611cb257611cb2611c79565b500690565b634e487b7160e01b600052603260045260246000fdfea2646970667358221220fa40824985006f1bd7aae4414513a56d00e509f60dae6b8d975f51be7983cbfd64736f6c63430008090033",
  "immutableReferences": {},
  "source": "// SPDX-License-Identifier: MIT\npragma solidity ^0.8.9;\n\nimport \"@openzeppelin/contracts/token/ERC721/ERC721.sol\";\nimport \"@openzeppelin/contracts/token/ERC721/extensions/ERC721URIStorage.sol\";\nimport \"@openzeppelin/contracts/security/Pausable.sol\";\nimport \"@openzeppelin/contracts/access/Ownable.sol\";\nimport \"@openzeppelin/contracts/token/ERC721/extensions/ERC721Burnable.sol\";\nimport \"@openzeppelin/contracts/utils/Counters.sol\";\n\ncontract ERC721Custom is\n    ERC721,\n    ERC721URIStorage,\n    Pausable,\n    Ownable,\n    ERC721Burnable\n{\n    using Counters for Counters.Counter;\n\n    Counters.Counter private _tokenIdCounter;\n\n    constructor(string memory _name, string memory _symbol)\n        ERC721(_name, _symbol)\n    {}\n\n    function pause() public onlyOwner {\n        _pause();\n    }\n\n    function unpause() public onlyOwner {\n        _unpause();\n    }\n\n    function safeMint(address to, string memory uri) public onlyOwner {\n        uint256 tokenId = _tokenIdCounter.current();\n        _tokenIdCounter.increment();\n        _safeMint(to, tokenId);\n        _setTokenURI(tokenId, uri);\n    }\n\n    function _beforeTokenTransfer(\n        address from,\n        address to,\n        uint256 tokenId\n    ) internal override whenNotPaused {\n        super._beforeTokenTransfer(from, to, tokenId);\n    }\n\n    // The following functions are overrides required by Solidity.\n\n    function _burn(uint256 tokenId)\n        internal\n        override(ERC721, ERC721URIStorage)\n    {\n        super._burn(tokenId);\n    }\n\n    function tokenURI(uint256 tokenId)\n        public\n        view\n        override(ERC721, ERC721URIStorage)\n        returns (string memory)\n    {\n        return super.tokenURI(tokenId);\n    }\n}\n",
  "sourcePath": "/home/yosephkurniasoenggoro/Documents/GitHub/miners-nations-smart-contracts/contracts/tokens/ERC721Custom.sol",
  "compiler": {
    "name": "solc",
    "version": "0.8.9+commit.e5eed63a.Emscripten.clang"
  },
  "schemaVersion": "3.4.3",
  "updatedAt": "2021-12-26T15:28:25.662Z",
  "devdoc": {
    "kind": "dev",
    "methods": {
      "approve(address,uint256)": {
        "details": "See {IERC721-approve}."
      },
      "balanceOf(address)": {
        "details": "See {IERC721-balanceOf}."
      },
      "burn(uint256)": {
        "details": "Burns `tokenId`. See {ERC721-_burn}. Requirements: - The caller must own `tokenId` or be an approved operator."
      },
      "getApproved(uint256)": {
        "details": "See {IERC721-getApproved}."
      },
      "isApprovedForAll(address,address)": {
        "details": "See {IERC721-isApprovedForAll}."
      },
      "name()": {
        "details": "See {IERC721Metadata-name}."
      },
      "owner()": {
        "details": "Returns the address of the current owner."
      },
      "ownerOf(uint256)": {
        "details": "See {IERC721-ownerOf}."
      },
      "paused()": {
        "details": "Returns true if the contract is paused, and false otherwise."
      },
      "renounceOwnership()": {
        "details": "Leaves the contract without owner. It will not be possible to call `onlyOwner` functions anymore. Can only be called by the current owner. NOTE: Renouncing ownership will leave the contract without an owner, thereby removing any functionality that is only available to the owner."
      },
      "safeTransferFrom(address,address,uint256)": {
        "details": "See {IERC721-safeTransferFrom}."
      },
      "safeTransferFrom(address,address,uint256,bytes)": {
        "details": "See {IERC721-safeTransferFrom}."
      },
      "setApprovalForAll(address,bool)": {
        "details": "See {IERC721-setApprovalForAll}."
      },
      "supportsInterface(bytes4)": {
        "details": "See {IERC165-supportsInterface}."
      },
      "symbol()": {
        "details": "See {IERC721Metadata-symbol}."
      },
      "transferFrom(address,address,uint256)": {
        "details": "See {IERC721-transferFrom}."
      },
      "transferOwnership(address)": {
        "details": "Transfers ownership of the contract to a new account (`newOwner`). Can only be called by the current owner."
      }
    },
    "version": 1
  },
  "userdoc": {
    "kind": "user",
    "methods": {},
    "version": 1
  }
}