{
  "contractName": "MINE",
  "abi": [
    {
      "inputs": [],
      "stateMutability": "nonpayable",
      "type": "constructor"
    },
    {
      "anonymous": false,
      "inputs": [
        {
          "indexed": true,
          "internalType": "address",
          "name": "owner",
          "type": "address"
        },
        {
          "indexed": true,
          "internalType": "address",
          "name": "spender",
          "type": "address"
        },
        {
          "indexed": false,
          "internalType": "uint256",
          "name": "value",
          "type": "uint256"
        }
      ],
      "name": "Approval",
      "type": "event"
    },
    {
      "anonymous": false,
      "inputs": [
        {
          "indexed": true,
          "internalType": "address",
          "name": "previousOwner",
          "type": "address"
        },
        {
          "indexed": true,
          "internalType": "address",
          "name": "newOwner",
          "type": "address"
        }
      ],
      "name": "OwnershipTransferred",
      "type": "event"
    },
    {
      "anonymous": false,
      "inputs": [
        {
          "indexed": true,
          "internalType": "address",
          "name": "from",
          "type": "address"
        },
        {
          "indexed": true,
          "internalType": "address",
          "name": "to",
          "type": "address"
        },
        {
          "indexed": false,
          "internalType": "uint256",
          "name": "value",
          "type": "uint256"
        }
      ],
      "name": "Transfer",
      "type": "event"
    },
    {
      "inputs": [],
      "name": "DOMAIN_SEPARATOR",
      "outputs": [
        {
          "internalType": "bytes32",
          "name": "",
          "type": "bytes32"
        }
      ],
      "stateMutability": "view",
      "type": "function"
    },
    {
      "inputs": [
        {
          "internalType": "address",
          "name": "owner",
          "type": "address"
        },
        {
          "internalType": "address",
          "name": "spender",
          "type": "address"
        }
      ],
      "name": "allowance",
      "outputs": [
        {
          "internalType": "uint256",
          "name": "",
          "type": "uint256"
        }
      ],
      "stateMutability": "view",
      "type": "function"
    },
    {
      "inputs": [
        {
          "internalType": "address",
          "name": "spender",
          "type": "address"
        },
        {
          "internalType": "uint256",
          "name": "amount",
          "type": "uint256"
        }
      ],
      "name": "approve",
      "outputs": [
        {
          "internalType": "bool",
          "name": "",
          "type": "bool"
        }
      ],
      "stateMutability": "nonpayable",
      "type": "function"
    },
    {
      "inputs": [
        {
          "internalType": "address",
          "name": "account",
          "type": "address"
        }
      ],
      "name": "balanceOf",
      "outputs": [
        {
          "internalType": "uint256",
          "name": "",
          "type": "uint256"
        }
      ],
      "stateMutability": "view",
      "type": "function"
    },
    {
      "inputs": [
        {
          "internalType": "uint256",
          "name": "amount",
          "type": "uint256"
        }
      ],
      "name": "burn",
      "outputs": [],
      "stateMutability": "nonpayable",
      "type": "function"
    },
    {
      "inputs": [
        {
          "internalType": "address",
          "name": "account",
          "type": "address"
        },
        {
          "internalType": "uint256",
          "name": "amount",
          "type": "uint256"
        }
      ],
      "name": "burnFrom",
      "outputs": [],
      "stateMutability": "nonpayable",
      "type": "function"
    },
    {
      "inputs": [],
      "name": "decimals",
      "outputs": [
        {
          "internalType": "uint8",
          "name": "",
          "type": "uint8"
        }
      ],
      "stateMutability": "view",
      "type": "function"
    },
    {
      "inputs": [
        {
          "internalType": "address",
          "name": "spender",
          "type": "address"
        },
        {
          "internalType": "uint256",
          "name": "subtractedValue",
          "type": "uint256"
        }
      ],
      "name": "decreaseAllowance",
      "outputs": [
        {
          "internalType": "bool",
          "name": "",
          "type": "bool"
        }
      ],
      "stateMutability": "nonpayable",
      "type": "function"
    },
    {
      "inputs": [
        {
          "internalType": "address",
          "name": "token",
          "type": "address"
        },
        {
          "internalType": "uint256",
          "name": "amount",
          "type": "uint256"
        }
      ],
      "name": "flashFee",
      "outputs": [
        {
          "internalType": "uint256",
          "name": "",
          "type": "uint256"
        }
      ],
      "stateMutability": "view",
      "type": "function"
    },
    {
      "inputs": [
        {
          "internalType": "contract IERC3156FlashBorrower",
          "name": "receiver",
          "type": "address"
        },
        {
          "internalType": "address",
          "name": "token",
          "type": "address"
        },
        {
          "internalType": "uint256",
          "name": "amount",
          "type": "uint256"
        },
        {
          "internalType": "bytes",
          "name": "data",
          "type": "bytes"
        }
      ],
      "name": "flashLoan",
      "outputs": [
        {
          "internalType": "bool",
          "name": "",
          "type": "bool"
        }
      ],
      "stateMutability": "nonpayable",
      "type": "function"
    },
    {
      "inputs": [
        {
          "internalType": "address",
          "name": "spender",
          "type": "address"
        },
        {
          "internalType": "uint256",
          "name": "addedValue",
          "type": "uint256"
        }
      ],
      "name": "increaseAllowance",
      "outputs": [
        {
          "internalType": "bool",
          "name": "",
          "type": "bool"
        }
      ],
      "stateMutability": "nonpayable",
      "type": "function"
    },
    {
      "inputs": [
        {
          "internalType": "address",
          "name": "token",
          "type": "address"
        }
      ],
      "name": "maxFlashLoan",
      "outputs": [
        {
          "internalType": "uint256",
          "name": "",
          "type": "uint256"
        }
      ],
      "stateMutability": "view",
      "type": "function"
    },
    {
      "inputs": [],
      "name": "name",
      "outputs": [
        {
          "internalType": "string",
          "name": "",
          "type": "string"
        }
      ],
      "stateMutability": "view",
      "type": "function"
    },
    {
      "inputs": [
        {
          "internalType": "address",
          "name": "owner",
          "type": "address"
        }
      ],
      "name": "nonces",
      "outputs": [
        {
          "internalType": "uint256",
          "name": "",
          "type": "uint256"
        }
      ],
      "stateMutability": "view",
      "type": "function"
    },
    {
      "inputs": [],
      "name": "owner",
      "outputs": [
        {
          "internalType": "address",
          "name": "",
          "type": "address"
        }
      ],
      "stateMutability": "view",
      "type": "function"
    },
    {
      "inputs": [
        {
          "internalType": "address",
          "name": "owner",
          "type": "address"
        },
        {
          "internalType": "address",
          "name": "spender",
          "type": "address"
        },
        {
          "internalType": "uint256",
          "name": "value",
          "type": "uint256"
        },
        {
          "internalType": "uint256",
          "name": "deadline",
          "type": "uint256"
        },
        {
          "internalType": "uint8",
          "name": "v",
          "type": "uint8"
        },
        {
          "internalType": "bytes32",
          "name": "r",
          "type": "bytes32"
        },
        {
          "internalType": "bytes32",
          "name": "s",
          "type": "bytes32"
        }
      ],
      "name": "permit",
      "outputs": [],
      "stateMutability": "nonpayable",
      "type": "function"
    },
    {
      "inputs": [],
      "name": "renounceOwnership",
      "outputs": [],
      "stateMutability": "nonpayable",
      "type": "function"
    },
    {
      "inputs": [],
      "name": "symbol",
      "outputs": [
        {
          "internalType": "string",
          "name": "",
          "type": "string"
        }
      ],
      "stateMutability": "view",
      "type": "function"
    },
    {
      "inputs": [],
      "name": "totalSupply",
      "outputs": [
        {
          "internalType": "uint256",
          "name": "",
          "type": "uint256"
        }
      ],
      "stateMutability": "view",
      "type": "function"
    },
    {
      "inputs": [
        {
          "internalType": "address",
          "name": "recipient",
          "type": "address"
        },
        {
          "internalType": "uint256",
          "name": "amount",
          "type": "uint256"
        }
      ],
      "name": "transfer",
      "outputs": [
        {
          "internalType": "bool",
          "name": "",
          "type": "bool"
        }
      ],
      "stateMutability": "nonpayable",
      "type": "function"
    },
    {
      "inputs": [
        {
          "internalType": "address",
          "name": "sender",
          "type": "address"
        },
        {
          "internalType": "address",
          "name": "recipient",
          "type": "address"
        },
        {
          "internalType": "uint256",
          "name": "amount",
          "type": "uint256"
        }
      ],
      "name": "transferFrom",
      "outputs": [
        {
          "internalType": "bool",
          "name": "",
          "type": "bool"
        }
      ],
      "stateMutability": "nonpayable",
      "type": "function"
    },
    {
      "inputs": [
        {
          "internalType": "address",
          "name": "newOwner",
          "type": "address"
        }
      ],
      "name": "transferOwnership",
      "outputs": [],
      "stateMutability": "nonpayable",
      "type": "function"
    },
    {
      "inputs": [],
      "name": "maxOwnership",
      "outputs": [
        {
          "internalType": "uint256",
          "name": "",
          "type": "uint256"
        }
      ],
      "stateMutability": "view",
      "type": "function"
    },
    {
      "inputs": [
        {
          "internalType": "uint256",
          "name": "_newMaxOwnershipPercentage",
          "type": "uint256"
        }
      ],
      "name": "setMaxOwnership",
      "outputs": [],
      "stateMutability": "nonpayable",
      "type": "function"
    },
    {
      "inputs": [
        {
          "internalType": "address",
          "name": "to",
          "type": "address"
        },
        {
          "internalType": "uint256",
          "name": "amount",
          "type": "uint256"
        }
      ],
      "name": "mint",
      "outputs": [],
      "stateMutability": "nonpayable",
      "type": "function"
    }
  ],
  "bytecode": "0x6101606040527f6e71edae12b1b97f4d1f60370fef10105fa2faae0126114a169c64845d6126c9610140523480156200003757600080fd5b506040518060400160405280600a81526020016926a4a722902a37b5b2b760b11b815250604051806040016040528060048152602001634d494e4560e01b8152508080604051806040016040528060018152602001603160f81b81525084848160039080519060200190620000ae929190620001d2565b508051620000c4906004906020840190620001d2565b505050620000e1620000db6200017c60201b60201c565b62000180565b815160208084019190912082518383012060e08290526101008190524660a0818152604080517f8b73c3c69bb8fe3d512ecc4cf759cc79239f7b179b0ffacaa9a75d522b39400f81880181905281830187905260608201869052608082019490945230818401528151808203909301835260c00190528051940193909320919290916080523060c0526101205250620002b595505050505050565b3390565b600580546001600160a01b038381166001600160a01b0319831681179093556040519116919082907f8be0079c531659141344cd1fd0a4f28419497f9722a3daafe3b4186f6b6457e090600090a35050565b828054620001e09062000278565b90600052602060002090601f0160209004810192826200020457600085556200024f565b82601f106200021f57805160ff19168380011785556200024f565b828001600101855582156200024f579182015b828111156200024f57825182559160200191906001019062000232565b506200025d92915062000261565b5090565b5b808211156200025d576000815560010162000262565b600181811c908216806200028d57607f821691505b60208210811415620002af57634e487b7160e01b600052602260045260246000fd5b50919050565b60805160a05160c05160e051610100516101205161014051611b42620003106000396000610a0601526000610f9901526000610fe801526000610fc301526000610f1c01526000610f4601526000610f700152611b426000f3fe608060405234801561001057600080fd5b50600436106101735760003560e01c8063613255ab116100de57806395d89b4111610097578063d505accf11610071578063d505accf14610311578063d9d98ce414610324578063dd62ed3e14610337578063f2fde38b1461037057600080fd5b806395d89b41146102e3578063a457c2d7146102eb578063a9059cbb146102fe57600080fd5b8063613255ab1461025e57806370a0823114610271578063715018a61461029a57806379cc6790146102a25780637ecebe00146102b55780638da5cb5b146102c857600080fd5b80633644e515116101305780633644e51514610202578063395093511461020a578063395a221e1461021d57806340c10f191461022557806342966c68146102385780635cffe9de1461024b57600080fd5b806306fdde0314610178578063095ea7b31461019657806318160ddd146101b957806323b872dd146101cb57806324bf3c2b146101de578063313ce567146101f3575b600080fd5b610180610383565b60405161018d91906116ba565b60405180910390f35b6101a96101a4366004611724565b610415565b604051901515815260200161018d565b6002545b60405190815260200161018d565b6101a96101d9366004611750565b61042b565b6101f16101ec366004611791565b6104da565b005b6040516012815260200161018d565b6101bd610509565b6101a9610218366004611724565b610518565b6007546101bd565b6101f1610233366004611724565b610554565b6101f1610246366004611791565b6105fc565b6101a96102593660046117aa565b610609565b6101bd61026c366004611849565b6107f5565b6101bd61027f366004611849565b6001600160a01b031660009081526020819052604090205490565b6101f1610823565b6101f16102b0366004611724565b610859565b6101bd6102c3366004611849565b6108df565b6005546040516001600160a01b03909116815260200161018d565b6101806108fd565b6101a96102f9366004611724565b61090c565b6101a961030c366004611724565b6109a5565b6101f161031f366004611866565b6109b2565b6101bd610332366004611724565b610b16565b6101bd6103453660046118dd565b6001600160a01b03918216600090815260016020908152604080832093909416825291909152205490565b6101f161037e366004611849565b610b79565b60606003805461039290611916565b80601f01602080910402602001604051908101604052809291908181526020018280546103be90611916565b801561040b5780601f106103e05761010080835404028352916020019161040b565b820191906000526020600020905b8154815290600101906020018083116103ee57829003601f168201915b5050505050905090565b6000610422338484610c11565b50600192915050565b6000610438848484610d35565b6001600160a01b0384166000908152600160209081526040808320338452909152902054828110156104c25760405162461bcd60e51b815260206004820152602860248201527f45524332303a207472616e7366657220616d6f756e74206578636565647320616044820152676c6c6f77616e636560c01b60648201526084015b60405180910390fd5b6104cf8533858403610c11565b506001949350505050565b6005546001600160a01b031633146105045760405162461bcd60e51b81526004016104b99061194b565b600755565b6000610513610f0f565b905090565b3360008181526001602090815260408083206001600160a01b0387168452909152812054909161042291859061054f908690611996565b610c11565b6005546001600160a01b0316331461057e5760405162461bcd60e51b81526004016104b99061194b565b818160006105a1836001600160a01b031660009081526020819052604090205490565b90506105c36105ba6105b260025490565b600754611036565b620186a0611049565b6105cd8383611055565b10156105eb5760405162461bcd60e51b81526004016104b9906119ae565b6105f58585611061565b5050505050565b610606338261106f565b50565b6000806106168686610b16565b90506106228786611061565b6040516323e30c8b60e01b81527f439148f0bbc682ca079e46d6e2c2f0c1e3b820f1a291b069d8882abf8cf18dd9906001600160a01b038916906323e30c8b9061067a9033908b908b9088908c908c90600401611a29565b602060405180830381600087803b15801561069457600080fd5b505af11580156106a8573d6000803e3d6000fd5b505050506040513d601f19601f820116820180604052508101906106cc9190611a85565b146107255760405162461bcd60e51b8152602060048201526024808201527f4552433230466c6173684d696e743a20696e76616c69642072657475726e2076604482015263616c756560e01b60648201526084016104b9565b6001600160a01b03871660009081526001602090815260408083203084529091529020546107538287611996565b8110156107ba5760405162461bcd60e51b815260206004820152602f60248201527f4552433230466c6173684d696e743a20616c6c6f77616e636520646f6573206e60448201526e1bdd08185b1b1bddc81c99599d5b99608a1b60648201526084016104b9565b6107d48830846107ca8a86611a9e565b61054f9190611a9e565b6107e7886107e28489611996565b61106f565b506001979650505050505050565b60006001600160a01b038216301461080e57600061081d565b60025461081d90600019611a9e565b92915050565b6005546001600160a01b0316331461084d5760405162461bcd60e51b81526004016104b99061194b565b6108576000611079565b565b60006108658333610345565b9050818110156108c35760405162461bcd60e51b8152602060048201526024808201527f45524332303a206275726e20616d6f756e74206578636565647320616c6c6f77604482015263616e636560e01b60648201526084016104b9565b6108d08333848403610c11565b6108da838361106f565b505050565b6001600160a01b03811660009081526006602052604081205461081d565b60606004805461039290611916565b3360009081526001602090815260408083206001600160a01b03861684529091528120548281101561098e5760405162461bcd60e51b815260206004820152602560248201527f45524332303a2064656372656173656420616c6c6f77616e63652062656c6f77604482015264207a65726f60d81b60648201526084016104b9565b61099b3385858403610c11565b5060019392505050565b6000610422338484610d35565b83421115610a025760405162461bcd60e51b815260206004820152601d60248201527f45524332305065726d69743a206578706972656420646561646c696e6500000060448201526064016104b9565b60007f0000000000000000000000000000000000000000000000000000000000000000888888610a318c6110cb565b6040805160208101969096526001600160a01b0394851690860152929091166060840152608083015260a082015260c0810186905260e0016040516020818303038152906040528051906020012090506000610a8c826110f3565b90506000610a9c82878787611141565b9050896001600160a01b0316816001600160a01b031614610aff5760405162461bcd60e51b815260206004820152601e60248201527f45524332305065726d69743a20696e76616c6964207369676e6174757265000060448201526064016104b9565b610b0a8a8a8a610c11565b50505050505050505050565b60006001600160a01b0383163014610b705760405162461bcd60e51b815260206004820152601b60248201527f4552433230466c6173684d696e743a2077726f6e6720746f6b656e000000000060448201526064016104b9565b50600092915050565b6005546001600160a01b03163314610ba35760405162461bcd60e51b81526004016104b99061194b565b6001600160a01b038116610c085760405162461bcd60e51b815260206004820152602660248201527f4f776e61626c653a206e6577206f776e657220697320746865207a65726f206160448201526564647265737360d01b60648201526084016104b9565b61060681611079565b6001600160a01b038316610c735760405162461bcd60e51b8152602060048201526024808201527f45524332303a20617070726f76652066726f6d20746865207a65726f206164646044820152637265737360e01b60648201526084016104b9565b6001600160a01b038216610cd45760405162461bcd60e51b815260206004820152602260248201527f45524332303a20617070726f766520746f20746865207a65726f206164647265604482015261737360f01b60648201526084016104b9565b6001600160a01b0383811660008181526001602090815260408083209487168084529482529182902085905590518481527f8c5be1e5ebec7d5bd14f71427d1e84f3dd0314c0f7b2291e5b200ac8c7c3b925910160405180910390a3505050565b6001600160a01b038316610d995760405162461bcd60e51b815260206004820152602560248201527f45524332303a207472616e736665722066726f6d20746865207a65726f206164604482015264647265737360d81b60648201526084016104b9565b6001600160a01b038216610dfb5760405162461bcd60e51b815260206004820152602360248201527f45524332303a207472616e7366657220746f20746865207a65726f206164647260448201526265737360e81b60648201526084016104b9565b610e06838383611169565b6001600160a01b03831660009081526020819052604090205481811015610e7e5760405162461bcd60e51b815260206004820152602660248201527f45524332303a207472616e7366657220616d6f756e7420657863656564732062604482015265616c616e636560d01b60648201526084016104b9565b6001600160a01b03808516600090815260208190526040808220858503905591851681529081208054849290610eb5908490611996565b92505081905550826001600160a01b0316846001600160a01b03167fddf252ad1be2c89b69c2b068fc378daa952ba7f163c4a11628f55a4df523b3ef84604051610f0191815260200190565b60405180910390a350505050565b6000306001600160a01b037f000000000000000000000000000000000000000000000000000000000000000016148015610f6857507f000000000000000000000000000000000000000000000000000000000000000046145b15610f9257507f000000000000000000000000000000000000000000000000000000000000000090565b50604080517f00000000000000000000000000000000000000000000000000000000000000006020808301919091527f0000000000000000000000000000000000000000000000000000000000000000828401527f000000000000000000000000000000000000000000000000000000000000000060608301524660808301523060a0808401919091528351808403909101815260c0909201909252805191012090565b60006110428284611ab5565b9392505050565b60006110428284611ad4565b60006110428284611996565b61106b82826111cd565b5050565b61106b82826112b8565b600580546001600160a01b038381166001600160a01b0319831681179093556040519116919082907f8be0079c531659141344cd1fd0a4f28419497f9722a3daafe3b4186f6b6457e090600090a35050565b6001600160a01b03811660009081526006602052604090208054600181018255905b50919050565b600061081d611100610f0f565b8360405161190160f01b6020820152602281018390526042810182905260009060620160405160208183030381529060405280519060200120905092915050565b600080600061115287878787611412565b9150915061115f816114ff565b5095945050505050565b8181600061118c836001600160a01b031660009081526020819052604090205490565b905061119d6105ba6105b260025490565b6111a78383611055565b10156111c55760405162461bcd60e51b81526004016104b9906119ae565b505050505050565b6001600160a01b0382166112235760405162461bcd60e51b815260206004820152601f60248201527f45524332303a206d696e7420746f20746865207a65726f20616464726573730060448201526064016104b9565b61122f60008383611169565b80600260008282546112419190611996565b90915550506001600160a01b0382166000908152602081905260408120805483929061126e908490611996565b90915550506040518181526001600160a01b038316906000907fddf252ad1be2c89b69c2b068fc378daa952ba7f163c4a11628f55a4df523b3ef9060200160405180910390a35050565b6001600160a01b0382166113185760405162461bcd60e51b815260206004820152602160248201527f45524332303a206275726e2066726f6d20746865207a65726f206164647265736044820152607360f81b60648201526084016104b9565b61132482600083611169565b6001600160a01b038216600090815260208190526040902054818110156113985760405162461bcd60e51b815260206004820152602260248201527f45524332303a206275726e20616d6f756e7420657863656564732062616c616e604482015261636560f01b60648201526084016104b9565b6001600160a01b03831660009081526020819052604081208383039055600280548492906113c7908490611a9e565b90915550506040518281526000906001600160a01b038516907fddf252ad1be2c89b69c2b068fc378daa952ba7f163c4a11628f55a4df523b3ef9060200160405180910390a3505050565b6000807f7fffffffffffffffffffffffffffffff5d576e7357a4501ddfe92f46681b20a083111561144957506000905060036114f6565b8460ff16601b1415801561146157508460ff16601c14155b1561147257506000905060046114f6565b6040805160008082526020820180845289905260ff881692820192909252606081018690526080810185905260019060a0016020604051602081039080840390855afa1580156114c6573d6000803e3d6000fd5b5050604051601f1901519150506001600160a01b0381166114ef576000600192509250506114f6565b9150600090505b94509492505050565b600081600481111561151357611513611af6565b141561151c5750565b600181600481111561153057611530611af6565b141561157e5760405162461bcd60e51b815260206004820152601860248201527f45434453413a20696e76616c6964207369676e6174757265000000000000000060448201526064016104b9565b600281600481111561159257611592611af6565b14156115e05760405162461bcd60e51b815260206004820152601f60248201527f45434453413a20696e76616c6964207369676e6174757265206c656e6774680060448201526064016104b9565b60038160048111156115f4576115f4611af6565b141561164d5760405162461bcd60e51b815260206004820152602260248201527f45434453413a20696e76616c6964207369676e6174757265202773272076616c604482015261756560f01b60648201526084016104b9565b600481600481111561166157611661611af6565b14156106065760405162461bcd60e51b815260206004820152602260248201527f45434453413a20696e76616c6964207369676e6174757265202776272076616c604482015261756560f01b60648201526084016104b9565b600060208083528351808285015260005b818110156116e7578581018301518582016040015282016116cb565b818111156116f9576000604083870101525b50601f01601f1916929092016040019392505050565b6001600160a01b038116811461060657600080fd5b6000806040838503121561173757600080fd5b82356117428161170f565b946020939093013593505050565b60008060006060848603121561176557600080fd5b83356117708161170f565b925060208401356117808161170f565b929592945050506040919091013590565b6000602082840312156117a357600080fd5b5035919050565b6000806000806000608086880312156117c257600080fd5b85356117cd8161170f565b945060208601356117dd8161170f565b935060408601359250606086013567ffffffffffffffff8082111561180157600080fd5b818801915088601f83011261181557600080fd5b81358181111561182457600080fd5b89602082850101111561183657600080fd5b9699959850939650602001949392505050565b60006020828403121561185b57600080fd5b81356110428161170f565b600080600080600080600060e0888a03121561188157600080fd5b873561188c8161170f565b9650602088013561189c8161170f565b95506040880135945060608801359350608088013560ff811681146118c057600080fd5b9699959850939692959460a0840135945060c09093013592915050565b600080604083850312156118f057600080fd5b82356118fb8161170f565b9150602083013561190b8161170f565b809150509250929050565b600181811c9082168061192a57607f821691505b602082108114156110ed57634e487b7160e01b600052602260045260246000fd5b6020808252818101527f4f776e61626c653a2063616c6c6572206973206e6f7420746865206f776e6572604082015260600190565b634e487b7160e01b600052601160045260246000fd5b600082198211156119a9576119a9611980565b500190565b60208082526055908201527f456e642062616c616e636520657863656564696e6720746865206d6178696d7560408201527f6d206f776e6572736869702070657263656e74616765206f6620746f74616c20606082015274737570706c792069732070726f686962697465642160581b608082015260a00190565b6001600160a01b03878116825286166020820152604081018590526060810184905260a06080820181905281018290526000828460c0840137600060c0848401015260c0601f19601f8501168301019050979650505050505050565b600060208284031215611a9757600080fd5b5051919050565b600082821015611ab057611ab0611980565b500390565b6000816000190483118215151615611acf57611acf611980565b500290565b600082611af157634e487b7160e01b600052601260045260246000fd5b500490565b634e487b7160e01b600052602160045260246000fdfea264697066735822122037f8d35b0ad6bd34ada367479166c78e010cbaa731bffc614053b8b548b799e964736f6c63430008090033",
  "immutableReferences": {
    "1071": [
      {
        "length": 32,
        "start": 2566
      }
    ],
    "1943": [
      {
        "length": 32,
        "start": 3952
      }
    ],
    "1945": [
      {
        "length": 32,
        "start": 3910
      }
    ],
    "1947": [
      {
        "length": 32,
        "start": 3868
      }
    ],
    "1949": [
      {
        "length": 32,
        "start": 4035
      }
    ],
    "1951": [
      {
        "length": 32,
        "start": 4072
      }
    ],
    "1953": [
      {
        "length": 32,
        "start": 3993
      }
    ]
  },
  "source": "// SPDX-License-Identifier: GPL-3.0-or-later\n\npragma solidity ^0.8.9;\n\nimport \"@openzeppelin/contracts/utils/math/SafeMath.sol\";\nimport \"../tokens/ERC20Custom.sol\";\n\ncontract MINE is ERC20Custom {\n    using SafeMath for uint256;\n    /**\n     * Represents the Maximum Ownership percentage a wallet can hold MINE Token\n     *\n     * NOTE: At the moment, we will be using 3 decimals for the calculation\n     */\n    uint256 private _maximumOwnershipPercentage;\n\n    constructor() ERC20Custom(\"MINE Token\", \"MINE\") {}\n\n    /**\n     * Check whether the\n     */\n    modifier onlyRestrictedOwnership(address to, uint256 amount) {\n        uint256 ReceiverBalance = balanceOf(to);\n        require(\n            SafeMath.add(amount, ReceiverBalance) >=\n                // Divided by 100000 because it is using 3 decimals and represented as a percentage (2 decimals)\n                SafeMath.div(\n                    SafeMath.mul(totalSupply(), _maximumOwnershipPercentage),\n                    100000\n                ),\n            \"End balance exceeding the maximum ownership percentage of total supply is prohibited!\"\n        );\n        _;\n    }\n\n    /**\n     * Return the Maximum Ownership Percentage of an address\n     */\n    function maxOwnership() public view returns (uint256) {\n        return _maximumOwnershipPercentage;\n    }\n\n    /**\n     * Set the Maximum Ownership Percentage with new `_newMaxOwnershipPercentage` value,\n     * that can only be passed by the owner/admin of the contract\n     */\n    function setMaxOwnership(uint256 _newMaxOwnershipPercentage)\n        external\n        onlyOwner\n    {\n        _maximumOwnershipPercentage = _newMaxOwnershipPercentage;\n    }\n\n    /**\n     * Minting `amount` number of new tokens to `to` address with\n     * `onLyRestrictedOwnership` modifier checks\n     */\n    function mint(address to, uint256 amount)\n        public\n        onlyOwner\n        onlyRestrictedOwnership(to, amount)\n    {\n        _mint(to, amount);\n    }\n\n    /**\n     * Add `onlyRestrictedOwnership` modifier to check beforehand whether the total\n     * accumulation exceeds the maxiumum ownership percentage, represented by\n     * `_maxOwnership` variable\n     */\n    function _beforeTokenTransfer(\n        address from,\n        address to,\n        uint256 amount\n    ) internal override onlyRestrictedOwnership(to, amount) {\n        super._beforeTokenTransfer(from, to, amount);\n    }\n}\n",
  "sourcePath": "/home/yosephkurniasoenggoro/Documents/GitHub/miners-nations-smart-contracts/contracts/erc20/MINE.sol",
  "compiler": {
    "name": "solc",
    "version": "0.8.9+commit.e5eed63a.Emscripten.clang"
  },
  "schemaVersion": "3.4.3",
  "updatedAt": "2022-01-05T16:31:47.301Z",
  "devdoc": {
    "kind": "dev",
    "methods": {
      "DOMAIN_SEPARATOR()": {
        "details": "See {IERC20Permit-DOMAIN_SEPARATOR}."
      },
      "allowance(address,address)": {
        "details": "See {IERC20-allowance}."
      },
      "approve(address,uint256)": {
        "details": "See {IERC20-approve}. Requirements: - `spender` cannot be the zero address."
      },
      "balanceOf(address)": {
        "details": "See {IERC20-balanceOf}."
      },
      "burn(uint256)": {
        "details": "Destroys `amount` tokens from the caller. See {ERC20-_burn}."
      },
      "burnFrom(address,uint256)": {
        "details": "Destroys `amount` tokens from `account`, deducting from the caller's allowance. See {ERC20-_burn} and {ERC20-allowance}. Requirements: - the caller must have allowance for ``accounts``'s tokens of at least `amount`."
      },
      "decimals()": {
        "details": "Returns the number of decimals used to get its user representation. For example, if `decimals` equals `2`, a balance of `505` tokens should be displayed to a user as `5.05` (`505 / 10 ** 2`). Tokens usually opt for a value of 18, imitating the relationship between Ether and Wei. This is the value {ERC20} uses, unless this function is overridden; NOTE: This information is only used for _display_ purposes: it in no way affects any of the arithmetic of the contract, including {IERC20-balanceOf} and {IERC20-transfer}."
      },
      "decreaseAllowance(address,uint256)": {
        "details": "Atomically decreases the allowance granted to `spender` by the caller. This is an alternative to {approve} that can be used as a mitigation for problems described in {IERC20-approve}. Emits an {Approval} event indicating the updated allowance. Requirements: - `spender` cannot be the zero address. - `spender` must have allowance for the caller of at least `subtractedValue`."
      },
      "flashFee(address,uint256)": {
        "details": "Returns the fee applied when doing flash loans. By default this implementation has 0 fees. This function can be overloaded to make the flash loan mechanism deflationary.",
        "params": {
          "amount": "The amount of tokens to be loaned.",
          "token": "The token to be flash loaned."
        },
        "returns": {
          "_0": "The fees applied to the corresponding flash loan."
        }
      },
      "flashLoan(address,address,uint256,bytes)": {
        "details": "Performs a flash loan. New tokens are minted and sent to the `receiver`, who is required to implement the {IERC3156FlashBorrower} interface. By the end of the flash loan, the receiver is expected to own amount + fee tokens and have them approved back to the token contract itself so they can be burned.",
        "params": {
          "amount": "The amount of tokens to be loaned.",
          "data": "An arbitrary datafield that is passed to the receiver.",
          "receiver": "The receiver of the flash loan. Should implement the {IERC3156FlashBorrower.onFlashLoan} interface.",
          "token": "The token to be flash loaned. Only `address(this)` is supported."
        },
        "returns": {
          "_0": "`true` is the flash loan was successful."
        }
      },
      "increaseAllowance(address,uint256)": {
        "details": "Atomically increases the allowance granted to `spender` by the caller. This is an alternative to {approve} that can be used as a mitigation for problems described in {IERC20-approve}. Emits an {Approval} event indicating the updated allowance. Requirements: - `spender` cannot be the zero address."
      },
      "maxFlashLoan(address)": {
        "details": "Returns the maximum amount of tokens available for loan.",
        "params": {
          "token": "The address of the token that is requested."
        },
        "returns": {
          "_0": "The amont of token that can be loaned."
        }
      },
      "name()": {
        "details": "Returns the name of the token."
      },
      "nonces(address)": {
        "details": "See {IERC20Permit-nonces}."
      },
      "owner()": {
        "details": "Returns the address of the current owner."
      },
      "permit(address,address,uint256,uint256,uint8,bytes32,bytes32)": {
        "details": "See {IERC20Permit-permit}."
      },
      "renounceOwnership()": {
        "details": "Leaves the contract without owner. It will not be possible to call `onlyOwner` functions anymore. Can only be called by the current owner. NOTE: Renouncing ownership will leave the contract without an owner, thereby removing any functionality that is only available to the owner."
      },
      "symbol()": {
        "details": "Returns the symbol of the token, usually a shorter version of the name."
      },
      "totalSupply()": {
        "details": "See {IERC20-totalSupply}."
      },
      "transfer(address,uint256)": {
        "details": "See {IERC20-transfer}. Requirements: - `recipient` cannot be the zero address. - the caller must have a balance of at least `amount`."
      },
      "transferFrom(address,address,uint256)": {
        "details": "See {IERC20-transferFrom}. Emits an {Approval} event indicating the updated allowance. This is not required by the EIP. See the note at the beginning of {ERC20}. Requirements: - `sender` and `recipient` cannot be the zero address. - `sender` must have a balance of at least `amount`. - the caller must have allowance for ``sender``'s tokens of at least `amount`."
      },
      "transferOwnership(address)": {
        "details": "Transfers ownership of the contract to a new account (`newOwner`). Can only be called by the current owner."
      }
    },
    "version": 1
  },
  "userdoc": {
    "kind": "user",
    "methods": {
      "maxOwnership()": {
        "notice": "Return the Maximum Ownership Percentage of an address"
      },
      "mint(address,uint256)": {
        "notice": "Minting `amount` number of new tokens to `to` address with `onLyRestrictedOwnership` modifier checks"
      },
      "setMaxOwnership(uint256)": {
        "notice": "Set the Maximum Ownership Percentage with new `_newMaxOwnershipPercentage` value, that can only be passed by the owner/admin of the contract"
      }
    },
    "version": 1
  }
}