{
  "contractName": "MINE",
  "abi": [
    {
      "inputs": [
        {
          "internalType": "address",
          "name": "_multisigWallet",
          "type": "address"
        },
        {
          "internalType": "uint256",
          "name": "_maximumOwnershipPercentageInput",
          "type": "uint256"
        }
      ],
      "stateMutability": "nonpayable",
      "type": "constructor"
    },
    {
      "anonymous": false,
      "inputs": [
        {
          "indexed": true,
          "internalType": "address",
          "name": "owner",
          "type": "address"
        },
        {
          "indexed": true,
          "internalType": "address",
          "name": "spender",
          "type": "address"
        },
        {
          "indexed": false,
          "internalType": "uint256",
          "name": "value",
          "type": "uint256"
        }
      ],
      "name": "Approval",
      "type": "event"
    },
    {
      "anonymous": false,
      "inputs": [
        {
          "indexed": true,
          "internalType": "address",
          "name": "previousOwner",
          "type": "address"
        },
        {
          "indexed": true,
          "internalType": "address",
          "name": "newOwner",
          "type": "address"
        }
      ],
      "name": "OwnershipTransferred",
      "type": "event"
    },
    {
      "anonymous": false,
      "inputs": [
        {
          "indexed": true,
          "internalType": "address",
          "name": "from",
          "type": "address"
        },
        {
          "indexed": true,
          "internalType": "address",
          "name": "to",
          "type": "address"
        },
        {
          "indexed": false,
          "internalType": "uint256",
          "name": "value",
          "type": "uint256"
        }
      ],
      "name": "Transfer",
      "type": "event"
    },
    {
      "inputs": [],
      "name": "DOMAIN_SEPARATOR",
      "outputs": [
        {
          "internalType": "bytes32",
          "name": "",
          "type": "bytes32"
        }
      ],
      "stateMutability": "view",
      "type": "function"
    },
    {
      "inputs": [
        {
          "internalType": "address",
          "name": "owner",
          "type": "address"
        },
        {
          "internalType": "address",
          "name": "spender",
          "type": "address"
        }
      ],
      "name": "allowance",
      "outputs": [
        {
          "internalType": "uint256",
          "name": "",
          "type": "uint256"
        }
      ],
      "stateMutability": "view",
      "type": "function"
    },
    {
      "inputs": [
        {
          "internalType": "address",
          "name": "spender",
          "type": "address"
        },
        {
          "internalType": "uint256",
          "name": "amount",
          "type": "uint256"
        }
      ],
      "name": "approve",
      "outputs": [
        {
          "internalType": "bool",
          "name": "",
          "type": "bool"
        }
      ],
      "stateMutability": "nonpayable",
      "type": "function"
    },
    {
      "inputs": [
        {
          "internalType": "address",
          "name": "account",
          "type": "address"
        }
      ],
      "name": "balanceOf",
      "outputs": [
        {
          "internalType": "uint256",
          "name": "",
          "type": "uint256"
        }
      ],
      "stateMutability": "view",
      "type": "function"
    },
    {
      "inputs": [
        {
          "internalType": "uint256",
          "name": "amount",
          "type": "uint256"
        }
      ],
      "name": "burn",
      "outputs": [],
      "stateMutability": "nonpayable",
      "type": "function"
    },
    {
      "inputs": [
        {
          "internalType": "address",
          "name": "account",
          "type": "address"
        },
        {
          "internalType": "uint256",
          "name": "amount",
          "type": "uint256"
        }
      ],
      "name": "burnFrom",
      "outputs": [],
      "stateMutability": "nonpayable",
      "type": "function"
    },
    {
      "inputs": [],
      "name": "cap",
      "outputs": [
        {
          "internalType": "uint256",
          "name": "",
          "type": "uint256"
        }
      ],
      "stateMutability": "view",
      "type": "function"
    },
    {
      "inputs": [],
      "name": "decimals",
      "outputs": [
        {
          "internalType": "uint8",
          "name": "",
          "type": "uint8"
        }
      ],
      "stateMutability": "view",
      "type": "function"
    },
    {
      "inputs": [
        {
          "internalType": "address",
          "name": "spender",
          "type": "address"
        },
        {
          "internalType": "uint256",
          "name": "subtractedValue",
          "type": "uint256"
        }
      ],
      "name": "decreaseAllowance",
      "outputs": [
        {
          "internalType": "bool",
          "name": "",
          "type": "bool"
        }
      ],
      "stateMutability": "nonpayable",
      "type": "function"
    },
    {
      "inputs": [
        {
          "internalType": "uint256",
          "name": "_decreaseCap",
          "type": "uint256"
        }
      ],
      "name": "decreaseCap",
      "outputs": [],
      "stateMutability": "nonpayable",
      "type": "function"
    },
    {
      "inputs": [
        {
          "internalType": "address",
          "name": "token",
          "type": "address"
        },
        {
          "internalType": "uint256",
          "name": "amount",
          "type": "uint256"
        }
      ],
      "name": "flashFee",
      "outputs": [
        {
          "internalType": "uint256",
          "name": "",
          "type": "uint256"
        }
      ],
      "stateMutability": "view",
      "type": "function"
    },
    {
      "inputs": [
        {
          "internalType": "contract IERC3156FlashBorrower",
          "name": "receiver",
          "type": "address"
        },
        {
          "internalType": "address",
          "name": "token",
          "type": "address"
        },
        {
          "internalType": "uint256",
          "name": "amount",
          "type": "uint256"
        },
        {
          "internalType": "bytes",
          "name": "data",
          "type": "bytes"
        }
      ],
      "name": "flashLoan",
      "outputs": [
        {
          "internalType": "bool",
          "name": "",
          "type": "bool"
        }
      ],
      "stateMutability": "nonpayable",
      "type": "function"
    },
    {
      "inputs": [
        {
          "internalType": "address",
          "name": "spender",
          "type": "address"
        },
        {
          "internalType": "uint256",
          "name": "addedValue",
          "type": "uint256"
        }
      ],
      "name": "increaseAllowance",
      "outputs": [
        {
          "internalType": "bool",
          "name": "",
          "type": "bool"
        }
      ],
      "stateMutability": "nonpayable",
      "type": "function"
    },
    {
      "inputs": [
        {
          "internalType": "uint256",
          "name": "_increaseCap",
          "type": "uint256"
        }
      ],
      "name": "increaseCap",
      "outputs": [],
      "stateMutability": "nonpayable",
      "type": "function"
    },
    {
      "inputs": [
        {
          "internalType": "address",
          "name": "token",
          "type": "address"
        }
      ],
      "name": "maxFlashLoan",
      "outputs": [
        {
          "internalType": "uint256",
          "name": "",
          "type": "uint256"
        }
      ],
      "stateMutability": "view",
      "type": "function"
    },
    {
      "inputs": [],
      "name": "name",
      "outputs": [
        {
          "internalType": "string",
          "name": "",
          "type": "string"
        }
      ],
      "stateMutability": "view",
      "type": "function"
    },
    {
      "inputs": [
        {
          "internalType": "address",
          "name": "owner",
          "type": "address"
        }
      ],
      "name": "nonces",
      "outputs": [
        {
          "internalType": "uint256",
          "name": "",
          "type": "uint256"
        }
      ],
      "stateMutability": "view",
      "type": "function"
    },
    {
      "inputs": [],
      "name": "owner",
      "outputs": [
        {
          "internalType": "address",
          "name": "",
          "type": "address"
        }
      ],
      "stateMutability": "view",
      "type": "function"
    },
    {
      "inputs": [
        {
          "internalType": "address",
          "name": "owner",
          "type": "address"
        },
        {
          "internalType": "address",
          "name": "spender",
          "type": "address"
        },
        {
          "internalType": "uint256",
          "name": "value",
          "type": "uint256"
        },
        {
          "internalType": "uint256",
          "name": "deadline",
          "type": "uint256"
        },
        {
          "internalType": "uint8",
          "name": "v",
          "type": "uint8"
        },
        {
          "internalType": "bytes32",
          "name": "r",
          "type": "bytes32"
        },
        {
          "internalType": "bytes32",
          "name": "s",
          "type": "bytes32"
        }
      ],
      "name": "permit",
      "outputs": [],
      "stateMutability": "nonpayable",
      "type": "function"
    },
    {
      "inputs": [],
      "name": "renounceOwnership",
      "outputs": [],
      "stateMutability": "nonpayable",
      "type": "function"
    },
    {
      "inputs": [
        {
          "internalType": "uint256",
          "name": "_newCap",
          "type": "uint256"
        }
      ],
      "name": "setCap",
      "outputs": [],
      "stateMutability": "nonpayable",
      "type": "function"
    },
    {
      "inputs": [],
      "name": "symbol",
      "outputs": [
        {
          "internalType": "string",
          "name": "",
          "type": "string"
        }
      ],
      "stateMutability": "view",
      "type": "function"
    },
    {
      "inputs": [],
      "name": "totalSupply",
      "outputs": [
        {
          "internalType": "uint256",
          "name": "",
          "type": "uint256"
        }
      ],
      "stateMutability": "view",
      "type": "function"
    },
    {
      "inputs": [
        {
          "internalType": "address",
          "name": "sender",
          "type": "address"
        },
        {
          "internalType": "address",
          "name": "recipient",
          "type": "address"
        },
        {
          "internalType": "uint256",
          "name": "amount",
          "type": "uint256"
        }
      ],
      "name": "transferFrom",
      "outputs": [
        {
          "internalType": "bool",
          "name": "",
          "type": "bool"
        }
      ],
      "stateMutability": "nonpayable",
      "type": "function"
    },
    {
      "inputs": [
        {
          "internalType": "address",
          "name": "newOwner",
          "type": "address"
        }
      ],
      "name": "transferOwnership",
      "outputs": [],
      "stateMutability": "nonpayable",
      "type": "function"
    },
    {
      "inputs": [],
      "name": "maxOwnership",
      "outputs": [
        {
          "internalType": "uint256",
          "name": "",
          "type": "uint256"
        }
      ],
      "stateMutability": "view",
      "type": "function"
    },
    {
      "inputs": [
        {
          "internalType": "uint256",
          "name": "_newMaxOwnershipPercentage",
          "type": "uint256"
        }
      ],
      "name": "setMaxOwnership",
      "outputs": [],
      "stateMutability": "nonpayable",
      "type": "function"
    },
    {
      "inputs": [
        {
          "internalType": "address",
          "name": "to",
          "type": "address"
        },
        {
          "internalType": "uint256",
          "name": "amount",
          "type": "uint256"
        }
      ],
      "name": "mint",
      "outputs": [],
      "stateMutability": "nonpayable",
      "type": "function"
    },
    {
      "inputs": [
        {
          "internalType": "address",
          "name": "to",
          "type": "address"
        },
        {
          "internalType": "uint256",
          "name": "amount",
          "type": "uint256"
        }
      ],
      "name": "transfer",
      "outputs": [
        {
          "internalType": "bool",
          "name": "",
          "type": "bool"
        }
      ],
      "stateMutability": "nonpayable",
      "type": "function"
    }
  ],
  "bytecode": "0x6101606040527f6e71edae12b1b97f4d1f60370fef10105fa2faae0126114a169c64845d6126c9610140523480156200003757600080fd5b50604051620026f6380380620026f68339810160408190526200005a9162000513565b6040518060400160405280600a81526020016926a4a722902a37b5b2b760b11b815250604051806040016040528060048152602001634d494e4560e01b815250620000db6002620000b06200025060201b60201c565b620000bd90600a62000565565b620000ca90600a6200068a565b6200025560201b6200101b1760201c565b8180604051806040016040528060018152602001603160f81b81525085858160039080519060200190620001119291906200046d565b508051620001279060049060208401906200046d565b505050620001446200013e6200026c60201b60201c565b62000270565b815160209283012081519183019190912060e08290526101008190524660a0818152604080517f8b73c3c69bb8fe3d512ecc4cf759cc79239f7b179b0ffacaa9a75d522b39400f818801819052818301969096526060810194909452608080850193909352308483018190528151808603909301835260c094850190915281519190950120905291909152610120525080620002275760405162461bcd60e51b815260206004820152601560248201527f45524332304361707065643a206361702069732030000000000000000000000060448201526064015b60405180910390fd5b60075550620002469050826200024060026012620000b0565b620002c2565b6008555062000715565b601290565b60006200026382846200069b565b90505b92915050565b3390565b600580546001600160a01b038381166001600160a01b0319831681179093556040519116919082907f8be0079c531659141344cd1fd0a4f28419497f9722a3daafe3b4186f6b6457e090600090a35050565b60075481620002db6200035260201b620004c91760201c565b620002e79190620006bd565b1115620003375760405162461bcd60e51b815260206004820152601960248201527f45524332304361707065643a206361702065786365656465640000000000000060448201526064016200021e565b6200034e82826200035860201b6200102e1760201c565b5050565b60025490565b6001600160a01b038216620003b05760405162461bcd60e51b815260206004820152601f60248201527f45524332303a206d696e7420746f20746865207a65726f20616464726573730060448201526064016200021e565b620003be6000838362000450565b8060026000828254620003d29190620006bd565b90915550506001600160a01b0382166000908152602081905260408120805483929062000401908490620006bd565b90915550506040518181526001600160a01b038316906000907fddf252ad1be2c89b69c2b068fc378daa952ba7f163c4a11628f55a4df523b3ef9060200160405180910390a36200034e600083835b620004688383836200046860201b62000c5e1760201c565b505050565b8280546200047b90620006d8565b90600052602060002090601f0160209004810192826200049f5760008555620004ea565b82601f10620004ba57805160ff1916838001178555620004ea565b82800160010185558215620004ea579182015b82811115620004ea578251825591602001919060010190620004cd565b50620004f8929150620004fc565b5090565b5b80821115620004f85760008155600101620004fd565b600080604083850312156200052757600080fd5b82516001600160a01b03811681146200053f57600080fd5b6020939093015192949293505050565b634e487b7160e01b600052601160045260246000fd5b600060ff821660ff84168060ff038211156200058557620005856200054f565b019392505050565b600181815b80851115620005ce578160001904821115620005b257620005b26200054f565b80851615620005c057918102915b93841c939080029062000592565b509250929050565b600082620005e75750600162000266565b81620005f65750600062000266565b81600181146200060f57600281146200061a576200063a565b600191505062000266565b60ff8411156200062e576200062e6200054f565b50506001821b62000266565b5060208310610133831016604e8410600b84101617156200065f575081810a62000266565b6200066b83836200058d565b80600019048211156200068257620006826200054f565b029392505050565b60006200026360ff841683620005d6565b6000816000190483118215151615620006b857620006b86200054f565b500290565b60008219821115620006d357620006d36200054f565b500190565b600181811c90821680620006ed57607f821691505b602082108114156200070f57634e487b7160e01b600052602260045260246000fd5b50919050565b60805160a05160c05160e051610100516101205161014051611f86620007706000396000610e100152600061148b015260006114da015260006114b50152600061140e01526000611438015260006114620152611f866000f3fe608060405234801561001057600080fd5b50600436106101cf5760003560e01c80635cffe9de116101045780638da5cb5b116100a2578063d505accf11610071578063d505accf146103ae578063d9d98ce4146103c1578063dd62ed3e146103d4578063f2fde38b1461040d57600080fd5b80638da5cb5b1461036557806395d89b4114610380578063a457c2d714610388578063a9059cbb1461039b57600080fd5b8063715018a6116100de578063715018a6146103245780637430a6891461032c57806379cc67901461033f5780637ecebe001461035257600080fd5b80635cffe9de146102d5578063613255ab146102e857806370a08231146102fb57600080fd5b80633644e5151161017157806340c10f191161014b57806340c10f191461028957806342966c681461029c57806347786d37146102af578063523e9551146102c257600080fd5b80633644e51514610266578063395093511461026e578063395a221e1461028157600080fd5b806323b872dd116101ad57806323b872dd1461022757806324bf3c2b1461023a578063313ce5671461024f578063355274ea1461025e57600080fd5b806306fdde03146101d4578063095ea7b3146101f257806318160ddd14610215575b600080fd5b6101dc610420565b6040516101e99190611af6565b60405180910390f35b610205610200366004611b60565b6104b2565b60405190151581526020016101e9565b6002545b6040519081526020016101e9565b610205610235366004611b8c565b6104cf565b61024d610248366004611bcd565b61057e565b005b604051601281526020016101e9565b600754610219565b610219610650565b61020561027c366004611b60565b61065f565b600854610219565b61024d610297366004611b60565b61069b565b61024d6102aa366004611bcd565b61075b565b61024d6102bd366004611bcd565b610768565b61024d6102d0366004611bcd565b61081a565b6102056102e3366004611be6565b6108cb565b6102196102f6366004611c85565b610ab7565b610219610309366004611c85565b6001600160a01b031660009081526020819052604090205490565b61024d610adf565b61024d61033a366004611bcd565b610b15565b61024d61034d366004611b60565b610bdd565b610219610360366004611c85565b610c63565b6005546040516001600160a01b0390911681526020016101e9565b6101dc610c81565b610205610396366004611b60565b610c90565b6102056103a9366004611b60565b610d29565b61024d6103bc366004611ca2565b610dbc565b6102196103cf366004611b60565b610f20565b6102196103e2366004611d19565b6001600160a01b03918216600090815260016020908152604080832093909416825291909152205490565b61024d61041b366004611c85565b610f83565b60606003805461042f90611d52565b80601f016020809104026020016040519081016040528092919081815260200182805461045b90611d52565b80156104a85780601f1061047d576101008083540402835291602001916104a8565b820191906000526020600020905b81548152906001019060200180831161048b57829003601f168201915b5050505050905090565b60006104bf33848461110e565b5060015b92915050565b60025490565b60006104dc848484611232565b6001600160a01b0384166000908152600160209081526040808320338452909152902054828110156105665760405162461bcd60e51b815260206004820152602860248201527f45524332303a207472616e7366657220616d6f756e74206578636565647320616044820152676c6c6f77616e636560c01b60648201526084015b60405180910390fd5b610573853385840361110e565b506001949350505050565b6005546001600160a01b031633146105a85760405162461bcd60e51b815260040161055d90611d87565b6000811180156105bb5750620186a08111155b61064b5760405162461bcd60e51b815260206004820152605560248201527f4d494e453a204e6577204d6178204f776e6572736869702050657263656e746160448201527f6765206d757374206265206c6172676572207468616e2030206f72206174206d6064820152746f7374203130302520283520646563696d616c732960581b608482015260a40161055d565b600855565b600061065a611401565b905090565b3360008181526001602090815260408083206001600160a01b038716845290915281205490916104bf918590610696908690611dd2565b61110e565b6005546001600160a01b031633146106c55760405162461bcd60e51b815260040161055d90611d87565b81816000806106e9846001600160a01b031660009081526020819052604090205490565b90506106f460025490565b156107495760006107058484611528565b905061071f6107168260085461101b565b620186a0611566565b6107298584611572565b11156107475760405162461bcd60e51b815260040161055d90611dea565b505b610753868661157e565b505050505050565b61076533826115ed565b50565b6005546001600160a01b031633146107925760405162461bcd60e51b815260040161055d90611d87565b60025481116108155760405162461bcd60e51b815260206004820152604360248201527f4552433230437573746f6d3a204e6577206361702073657420746f206265206c60448201527f6f776572207468616e206f7220657175616c20746f20746f74616c20737570706064820152626c792160e81b608482015260a40161055d565b600755565b6005546001600160a01b031633146108445760405162461bcd60e51b815260040161055d90611d87565b600081116108b35760405162461bcd60e51b815260206004820152603660248201527f4552433230437573746f6d3a20496e637265617365204361702076616c756520604482015275686173206e6f6e2d76616c696420302076616c75652160501b606482015260840161055d565b6108c56108bf60075490565b82611572565b60075550565b6000806108d88686610f20565b90506108e4878661157e565b6040516323e30c8b60e01b81527f439148f0bbc682ca079e46d6e2c2f0c1e3b820f1a291b069d8882abf8cf18dd9906001600160a01b038916906323e30c8b9061093c9033908b908b9088908c908c90600401611e6d565b602060405180830381600087803b15801561095657600080fd5b505af115801561096a573d6000803e3d6000fd5b505050506040513d601f19601f8201168201806040525081019061098e9190611ec9565b146109e75760405162461bcd60e51b8152602060048201526024808201527f4552433230466c6173684d696e743a20696e76616c69642072657475726e2076604482015263616c756560e01b606482015260840161055d565b6001600160a01b0387166000908152600160209081526040808320308452909152902054610a158287611dd2565b811015610a7c5760405162461bcd60e51b815260206004820152602f60248201527f4552433230466c6173684d696e743a20616c6c6f77616e636520646f6573206e60448201526e1bdd08185b1b1bddc81c99599d5b99608a1b606482015260840161055d565b610a96883084610a8c8a86611ee2565b6106969190611ee2565b610aa988610aa48489611dd2565b6115ed565b506001979650505050505050565b60006001600160a01b0382163014610ad05760006104c3565b6002546104c390600019611ee2565b6005546001600160a01b03163314610b095760405162461bcd60e51b815260040161055d90611d87565b610b1360006115f7565b565b6005546001600160a01b03163314610b3f5760405162461bcd60e51b815260040161055d90611d87565b600081118015610b625750610b5e610b5660075490565b600254611649565b8111155b610bcb5760405162461bcd60e51b815260206004820152603460248201527f4552433230437573746f6d3a204465637265617365204361702076616c756520604482015273686173206e6f6e2d76616c69642076616c75652160601b606482015260840161055d565b6108c5610bd760075490565b82611649565b6000610be983336103e2565b905081811015610c475760405162461bcd60e51b8152602060048201526024808201527f45524332303a206275726e20616d6f756e74206578636565647320616c6c6f77604482015263616e636560e01b606482015260840161055d565b610c54833384840361110e565b610c5e83836115ed565b505050565b6001600160a01b0381166000908152600660205260408120546104c3565b60606004805461042f90611d52565b3360009081526001602090815260408083206001600160a01b038616845290915281205482811015610d125760405162461bcd60e51b815260206004820152602560248201527f45524332303a2064656372656173656420616c6c6f77616e63652062656c6f77604482015264207a65726f60d81b606482015260840161055d565b610d1f338585840361110e565b5060019392505050565b6000828260016000610d50846001600160a01b031660009081526020819052604090205490565b9050610d5b60025490565b15610da7576000610d6c8484611528565b9050610d7d6107168260085461101b565b610d878584611572565b1115610da55760405162461bcd60e51b815260040161055d90611dea565b505b610db18787611655565b979650505050505050565b83421115610e0c5760405162461bcd60e51b815260206004820152601d60248201527f45524332305065726d69743a206578706972656420646561646c696e65000000604482015260640161055d565b60007f0000000000000000000000000000000000000000000000000000000000000000888888610e3b8c611662565b6040805160208101969096526001600160a01b0394851690860152929091166060840152608083015260a082015260c0810186905260e0016040516020818303038152906040528051906020012090506000610e968261168a565b90506000610ea6828787876116d8565b9050896001600160a01b0316816001600160a01b031614610f095760405162461bcd60e51b815260206004820152601e60248201527f45524332305065726d69743a20696e76616c6964207369676e61747572650000604482015260640161055d565b610f148a8a8a61110e565b50505050505050505050565b60006001600160a01b0383163014610f7a5760405162461bcd60e51b815260206004820152601b60248201527f4552433230466c6173684d696e743a2077726f6e6720746f6b656e0000000000604482015260640161055d565b50600092915050565b6005546001600160a01b03163314610fad5760405162461bcd60e51b815260040161055d90611d87565b6001600160a01b0381166110125760405162461bcd60e51b815260206004820152602660248201527f4f776e61626c653a206e6577206f776e657220697320746865207a65726f206160448201526564647265737360d01b606482015260840161055d565b610765816115f7565b60006110278284611ef9565b9392505050565b6001600160a01b0382166110845760405162461bcd60e51b815260206004820152601f60248201527f45524332303a206d696e7420746f20746865207a65726f206164647265737300604482015260640161055d565b80600260008282546110969190611dd2565b90915550506001600160a01b038216600090815260208190526040812080548392906110c3908490611dd2565b90915550506040518181526001600160a01b038316906000907fddf252ad1be2c89b69c2b068fc378daa952ba7f163c4a11628f55a4df523b3ef9060200160405180910390a35b5050565b6001600160a01b0383166111705760405162461bcd60e51b8152602060048201526024808201527f45524332303a20617070726f76652066726f6d20746865207a65726f206164646044820152637265737360e01b606482015260840161055d565b6001600160a01b0382166111d15760405162461bcd60e51b815260206004820152602260248201527f45524332303a20617070726f766520746f20746865207a65726f206164647265604482015261737360f01b606482015260840161055d565b6001600160a01b0383811660008181526001602090815260408083209487168084529482529182902085905590518481527f8c5be1e5ebec7d5bd14f71427d1e84f3dd0314c0f7b2291e5b200ac8c7c3b925910160405180910390a3505050565b6001600160a01b0383166112965760405162461bcd60e51b815260206004820152602560248201527f45524332303a207472616e736665722066726f6d20746865207a65726f206164604482015264647265737360d81b606482015260840161055d565b6001600160a01b0382166112f85760405162461bcd60e51b815260206004820152602360248201527f45524332303a207472616e7366657220746f20746865207a65726f206164647260448201526265737360e81b606482015260840161055d565b6001600160a01b038316600090815260208190526040902054818110156113705760405162461bcd60e51b815260206004820152602660248201527f45524332303a207472616e7366657220616d6f756e7420657863656564732062604482015265616c616e636560d01b606482015260840161055d565b6001600160a01b038085166000908152602081905260408082208585039055918516815290812080548492906113a7908490611dd2565b92505081905550826001600160a01b0316846001600160a01b03167fddf252ad1be2c89b69c2b068fc378daa952ba7f163c4a11628f55a4df523b3ef846040516113f391815260200190565b60405180910390a350505050565b6000306001600160a01b037f00000000000000000000000000000000000000000000000000000000000000001614801561145a57507f000000000000000000000000000000000000000000000000000000000000000046145b1561148457507f000000000000000000000000000000000000000000000000000000000000000090565b50604080517f00000000000000000000000000000000000000000000000000000000000000006020808301919091527f0000000000000000000000000000000000000000000000000000000000000000828401527f000000000000000000000000000000000000000000000000000000000000000060608301524660808301523060a0808401919091528351808403909101815260c0909201909252805191012090565b60008082600181111561153d5761153d611f18565b141561155e578261154d60025490565b6115579190611dd2565b90506104c3565b600254611557565b60006110278284611f2e565b60006110278284611dd2565b6007548161158b60025490565b6115959190611dd2565b11156115e35760405162461bcd60e51b815260206004820152601960248201527f45524332304361707065643a2063617020657863656564656400000000000000604482015260640161055d565b61110a828261102e565b61110a8282611700565b600580546001600160a01b038381166001600160a01b0319831681179093556040519116919082907f8be0079c531659141344cd1fd0a4f28419497f9722a3daafe3b4186f6b6457e090600090a35050565b60006110278284611ee2565b60006104bf338484611232565b6001600160a01b03811660009081526006602052604090208054600181018255905b50919050565b60006104c3611697611401565b8360405161190160f01b6020820152602281018390526042810182905260009060620160405160208183030381529060405280519060200120905092915050565b60008060006116e98787878761184e565b915091506116f68161193b565b5095945050505050565b6001600160a01b0382166117605760405162461bcd60e51b815260206004820152602160248201527f45524332303a206275726e2066726f6d20746865207a65726f206164647265736044820152607360f81b606482015260840161055d565b6001600160a01b038216600090815260208190526040902054818110156117d45760405162461bcd60e51b815260206004820152602260248201527f45524332303a206275726e20616d6f756e7420657863656564732062616c616e604482015261636560f01b606482015260840161055d565b6001600160a01b0383166000908152602081905260408120838303905560028054849290611803908490611ee2565b90915550506040518281526000906001600160a01b038516907fddf252ad1be2c89b69c2b068fc378daa952ba7f163c4a11628f55a4df523b3ef9060200160405180910390a3505050565b6000807f7fffffffffffffffffffffffffffffff5d576e7357a4501ddfe92f46681b20a08311156118855750600090506003611932565b8460ff16601b1415801561189d57508460ff16601c14155b156118ae5750600090506004611932565b6040805160008082526020820180845289905260ff881692820192909252606081018690526080810185905260019060a0016020604051602081039080840390855afa158015611902573d6000803e3d6000fd5b5050604051601f1901519150506001600160a01b03811661192b57600060019250925050611932565b9150600090505b94509492505050565b600081600481111561194f5761194f611f18565b14156119585750565b600181600481111561196c5761196c611f18565b14156119ba5760405162461bcd60e51b815260206004820152601860248201527f45434453413a20696e76616c6964207369676e61747572650000000000000000604482015260640161055d565b60028160048111156119ce576119ce611f18565b1415611a1c5760405162461bcd60e51b815260206004820152601f60248201527f45434453413a20696e76616c6964207369676e6174757265206c656e67746800604482015260640161055d565b6003816004811115611a3057611a30611f18565b1415611a895760405162461bcd60e51b815260206004820152602260248201527f45434453413a20696e76616c6964207369676e6174757265202773272076616c604482015261756560f01b606482015260840161055d565b6004816004811115611a9d57611a9d611f18565b14156107655760405162461bcd60e51b815260206004820152602260248201527f45434453413a20696e76616c6964207369676e6174757265202776272076616c604482015261756560f01b606482015260840161055d565b600060208083528351808285015260005b81811015611b2357858101830151858201604001528201611b07565b81811115611b35576000604083870101525b50601f01601f1916929092016040019392505050565b6001600160a01b038116811461076557600080fd5b60008060408385031215611b7357600080fd5b8235611b7e81611b4b565b946020939093013593505050565b600080600060608486031215611ba157600080fd5b8335611bac81611b4b565b92506020840135611bbc81611b4b565b929592945050506040919091013590565b600060208284031215611bdf57600080fd5b5035919050565b600080600080600060808688031215611bfe57600080fd5b8535611c0981611b4b565b94506020860135611c1981611b4b565b935060408601359250606086013567ffffffffffffffff80821115611c3d57600080fd5b818801915088601f830112611c5157600080fd5b813581811115611c6057600080fd5b896020828501011115611c7257600080fd5b9699959850939650602001949392505050565b600060208284031215611c9757600080fd5b813561102781611b4b565b600080600080600080600060e0888a031215611cbd57600080fd5b8735611cc881611b4b565b96506020880135611cd881611b4b565b95506040880135945060608801359350608088013560ff81168114611cfc57600080fd5b9699959850939692959460a0840135945060c09093013592915050565b60008060408385031215611d2c57600080fd5b8235611d3781611b4b565b91506020830135611d4781611b4b565b809150509250929050565b600181811c90821680611d6657607f821691505b6020821081141561168457634e487b7160e01b600052602260045260246000fd5b6020808252818101527f4f776e61626c653a2063616c6c6572206973206e6f7420746865206f776e6572604082015260600190565b634e487b7160e01b600052601160045260246000fd5b60008219821115611de557611de5611dbc565b500190565b6020808252605b908201527f4d494e453a20456e642062616c616e636520657863656564696e67207468652060408201527f6d6178696d756d206f776e6572736869702070657263656e74616765206f662060608201527f746f74616c20737570706c792069732070726f68696269746564210000000000608082015260a00190565b6001600160a01b03878116825286166020820152604081018590526060810184905260a06080820181905281018290526000828460c0840137600060c0848401015260c0601f19601f8501168301019050979650505050505050565b600060208284031215611edb57600080fd5b5051919050565b600082821015611ef457611ef4611dbc565b500390565b6000816000190483118215151615611f1357611f13611dbc565b500290565b634e487b7160e01b600052602160045260246000fd5b600082611f4b57634e487b7160e01b600052601260045260246000fd5b50049056fea264697066735822122053477bd90e2f55eb492d317cffd1967983d3c85728e4d30c60f111ef93e8843c64736f6c63430008090033",
  "immutableReferences": {
    "1071": [
      {
        "length": 32,
        "start": 3600
      }
    ],
    "1943": [
      {
        "length": 32,
        "start": 5218
      }
    ],
    "1945": [
      {
        "length": 32,
        "start": 5176
      }
    ],
    "1947": [
      {
        "length": 32,
        "start": 5134
      }
    ],
    "1949": [
      {
        "length": 32,
        "start": 5301
      }
    ],
    "1951": [
      {
        "length": 32,
        "start": 5338
      }
    ],
    "1953": [
      {
        "length": 32,
        "start": 5259
      }
    ]
  },
  "source": "// SPDX-License-Identifier: GPL-3.0-or-later\n\npragma solidity ^0.8.9;\n\nimport \"../tokens/ERC20Custom.sol\";\n\ncontract MINE is ERC20Custom {\n    enum TokenOperation {\n        MINT,\n        TRANSFER\n    }\n\n    /**\n     * @dev Represents the Maximum Ownership percentage a wallet can hold MINE Token\n     *\n     * NOTE: At the moment, we will be using 3 decimals for the calculation\n     */\n    uint256 private _maximumOwnershipPercentage;\n\n    constructor(\n        address _multisigWallet,\n        uint256 _maximumOwnershipPercentageInput\n    )\n        ERC20Custom(\n            \"MINE Token\",\n            \"MINE\",\n            SafeMath.mul(2, 10**(10 + decimals())) // 20 Billion has 10 zeroes\n        )\n    {\n        _mint(_multisigWallet, SafeMath.mul(2, 10**(10 + decimals())));\n        _maximumOwnershipPercentage = _maximumOwnershipPercentageInput;\n    }\n\n    /**\n     * @dev Check whether the post operation balance is less than or equal to the\n     * maximum ownership percentage\n     */\n    modifier onlyRestrictedOwnership(\n        address to,\n        uint256 amount,\n        TokenOperation tokenOperation\n    ) {\n        uint256 ReceiverBalance = balanceOf(to);\n        // Don't need to check when first minting\n        if (totalSupply() != 0) {\n            uint256 tokenSupplyPostOperation = calculateTotalSupplyByTokenOperation(\n                    amount,\n                    tokenOperation\n                );\n            require(\n                SafeMath.add(amount, ReceiverBalance) <=\n                    // Divided by 100000 because it is using 3 decimals and represented as a percentage (2 decimals)\n                    SafeMath.div(\n                        SafeMath.mul(\n                            tokenSupplyPostOperation,\n                            _maximumOwnershipPercentage\n                        ),\n                        100000\n                    ),\n                \"MINE: End balance exceeding the maximum ownership percentage of total supply is prohibited!\"\n            );\n        }\n        _;\n    }\n\n    /**\n     * @dev Calculate the total supply of token post-operation (TRANSFER or MINT)\n     */\n    function calculateTotalSupplyByTokenOperation(\n        uint256 mintedAmount,\n        TokenOperation tokenOperation\n    ) internal view returns (uint256) {\n        if (tokenOperation == TokenOperation.MINT) {\n            return totalSupply() + mintedAmount;\n        } else {\n            return totalSupply();\n        }\n    }\n\n    /**\n     * @dev Return the Maximum Ownership Percentage of an address\n     */\n    function maxOwnership() public view returns (uint256) {\n        return _maximumOwnershipPercentage;\n    }\n\n    /**\n     * @dev Set the Maximum Ownership Percentage with new `_newMaxOwnershipPercentage` value,\n     * that can only be passed by the owner/admin of the contract\n     */\n    function setMaxOwnership(uint256 _newMaxOwnershipPercentage)\n        external\n        onlyOwner\n    {\n        require(\n            _newMaxOwnershipPercentage > 0 &&\n                _newMaxOwnershipPercentage <= 100000,\n            \"MINE: New Max Ownership Percentage must be larger than 0 or at most 100% (5 decimals)\"\n        );\n        _maximumOwnershipPercentage = _newMaxOwnershipPercentage;\n    }\n\n    /**\n     * @dev Minting `amount` number of new tokens to `to` address with\n     * `onLyRestrictedOwnership` modifier checks\n     */\n    function mint(address to, uint256 amount)\n        public\n        onlyOwner\n        onlyRestrictedOwnership(to, amount, TokenOperation.MINT)\n    {\n        _mint(to, amount);\n    }\n\n    function transfer(address to, uint256 amount)\n        public\n        override\n        onlyRestrictedOwnership(to, amount, TokenOperation.TRANSFER)\n        returns (bool)\n    {\n        return super.transfer(to, amount);\n    }\n\n    /**\n     * @dev Add `onlyRestrictedOwnership` modifier to check beforehand whether the total\n     * accumulation exceeds the maxiumum ownership percentage, represented by\n     * `_maxOwnership` variable\n     */\n    function _beforeTokenTransfer(\n        address from,\n        address to,\n        uint256 amount\n    ) internal override {\n        super._beforeTokenTransfer(from, to, amount);\n    }\n}\n",
  "sourcePath": "/home/yosephkurniasoenggoro/Documents/GitHub/miners-nations-smart-contracts/contracts/erc20/MINE.sol",
  "compiler": {
    "name": "solc",
    "version": "0.8.9+commit.e5eed63a.Emscripten.clang"
  },
  "schemaVersion": "3.4.3",
  "updatedAt": "2022-01-09T13:36:28.104Z",
  "devdoc": {
    "kind": "dev",
    "methods": {
      "DOMAIN_SEPARATOR()": {
        "details": "See {IERC20Permit-DOMAIN_SEPARATOR}."
      },
      "allowance(address,address)": {
        "details": "See {IERC20-allowance}."
      },
      "approve(address,uint256)": {
        "details": "See {IERC20-approve}. Requirements: - `spender` cannot be the zero address."
      },
      "balanceOf(address)": {
        "details": "See {IERC20-balanceOf}."
      },
      "burn(uint256)": {
        "details": "Destroys `amount` tokens from the caller. See {ERC20-_burn}."
      },
      "burnFrom(address,uint256)": {
        "details": "Destroys `amount` tokens from `account`, deducting from the caller's allowance. See {ERC20-_burn} and {ERC20-allowance}. Requirements: - the caller must have allowance for ``accounts``'s tokens of at least `amount`."
      },
      "cap()": {
        "details": "Returns the cap on the token's total supply."
      },
      "decimals()": {
        "details": "Returns the number of decimals used to get its user representation. For example, if `decimals` equals `2`, a balance of `505` tokens should be displayed to a user as `5.05` (`505 / 10 ** 2`). Tokens usually opt for a value of 18, imitating the relationship between Ether and Wei. This is the value {ERC20} uses, unless this function is overridden; NOTE: This information is only used for _display_ purposes: it in no way affects any of the arithmetic of the contract, including {IERC20-balanceOf} and {IERC20-transfer}."
      },
      "decreaseAllowance(address,uint256)": {
        "details": "Atomically decreases the allowance granted to `spender` by the caller. This is an alternative to {approve} that can be used as a mitigation for problems described in {IERC20-approve}. Emits an {Approval} event indicating the updated allowance. Requirements: - `spender` cannot be the zero address. - `spender` must have allowance for the caller of at least `subtractedValue`."
      },
      "decreaseCap(uint256)": {
        "details": "Decrease the cap supply"
      },
      "flashFee(address,uint256)": {
        "details": "Returns the fee applied when doing flash loans. By default this implementation has 0 fees. This function can be overloaded to make the flash loan mechanism deflationary.",
        "params": {
          "amount": "The amount of tokens to be loaned.",
          "token": "The token to be flash loaned."
        },
        "returns": {
          "_0": "The fees applied to the corresponding flash loan."
        }
      },
      "flashLoan(address,address,uint256,bytes)": {
        "details": "Performs a flash loan. New tokens are minted and sent to the `receiver`, who is required to implement the {IERC3156FlashBorrower} interface. By the end of the flash loan, the receiver is expected to own amount + fee tokens and have them approved back to the token contract itself so they can be burned.",
        "params": {
          "amount": "The amount of tokens to be loaned.",
          "data": "An arbitrary datafield that is passed to the receiver.",
          "receiver": "The receiver of the flash loan. Should implement the {IERC3156FlashBorrower.onFlashLoan} interface.",
          "token": "The token to be flash loaned. Only `address(this)` is supported."
        },
        "returns": {
          "_0": "`true` is the flash loan was successful."
        }
      },
      "increaseAllowance(address,uint256)": {
        "details": "Atomically increases the allowance granted to `spender` by the caller. This is an alternative to {approve} that can be used as a mitigation for problems described in {IERC20-approve}. Emits an {Approval} event indicating the updated allowance. Requirements: - `spender` cannot be the zero address."
      },
      "increaseCap(uint256)": {
        "details": "Increase the cap supply"
      },
      "maxFlashLoan(address)": {
        "details": "Returns the maximum amount of tokens available for loan.",
        "params": {
          "token": "The address of the token that is requested."
        },
        "returns": {
          "_0": "The amont of token that can be loaned."
        }
      },
      "maxOwnership()": {
        "details": "Return the Maximum Ownership Percentage of an address"
      },
      "mint(address,uint256)": {
        "details": "Minting `amount` number of new tokens to `to` address with `onLyRestrictedOwnership` modifier checks"
      },
      "name()": {
        "details": "Returns the name of the token."
      },
      "nonces(address)": {
        "details": "See {IERC20Permit-nonces}."
      },
      "owner()": {
        "details": "Returns the address of the current owner."
      },
      "permit(address,address,uint256,uint256,uint8,bytes32,bytes32)": {
        "details": "See {IERC20Permit-permit}."
      },
      "renounceOwnership()": {
        "details": "Leaves the contract without owner. It will not be possible to call `onlyOwner` functions anymore. Can only be called by the current owner. NOTE: Renouncing ownership will leave the contract without an owner, thereby removing any functionality that is only available to the owner."
      },
      "setCap(uint256)": {
        "details": "Set new cap supply"
      },
      "setMaxOwnership(uint256)": {
        "details": "Set the Maximum Ownership Percentage with new `_newMaxOwnershipPercentage` value, that can only be passed by the owner/admin of the contract"
      },
      "symbol()": {
        "details": "Returns the symbol of the token, usually a shorter version of the name."
      },
      "totalSupply()": {
        "details": "See {IERC20-totalSupply}."
      },
      "transferFrom(address,address,uint256)": {
        "details": "See {IERC20-transferFrom}. Emits an {Approval} event indicating the updated allowance. This is not required by the EIP. See the note at the beginning of {ERC20}. Requirements: - `sender` and `recipient` cannot be the zero address. - `sender` must have a balance of at least `amount`. - the caller must have allowance for ``sender``'s tokens of at least `amount`."
      },
      "transferOwnership(address)": {
        "details": "Transfers ownership of the contract to a new account (`newOwner`). Can only be called by the current owner."
      }
    },
    "stateVariables": {
      "_maximumOwnershipPercentage": {
        "details": "Represents the Maximum Ownership percentage a wallet can hold MINE Token NOTE: At the moment, we will be using 3 decimals for the calculation"
      }
    },
    "version": 1
  },
  "userdoc": {
    "kind": "user",
    "methods": {},
    "version": 1
  }
}