{
  "contractName": "MINE",
  "abi": [
    {
      "inputs": [
        {
          "internalType": "address",
          "name": "_multisigWallet",
          "type": "address"
        },
        {
          "internalType": "uint256",
          "name": "_maximumOwnershipPercentageInput",
          "type": "uint256"
        }
      ],
      "stateMutability": "nonpayable",
      "type": "constructor"
    },
    {
      "anonymous": false,
      "inputs": [
        {
          "indexed": true,
          "internalType": "address",
          "name": "owner",
          "type": "address"
        },
        {
          "indexed": true,
          "internalType": "address",
          "name": "spender",
          "type": "address"
        },
        {
          "indexed": false,
          "internalType": "uint256",
          "name": "value",
          "type": "uint256"
        }
      ],
      "name": "Approval",
      "type": "event"
    },
    {
      "anonymous": false,
      "inputs": [
        {
          "indexed": true,
          "internalType": "address",
          "name": "previousOwner",
          "type": "address"
        },
        {
          "indexed": true,
          "internalType": "address",
          "name": "newOwner",
          "type": "address"
        }
      ],
      "name": "OwnershipTransferred",
      "type": "event"
    },
    {
      "anonymous": false,
      "inputs": [
        {
          "indexed": true,
          "internalType": "address",
          "name": "from",
          "type": "address"
        },
        {
          "indexed": true,
          "internalType": "address",
          "name": "to",
          "type": "address"
        },
        {
          "indexed": false,
          "internalType": "uint256",
          "name": "value",
          "type": "uint256"
        }
      ],
      "name": "Transfer",
      "type": "event"
    },
    {
      "inputs": [],
      "name": "DOMAIN_SEPARATOR",
      "outputs": [
        {
          "internalType": "bytes32",
          "name": "",
          "type": "bytes32"
        }
      ],
      "stateMutability": "view",
      "type": "function"
    },
    {
      "inputs": [
        {
          "internalType": "address",
          "name": "owner",
          "type": "address"
        },
        {
          "internalType": "address",
          "name": "spender",
          "type": "address"
        }
      ],
      "name": "allowance",
      "outputs": [
        {
          "internalType": "uint256",
          "name": "",
          "type": "uint256"
        }
      ],
      "stateMutability": "view",
      "type": "function"
    },
    {
      "inputs": [
        {
          "internalType": "address",
          "name": "spender",
          "type": "address"
        },
        {
          "internalType": "uint256",
          "name": "amount",
          "type": "uint256"
        }
      ],
      "name": "approve",
      "outputs": [
        {
          "internalType": "bool",
          "name": "",
          "type": "bool"
        }
      ],
      "stateMutability": "nonpayable",
      "type": "function"
    },
    {
      "inputs": [
        {
          "internalType": "address",
          "name": "account",
          "type": "address"
        }
      ],
      "name": "balanceOf",
      "outputs": [
        {
          "internalType": "uint256",
          "name": "",
          "type": "uint256"
        }
      ],
      "stateMutability": "view",
      "type": "function"
    },
    {
      "inputs": [
        {
          "internalType": "uint256",
          "name": "amount",
          "type": "uint256"
        }
      ],
      "name": "burn",
      "outputs": [],
      "stateMutability": "nonpayable",
      "type": "function"
    },
    {
      "inputs": [
        {
          "internalType": "address",
          "name": "account",
          "type": "address"
        },
        {
          "internalType": "uint256",
          "name": "amount",
          "type": "uint256"
        }
      ],
      "name": "burnFrom",
      "outputs": [],
      "stateMutability": "nonpayable",
      "type": "function"
    },
    {
      "inputs": [],
      "name": "cap",
      "outputs": [
        {
          "internalType": "uint256",
          "name": "",
          "type": "uint256"
        }
      ],
      "stateMutability": "view",
      "type": "function"
    },
    {
      "inputs": [],
      "name": "decimals",
      "outputs": [
        {
          "internalType": "uint8",
          "name": "",
          "type": "uint8"
        }
      ],
      "stateMutability": "view",
      "type": "function"
    },
    {
      "inputs": [
        {
          "internalType": "address",
          "name": "spender",
          "type": "address"
        },
        {
          "internalType": "uint256",
          "name": "subtractedValue",
          "type": "uint256"
        }
      ],
      "name": "decreaseAllowance",
      "outputs": [
        {
          "internalType": "bool",
          "name": "",
          "type": "bool"
        }
      ],
      "stateMutability": "nonpayable",
      "type": "function"
    },
    {
      "inputs": [
        {
          "internalType": "uint256",
          "name": "_decreaseCap",
          "type": "uint256"
        }
      ],
      "name": "decreaseCap",
      "outputs": [],
      "stateMutability": "nonpayable",
      "type": "function"
    },
    {
      "inputs": [
        {
          "internalType": "address",
          "name": "token",
          "type": "address"
        },
        {
          "internalType": "uint256",
          "name": "amount",
          "type": "uint256"
        }
      ],
      "name": "flashFee",
      "outputs": [
        {
          "internalType": "uint256",
          "name": "",
          "type": "uint256"
        }
      ],
      "stateMutability": "view",
      "type": "function"
    },
    {
      "inputs": [
        {
          "internalType": "contract IERC3156FlashBorrower",
          "name": "receiver",
          "type": "address"
        },
        {
          "internalType": "address",
          "name": "token",
          "type": "address"
        },
        {
          "internalType": "uint256",
          "name": "amount",
          "type": "uint256"
        },
        {
          "internalType": "bytes",
          "name": "data",
          "type": "bytes"
        }
      ],
      "name": "flashLoan",
      "outputs": [
        {
          "internalType": "bool",
          "name": "",
          "type": "bool"
        }
      ],
      "stateMutability": "nonpayable",
      "type": "function"
    },
    {
      "inputs": [
        {
          "internalType": "address",
          "name": "spender",
          "type": "address"
        },
        {
          "internalType": "uint256",
          "name": "addedValue",
          "type": "uint256"
        }
      ],
      "name": "increaseAllowance",
      "outputs": [
        {
          "internalType": "bool",
          "name": "",
          "type": "bool"
        }
      ],
      "stateMutability": "nonpayable",
      "type": "function"
    },
    {
      "inputs": [
        {
          "internalType": "uint256",
          "name": "_increaseCap",
          "type": "uint256"
        }
      ],
      "name": "increaseCap",
      "outputs": [],
      "stateMutability": "nonpayable",
      "type": "function"
    },
    {
      "inputs": [
        {
          "internalType": "address",
          "name": "token",
          "type": "address"
        }
      ],
      "name": "maxFlashLoan",
      "outputs": [
        {
          "internalType": "uint256",
          "name": "",
          "type": "uint256"
        }
      ],
      "stateMutability": "view",
      "type": "function"
    },
    {
      "inputs": [],
      "name": "name",
      "outputs": [
        {
          "internalType": "string",
          "name": "",
          "type": "string"
        }
      ],
      "stateMutability": "view",
      "type": "function"
    },
    {
      "inputs": [
        {
          "internalType": "address",
          "name": "owner",
          "type": "address"
        }
      ],
      "name": "nonces",
      "outputs": [
        {
          "internalType": "uint256",
          "name": "",
          "type": "uint256"
        }
      ],
      "stateMutability": "view",
      "type": "function"
    },
    {
      "inputs": [],
      "name": "owner",
      "outputs": [
        {
          "internalType": "address",
          "name": "",
          "type": "address"
        }
      ],
      "stateMutability": "view",
      "type": "function"
    },
    {
      "inputs": [
        {
          "internalType": "address",
          "name": "owner",
          "type": "address"
        },
        {
          "internalType": "address",
          "name": "spender",
          "type": "address"
        },
        {
          "internalType": "uint256",
          "name": "value",
          "type": "uint256"
        },
        {
          "internalType": "uint256",
          "name": "deadline",
          "type": "uint256"
        },
        {
          "internalType": "uint8",
          "name": "v",
          "type": "uint8"
        },
        {
          "internalType": "bytes32",
          "name": "r",
          "type": "bytes32"
        },
        {
          "internalType": "bytes32",
          "name": "s",
          "type": "bytes32"
        }
      ],
      "name": "permit",
      "outputs": [],
      "stateMutability": "nonpayable",
      "type": "function"
    },
    {
      "inputs": [],
      "name": "renounceOwnership",
      "outputs": [],
      "stateMutability": "nonpayable",
      "type": "function"
    },
    {
      "inputs": [
        {
          "internalType": "uint256",
          "name": "_newCap",
          "type": "uint256"
        }
      ],
      "name": "setCap",
      "outputs": [],
      "stateMutability": "nonpayable",
      "type": "function"
    },
    {
      "inputs": [],
      "name": "symbol",
      "outputs": [
        {
          "internalType": "string",
          "name": "",
          "type": "string"
        }
      ],
      "stateMutability": "view",
      "type": "function"
    },
    {
      "inputs": [],
      "name": "totalSupply",
      "outputs": [
        {
          "internalType": "uint256",
          "name": "",
          "type": "uint256"
        }
      ],
      "stateMutability": "view",
      "type": "function"
    },
    {
      "inputs": [
        {
          "internalType": "address",
          "name": "sender",
          "type": "address"
        },
        {
          "internalType": "address",
          "name": "recipient",
          "type": "address"
        },
        {
          "internalType": "uint256",
          "name": "amount",
          "type": "uint256"
        }
      ],
      "name": "transferFrom",
      "outputs": [
        {
          "internalType": "bool",
          "name": "",
          "type": "bool"
        }
      ],
      "stateMutability": "nonpayable",
      "type": "function"
    },
    {
      "inputs": [
        {
          "internalType": "address",
          "name": "newOwner",
          "type": "address"
        }
      ],
      "name": "transferOwnership",
      "outputs": [],
      "stateMutability": "nonpayable",
      "type": "function"
    },
    {
      "inputs": [],
      "name": "maxOwnership",
      "outputs": [
        {
          "internalType": "uint256",
          "name": "",
          "type": "uint256"
        }
      ],
      "stateMutability": "view",
      "type": "function"
    },
    {
      "inputs": [
        {
          "internalType": "uint256",
          "name": "_newMaxOwnershipPercentage",
          "type": "uint256"
        }
      ],
      "name": "setMaxOwnership",
      "outputs": [],
      "stateMutability": "nonpayable",
      "type": "function"
    },
    {
      "inputs": [
        {
          "internalType": "uint256",
          "name": "_increaseMaxOwnershipPercentage",
          "type": "uint256"
        }
      ],
      "name": "increaseMaxOwnership",
      "outputs": [],
      "stateMutability": "nonpayable",
      "type": "function"
    },
    {
      "inputs": [
        {
          "internalType": "uint256",
          "name": "_decreaseMaxOwnershipPercentage",
          "type": "uint256"
        }
      ],
      "name": "decreaseMaxOwnership",
      "outputs": [],
      "stateMutability": "nonpayable",
      "type": "function"
    },
    {
      "inputs": [
        {
          "internalType": "address",
          "name": "to",
          "type": "address"
        },
        {
          "internalType": "uint256",
          "name": "amount",
          "type": "uint256"
        }
      ],
      "name": "mint",
      "outputs": [],
      "stateMutability": "nonpayable",
      "type": "function"
    },
    {
      "inputs": [
        {
          "internalType": "address",
          "name": "to",
          "type": "address"
        },
        {
          "internalType": "uint256",
          "name": "amount",
          "type": "uint256"
        }
      ],
      "name": "transfer",
      "outputs": [
        {
          "internalType": "bool",
          "name": "",
          "type": "bool"
        }
      ],
      "stateMutability": "nonpayable",
      "type": "function"
    }
  ],
  "bytecode": "0x6101606040527f6e71edae12b1b97f4d1f60370fef10105fa2faae0126114a169c64845d6126c9610140523480156200003757600080fd5b50604051620028a8380380620028a88339810160408190526200005a9162000513565b6040518060400160405280600a81526020016926a4a722902a37b5b2b760b11b815250604051806040016040528060048152602001634d494e4560e01b815250620000db6002620000b06200025060201b60201c565b620000bd90600a62000565565b620000ca90600a6200068a565b6200025560201b620011cd1760201c565b8180604051806040016040528060018152602001603160f81b81525085858160039080519060200190620001119291906200046d565b508051620001279060049060208401906200046d565b505050620001446200013e6200026c60201b60201c565b62000270565b815160209283012081519183019190912060e08290526101008190524660a0818152604080517f8b73c3c69bb8fe3d512ecc4cf759cc79239f7b179b0ffacaa9a75d522b39400f818801819052818301969096526060810194909452608080850193909352308483018190528151808603909301835260c094850190915281519190950120905291909152610120525080620002275760405162461bcd60e51b815260206004820152601560248201527f45524332304361707065643a206361702069732030000000000000000000000060448201526064015b60405180910390fd5b60075550620002469050826200024060026012620000b0565b620002c2565b6008555062000715565b601290565b60006200026382846200069b565b90505b92915050565b3390565b600580546001600160a01b038381166001600160a01b0319831681179093556040519116919082907f8be0079c531659141344cd1fd0a4f28419497f9722a3daafe3b4186f6b6457e090600090a35050565b60075481620002db6200035260201b620005051760201c565b620002e79190620006bd565b1115620003375760405162461bcd60e51b815260206004820152601960248201527f45524332304361707065643a206361702065786365656465640000000000000060448201526064016200021e565b6200034e82826200035860201b620011e01760201c565b5050565b60025490565b6001600160a01b038216620003b05760405162461bcd60e51b815260206004820152601f60248201527f45524332303a206d696e7420746f20746865207a65726f20616464726573730060448201526064016200021e565b620003be6000838362000450565b8060026000828254620003d29190620006bd565b90915550506001600160a01b0382166000908152602081905260408120805483929062000401908490620006bd565b90915550506040518181526001600160a01b038316906000907fddf252ad1be2c89b69c2b068fc378daa952ba7f163c4a11628f55a4df523b3ef9060200160405180910390a36200034e600083835b620004688383836200046860201b62000c9a1760201c565b505050565b8280546200047b90620006d8565b90600052602060002090601f0160209004810192826200049f5760008555620004ea565b82601f10620004ba57805160ff1916838001178555620004ea565b82800160010185558215620004ea579182015b82811115620004ea578251825591602001919060010190620004cd565b50620004f8929150620004fc565b5090565b5b80821115620004f85760008155600101620004fd565b600080604083850312156200052757600080fd5b82516001600160a01b03811681146200053f57600080fd5b6020939093015192949293505050565b634e487b7160e01b600052601160045260246000fd5b600060ff821660ff84168060ff038211156200058557620005856200054f565b019392505050565b600181815b80851115620005ce578160001904821115620005b257620005b26200054f565b80851615620005c057918102915b93841c939080029062000592565b509250929050565b600082620005e75750600162000266565b81620005f65750600062000266565b81600181146200060f57600281146200061a576200063a565b600191505062000266565b60ff8411156200062e576200062e6200054f565b50506001821b62000266565b5060208310610133831016604e8410600b84101617156200065f575081810a62000266565b6200066b83836200058d565b80600019048211156200068257620006826200054f565b029392505050565b60006200026360ff841683620005d6565b6000816000190483118215151615620006b857620006b86200054f565b500290565b60008219821115620006d357620006d36200054f565b500190565b600181811c90821680620006ed57607f821691505b602082108114156200070f57634e487b7160e01b600052602260045260246000fd5b50919050565b60805160a05160c05160e051610100516101205161014051612138620007706000396000610f840152600061163d0152600061168c01526000611667015260006115c0015260006115ea0152600061161401526121386000f3fe608060405234801561001057600080fd5b50600436106101e55760003560e01c8063613255ab1161010f57806395d89b41116100a2578063d9d98ce411610071578063d9d98ce4146103ea578063dd62ed3e146103fd578063e9b65b3c14610436578063f2fde38b1461044957600080fd5b806395d89b41146103a9578063a457c2d7146103b1578063a9059cbb146103c4578063d505accf146103d757600080fd5b806379cc6790116100de57806379cc6790146103555780637ecebe00146103685780638da5cb5b1461037b578063932b01f61461039657600080fd5b8063613255ab146102fe57806370a0823114610311578063715018a61461033a5780637430a6891461034257600080fd5b80633644e5151161018757806342966c681161015657806342966c68146102b257806347786d37146102c5578063523e9551146102d85780635cffe9de146102eb57600080fd5b80633644e5151461027c5780633950935114610284578063395a221e1461029757806340c10f191461029f57600080fd5b806323b872dd116101c357806323b872dd1461023d57806324bf3c2b14610250578063313ce56714610265578063355274ea1461027457600080fd5b806306fdde03146101ea578063095ea7b31461020857806318160ddd1461022b575b600080fd5b6101f261045c565b6040516101ff9190611ca8565b60405180910390f35b61021b610216366004611d12565b6104ee565b60405190151581526020016101ff565b6002545b6040519081526020016101ff565b61021b61024b366004611d3e565b61050b565b61026361025e366004611d7f565b6105ba565b005b604051601281526020016101ff565b60075461022f565b61022f61068c565b61021b610292366004611d12565b61069b565b60085461022f565b6102636102ad366004611d12565b6106d7565b6102636102c0366004611d7f565b610797565b6102636102d3366004611d7f565b6107a4565b6102636102e6366004611d7f565b610856565b61021b6102f9366004611d98565b610907565b61022f61030c366004611e37565b610af3565b61022f61031f366004611e37565b6001600160a01b031660009081526020819052604090205490565b610263610b1b565b610263610350366004611d7f565b610b51565b610263610363366004611d12565b610c19565b61022f610376366004611e37565b610c9f565b6005546040516001600160a01b0390911681526020016101ff565b6102636103a4366004611d7f565b610cbd565b6101f2610df5565b61021b6103bf366004611d12565b610e04565b61021b6103d2366004611d12565b610e9d565b6102636103e5366004611e54565b610f30565b61022f6103f8366004611d12565b611094565b61022f61040b366004611ecb565b6001600160a01b03918216600090815260016020908152604080832093909416825291909152205490565b610263610444366004611d7f565b6110f7565b610263610457366004611e37565b611135565b60606003805461046b90611f04565b80601f016020809104026020016040519081016040528092919081815260200182805461049790611f04565b80156104e45780601f106104b9576101008083540402835291602001916104e4565b820191906000526020600020905b8154815290600101906020018083116104c757829003601f168201915b5050505050905090565b60006104fb3384846112c0565b5060015b92915050565b60025490565b60006105188484846113e4565b6001600160a01b0384166000908152600160209081526040808320338452909152902054828110156105a25760405162461bcd60e51b815260206004820152602860248201527f45524332303a207472616e7366657220616d6f756e74206578636565647320616044820152676c6c6f77616e636560c01b60648201526084015b60405180910390fd5b6105af85338584036112c0565b506001949350505050565b6005546001600160a01b031633146105e45760405162461bcd60e51b815260040161059990611f39565b6000811180156105f75750620186a08111155b6106875760405162461bcd60e51b815260206004820152605560248201527f4d494e453a204e6577204d6178204f776e6572736869702050657263656e746160448201527f6765206d757374206265206c6172676572207468616e2030206f72206174206d6064820152746f7374203130302520283520646563696d616c732960581b608482015260a401610599565b600855565b60006106966115b3565b905090565b3360008181526001602090815260408083206001600160a01b038716845290915281205490916104fb9185906106d2908690611f84565b6112c0565b6005546001600160a01b031633146107015760405162461bcd60e51b815260040161059990611f39565b8181600080610725846001600160a01b031660009081526020819052604090205490565b905061073060025490565b1561078557600061074184846116da565b905061075b610752826008546111cd565b620186a0611718565b6107658584611724565b11156107835760405162461bcd60e51b815260040161059990611f9c565b505b61078f8686611730565b505050505050565b6107a1338261179f565b50565b6005546001600160a01b031633146107ce5760405162461bcd60e51b815260040161059990611f39565b60025481116108515760405162461bcd60e51b815260206004820152604360248201527f4552433230437573746f6d3a204e6577206361702073657420746f206265206c60448201527f6f776572207468616e206f7220657175616c20746f20746f74616c20737570706064820152626c792160e81b608482015260a401610599565b600755565b6005546001600160a01b031633146108805760405162461bcd60e51b815260040161059990611f39565b600081116108ef5760405162461bcd60e51b815260206004820152603660248201527f4552433230437573746f6d3a20496e637265617365204361702076616c756520604482015275686173206e6f6e2d76616c696420302076616c75652160501b6064820152608401610599565b6109016108fb60075490565b82611724565b60075550565b6000806109148686611094565b90506109208786611730565b6040516323e30c8b60e01b81527f439148f0bbc682ca079e46d6e2c2f0c1e3b820f1a291b069d8882abf8cf18dd9906001600160a01b038916906323e30c8b906109789033908b908b9088908c908c9060040161201f565b602060405180830381600087803b15801561099257600080fd5b505af11580156109a6573d6000803e3d6000fd5b505050506040513d601f19601f820116820180604052508101906109ca919061207b565b14610a235760405162461bcd60e51b8152602060048201526024808201527f4552433230466c6173684d696e743a20696e76616c69642072657475726e2076604482015263616c756560e01b6064820152608401610599565b6001600160a01b0387166000908152600160209081526040808320308452909152902054610a518287611f84565b811015610ab85760405162461bcd60e51b815260206004820152602f60248201527f4552433230466c6173684d696e743a20616c6c6f77616e636520646f6573206e60448201526e1bdd08185b1b1bddc81c99599d5b99608a1b6064820152608401610599565b610ad2883084610ac88a86612094565b6106d29190612094565b610ae588610ae08489611f84565b61179f565b506001979650505050505050565b60006001600160a01b0382163014610b0c5760006104ff565b6002546104ff90600019612094565b6005546001600160a01b03163314610b455760405162461bcd60e51b815260040161059990611f39565b610b4f60006117a9565b565b6005546001600160a01b03163314610b7b5760405162461bcd60e51b815260040161059990611f39565b600081118015610b9e5750610b9a610b9260075490565b6002546117fb565b8111155b610c075760405162461bcd60e51b815260206004820152603460248201527f4552433230437573746f6d3a204465637265617365204361702076616c756520604482015273686173206e6f6e2d76616c69642076616c75652160601b6064820152608401610599565b610901610c1360075490565b826117fb565b6000610c25833361040b565b905081811015610c835760405162461bcd60e51b8152602060048201526024808201527f45524332303a206275726e20616d6f756e74206578636565647320616c6c6f77604482015263616e636560e01b6064820152608401610599565b610c9083338484036112c0565b610c9a838361179f565b505050565b6001600160a01b0381166000908152600660205260408120546104ff565b6005546001600160a01b03163314610ce75760405162461bcd60e51b815260040161059990611f39565b6008548110610cf557600080fd5b6000610d09610d0360085490565b836117fb565b9050600082118015610d1e5750620186a08111155b610def5760405162461bcd60e51b815260206004820152608a60248201527f4d494e453a20496e63726561736564204d6178204f776e65727368697020506560448201527f7263656e74616765206d757374206265206c6172676572207468616e2030206f60648201527f72207468652073756d2077697468207468652063757272656e74204d6178204f60848201527f776e657273686970206d757374206265206174206d6f7374203130302520283560a48201526920646563696d616c732960b01b60c482015260e401610599565b60085550565b60606004805461046b90611f04565b3360009081526001602090815260408083206001600160a01b038616845290915281205482811015610e865760405162461bcd60e51b815260206004820152602560248201527f45524332303a2064656372656173656420616c6c6f77616e63652062656c6f77604482015264207a65726f60d81b6064820152608401610599565b610e9333858584036112c0565b5060019392505050565b6000828260016000610ec4846001600160a01b031660009081526020819052604090205490565b9050610ecf60025490565b15610f1b576000610ee084846116da565b9050610ef1610752826008546111cd565b610efb8584611724565b1115610f195760405162461bcd60e51b815260040161059990611f9c565b505b610f258787611807565b979650505050505050565b83421115610f805760405162461bcd60e51b815260206004820152601d60248201527f45524332305065726d69743a206578706972656420646561646c696e650000006044820152606401610599565b60007f0000000000000000000000000000000000000000000000000000000000000000888888610faf8c611814565b6040805160208101969096526001600160a01b0394851690860152929091166060840152608083015260a082015260c0810186905260e001604051602081830303815290604052805190602001209050600061100a8261183c565b9050600061101a8287878761188a565b9050896001600160a01b0316816001600160a01b03161461107d5760405162461bcd60e51b815260206004820152601e60248201527f45524332305065726d69743a20696e76616c6964207369676e617475726500006044820152606401610599565b6110888a8a8a6112c0565b50505050505050505050565b60006001600160a01b03831630146110ee5760405162461bcd60e51b815260206004820152601b60248201527f4552433230466c6173684d696e743a2077726f6e6720746f6b656e00000000006044820152606401610599565b50600092915050565b6005546001600160a01b031633146111215760405162461bcd60e51b815260040161059990611f39565b6000610d0961112f60085490565b83611724565b6005546001600160a01b0316331461115f5760405162461bcd60e51b815260040161059990611f39565b6001600160a01b0381166111c45760405162461bcd60e51b815260206004820152602660248201527f4f776e61626c653a206e6577206f776e657220697320746865207a65726f206160448201526564647265737360d01b6064820152608401610599565b6107a1816117a9565b60006111d982846120ab565b9392505050565b6001600160a01b0382166112365760405162461bcd60e51b815260206004820152601f60248201527f45524332303a206d696e7420746f20746865207a65726f2061646472657373006044820152606401610599565b80600260008282546112489190611f84565b90915550506001600160a01b03821660009081526020819052604081208054839290611275908490611f84565b90915550506040518181526001600160a01b038316906000907fddf252ad1be2c89b69c2b068fc378daa952ba7f163c4a11628f55a4df523b3ef9060200160405180910390a35b5050565b6001600160a01b0383166113225760405162461bcd60e51b8152602060048201526024808201527f45524332303a20617070726f76652066726f6d20746865207a65726f206164646044820152637265737360e01b6064820152608401610599565b6001600160a01b0382166113835760405162461bcd60e51b815260206004820152602260248201527f45524332303a20617070726f766520746f20746865207a65726f206164647265604482015261737360f01b6064820152608401610599565b6001600160a01b0383811660008181526001602090815260408083209487168084529482529182902085905590518481527f8c5be1e5ebec7d5bd14f71427d1e84f3dd0314c0f7b2291e5b200ac8c7c3b925910160405180910390a3505050565b6001600160a01b0383166114485760405162461bcd60e51b815260206004820152602560248201527f45524332303a207472616e736665722066726f6d20746865207a65726f206164604482015264647265737360d81b6064820152608401610599565b6001600160a01b0382166114aa5760405162461bcd60e51b815260206004820152602360248201527f45524332303a207472616e7366657220746f20746865207a65726f206164647260448201526265737360e81b6064820152608401610599565b6001600160a01b038316600090815260208190526040902054818110156115225760405162461bcd60e51b815260206004820152602660248201527f45524332303a207472616e7366657220616d6f756e7420657863656564732062604482015265616c616e636560d01b6064820152608401610599565b6001600160a01b03808516600090815260208190526040808220858503905591851681529081208054849290611559908490611f84565b92505081905550826001600160a01b0316846001600160a01b03167fddf252ad1be2c89b69c2b068fc378daa952ba7f163c4a11628f55a4df523b3ef846040516115a591815260200190565b60405180910390a350505050565b6000306001600160a01b037f00000000000000000000000000000000000000000000000000000000000000001614801561160c57507f000000000000000000000000000000000000000000000000000000000000000046145b1561163657507f000000000000000000000000000000000000000000000000000000000000000090565b50604080517f00000000000000000000000000000000000000000000000000000000000000006020808301919091527f0000000000000000000000000000000000000000000000000000000000000000828401527f000000000000000000000000000000000000000000000000000000000000000060608301524660808301523060a0808401919091528351808403909101815260c0909201909252805191012090565b6000808260018111156116ef576116ef6120ca565b141561171057826116ff60025490565b6117099190611f84565b90506104ff565b600254611709565b60006111d982846120e0565b60006111d98284611f84565b6007548161173d60025490565b6117479190611f84565b11156117955760405162461bcd60e51b815260206004820152601960248201527f45524332304361707065643a20636170206578636565646564000000000000006044820152606401610599565b6112bc82826111e0565b6112bc82826118b2565b600580546001600160a01b038381166001600160a01b0319831681179093556040519116919082907f8be0079c531659141344cd1fd0a4f28419497f9722a3daafe3b4186f6b6457e090600090a35050565b60006111d98284612094565b60006104fb3384846113e4565b6001600160a01b03811660009081526006602052604090208054600181018255905b50919050565b60006104ff6118496115b3565b8360405161190160f01b6020820152602281018390526042810182905260009060620160405160208183030381529060405280519060200120905092915050565b600080600061189b87878787611a00565b915091506118a881611aed565b5095945050505050565b6001600160a01b0382166119125760405162461bcd60e51b815260206004820152602160248201527f45524332303a206275726e2066726f6d20746865207a65726f206164647265736044820152607360f81b6064820152608401610599565b6001600160a01b038216600090815260208190526040902054818110156119865760405162461bcd60e51b815260206004820152602260248201527f45524332303a206275726e20616d6f756e7420657863656564732062616c616e604482015261636560f01b6064820152608401610599565b6001600160a01b03831660009081526020819052604081208383039055600280548492906119b5908490612094565b90915550506040518281526000906001600160a01b038516907fddf252ad1be2c89b69c2b068fc378daa952ba7f163c4a11628f55a4df523b3ef9060200160405180910390a3505050565b6000807f7fffffffffffffffffffffffffffffff5d576e7357a4501ddfe92f46681b20a0831115611a375750600090506003611ae4565b8460ff16601b14158015611a4f57508460ff16601c14155b15611a605750600090506004611ae4565b6040805160008082526020820180845289905260ff881692820192909252606081018690526080810185905260019060a0016020604051602081039080840390855afa158015611ab4573d6000803e3d6000fd5b5050604051601f1901519150506001600160a01b038116611add57600060019250925050611ae4565b9150600090505b94509492505050565b6000816004811115611b0157611b016120ca565b1415611b0a5750565b6001816004811115611b1e57611b1e6120ca565b1415611b6c5760405162461bcd60e51b815260206004820152601860248201527f45434453413a20696e76616c6964207369676e617475726500000000000000006044820152606401610599565b6002816004811115611b8057611b806120ca565b1415611bce5760405162461bcd60e51b815260206004820152601f60248201527f45434453413a20696e76616c6964207369676e6174757265206c656e677468006044820152606401610599565b6003816004811115611be257611be26120ca565b1415611c3b5760405162461bcd60e51b815260206004820152602260248201527f45434453413a20696e76616c6964207369676e6174757265202773272076616c604482015261756560f01b6064820152608401610599565b6004816004811115611c4f57611c4f6120ca565b14156107a15760405162461bcd60e51b815260206004820152602260248201527f45434453413a20696e76616c6964207369676e6174757265202776272076616c604482015261756560f01b6064820152608401610599565b600060208083528351808285015260005b81811015611cd557858101830151858201604001528201611cb9565b81811115611ce7576000604083870101525b50601f01601f1916929092016040019392505050565b6001600160a01b03811681146107a157600080fd5b60008060408385031215611d2557600080fd5b8235611d3081611cfd565b946020939093013593505050565b600080600060608486031215611d5357600080fd5b8335611d5e81611cfd565b92506020840135611d6e81611cfd565b929592945050506040919091013590565b600060208284031215611d9157600080fd5b5035919050565b600080600080600060808688031215611db057600080fd5b8535611dbb81611cfd565b94506020860135611dcb81611cfd565b935060408601359250606086013567ffffffffffffffff80821115611def57600080fd5b818801915088601f830112611e0357600080fd5b813581811115611e1257600080fd5b896020828501011115611e2457600080fd5b9699959850939650602001949392505050565b600060208284031215611e4957600080fd5b81356111d981611cfd565b600080600080600080600060e0888a031215611e6f57600080fd5b8735611e7a81611cfd565b96506020880135611e8a81611cfd565b95506040880135945060608801359350608088013560ff81168114611eae57600080fd5b9699959850939692959460a0840135945060c09093013592915050565b60008060408385031215611ede57600080fd5b8235611ee981611cfd565b91506020830135611ef981611cfd565b809150509250929050565b600181811c90821680611f1857607f821691505b6020821081141561183657634e487b7160e01b600052602260045260246000fd5b6020808252818101527f4f776e61626c653a2063616c6c6572206973206e6f7420746865206f776e6572604082015260600190565b634e487b7160e01b600052601160045260246000fd5b60008219821115611f9757611f97611f6e565b500190565b6020808252605b908201527f4d494e453a20456e642062616c616e636520657863656564696e67207468652060408201527f6d6178696d756d206f776e6572736869702070657263656e74616765206f662060608201527f746f74616c20737570706c792069732070726f68696269746564210000000000608082015260a00190565b6001600160a01b03878116825286166020820152604081018590526060810184905260a06080820181905281018290526000828460c0840137600060c0848401015260c0601f19601f8501168301019050979650505050505050565b60006020828403121561208d57600080fd5b5051919050565b6000828210156120a6576120a6611f6e565b500390565b60008160001904831182151516156120c5576120c5611f6e565b500290565b634e487b7160e01b600052602160045260246000fd5b6000826120fd57634e487b7160e01b600052601260045260246000fd5b50049056fea26469706673582212201b4a81e310a593dd997dac3ec22cea080e33208fdbf862ec02e516ab9cd1de8c64736f6c63430008090033",
  "immutableReferences": {
    "1071": [
      {
        "length": 32,
        "start": 3972
      }
    ],
    "1943": [
      {
        "length": 32,
        "start": 5652
      }
    ],
    "1945": [
      {
        "length": 32,
        "start": 5610
      }
    ],
    "1947": [
      {
        "length": 32,
        "start": 5568
      }
    ],
    "1949": [
      {
        "length": 32,
        "start": 5735
      }
    ],
    "1951": [
      {
        "length": 32,
        "start": 5772
      }
    ],
    "1953": [
      {
        "length": 32,
        "start": 5693
      }
    ]
  },
  "source": "// SPDX-License-Identifier: GPL-3.0-or-later\n\npragma solidity ^0.8.9;\n\nimport \"../tokens/ERC20Custom.sol\";\n\ncontract MINE is ERC20Custom {\n    enum TokenOperation {\n        MINT,\n        TRANSFER\n    }\n\n    /**\n     * @dev Represents the Maximum Ownership percentage a wallet can hold MINE Token\n     *\n     * NOTE: At the moment, we will be using 3 decimals for the calculation\n     */\n    uint256 private _maximumOwnershipPercentage;\n\n    constructor(\n        address _multisigWallet,\n        uint256 _maximumOwnershipPercentageInput\n    )\n        ERC20Custom(\n            \"MINE Token\",\n            \"MINE\",\n            SafeMath.mul(2, 10**(10 + decimals())) // 20 Billion has 10 zeroes\n        )\n    {\n        _mint(_multisigWallet, SafeMath.mul(2, 10**(10 + decimals())));\n        _maximumOwnershipPercentage = _maximumOwnershipPercentageInput;\n    }\n\n    /**\n     * @dev Check whether the post operation balance is less than or equal to the\n     * maximum ownership percentage\n     */\n    modifier onlyRestrictedOwnership(\n        address to,\n        uint256 amount,\n        TokenOperation tokenOperation\n    ) {\n        uint256 ReceiverBalance = balanceOf(to);\n        // Don't need to check when first minting\n        if (totalSupply() != 0) {\n            uint256 tokenSupplyPostOperation = calculateTotalSupplyByTokenOperation(\n                    amount,\n                    tokenOperation\n                );\n            require(\n                SafeMath.add(amount, ReceiverBalance) <=\n                    // Divided by 100000 because it is using 3 decimals and represented as a percentage (2 decimals)\n                    SafeMath.div(\n                        SafeMath.mul(\n                            tokenSupplyPostOperation,\n                            _maximumOwnershipPercentage\n                        ),\n                        100000\n                    ),\n                \"MINE: End balance exceeding the maximum ownership percentage of total supply is prohibited!\"\n            );\n        }\n        _;\n    }\n\n    /**\n     * @dev Calculate the total supply of token post-operation (TRANSFER or MINT)\n     */\n    function calculateTotalSupplyByTokenOperation(\n        uint256 mintedAmount,\n        TokenOperation tokenOperation\n    ) internal view returns (uint256) {\n        if (tokenOperation == TokenOperation.MINT) {\n            return totalSupply() + mintedAmount;\n        } else {\n            return totalSupply();\n        }\n    }\n\n    /**\n     * @dev Return the Maximum Ownership Percentage of an address\n     */\n    function maxOwnership() public view returns (uint256) {\n        return _maximumOwnershipPercentage;\n    }\n\n    /**\n     * @dev Set the Maximum Ownership Percentage with new `_newMaxOwnershipPercentage` value,\n     * that can only be passed by the owner/admin of the contract\n     */\n    function setMaxOwnership(uint256 _newMaxOwnershipPercentage)\n        external\n        onlyOwner\n    {\n        require(\n            _newMaxOwnershipPercentage > 0 &&\n                _newMaxOwnershipPercentage <= 100000,\n            \"MINE: New Max Ownership Percentage must be larger than 0 or at most 100% (5 decimals)\"\n        );\n        _maximumOwnershipPercentage = _newMaxOwnershipPercentage;\n    }\n\n    /**\n     * @dev Increase the Maximum Ownership Percentage with new `_increaseMaxOwnershipPercentage` value,\n     * that can only be passed by the owner/admin of the contract\n     */\n    function increaseMaxOwnership(uint256 _increaseMaxOwnershipPercentage)\n        external\n        onlyOwner\n    {\n        uint256 _newMaxOwnershipPercentage = SafeMath.add(\n            maxOwnership(),\n            _increaseMaxOwnershipPercentage\n        );\n        require(\n            _increaseMaxOwnershipPercentage > 0 &&\n                (_newMaxOwnershipPercentage <= 100000),\n            \"MINE: Increased Max Ownership Percentage must be larger than 0 or the sum with the current Max Ownership must be at most 100% (5 decimals)\"\n        );\n        _maximumOwnershipPercentage = _newMaxOwnershipPercentage;\n    }\n\n    /**\n     * @dev Decrease the Maximum Ownership Percentage with new `_decreaseMaxOwnershipPercentage` value,\n     * that can only be passed by the owner/admin of the contract\n     */\n    function decreaseMaxOwnership(uint256 _decreaseMaxOwnershipPercentage)\n        external\n        onlyOwner\n    {\n        // Max Ownership can't be 0! So only less than (no equal to)\n        require(_decreaseMaxOwnershipPercentage < maxOwnership());\n        uint256 _newMaxOwnershipPercentage = SafeMath.sub(\n            maxOwnership(),\n            _decreaseMaxOwnershipPercentage\n        );\n        require(\n            _decreaseMaxOwnershipPercentage > 0 &&\n                (_newMaxOwnershipPercentage <= 100000),\n            \"MINE: Increased Max Ownership Percentage must be larger than 0 or the sum with the current Max Ownership must be at most 100% (5 decimals)\"\n        );\n        _maximumOwnershipPercentage = _newMaxOwnershipPercentage;\n    }\n\n    /**\n     * @dev Minting `amount` number of new tokens to `to` address with\n     * `onLyRestrictedOwnership` modifier checks\n     */\n    function mint(address to, uint256 amount)\n        public\n        onlyOwner\n        onlyRestrictedOwnership(to, amount, TokenOperation.MINT)\n    {\n        _mint(to, amount);\n    }\n\n    function transfer(address to, uint256 amount)\n        public\n        override\n        onlyRestrictedOwnership(to, amount, TokenOperation.TRANSFER)\n        returns (bool)\n    {\n        return super.transfer(to, amount);\n    }\n\n    /**\n     * @dev Add `onlyRestrictedOwnership` modifier to check beforehand whether the total\n     * accumulation exceeds the maxiumum ownership percentage, represented by\n     * `_maxOwnership` variable\n     */\n    function _beforeTokenTransfer(\n        address from,\n        address to,\n        uint256 amount\n    ) internal override {\n        super._beforeTokenTransfer(from, to, amount);\n    }\n}\n",
  "sourcePath": "/home/yosephkurniasoenggoro/Documents/GitHub/miners-nations-smart-contracts/contracts/erc20/MINE.sol",
  "compiler": {
    "name": "solc",
    "version": "0.8.9+commit.e5eed63a.Emscripten.clang"
  },
  "schemaVersion": "3.4.3",
  "updatedAt": "2022-01-09T13:53:10.421Z",
  "devdoc": {
    "kind": "dev",
    "methods": {
      "DOMAIN_SEPARATOR()": {
        "details": "See {IERC20Permit-DOMAIN_SEPARATOR}."
      },
      "allowance(address,address)": {
        "details": "See {IERC20-allowance}."
      },
      "approve(address,uint256)": {
        "details": "See {IERC20-approve}. Requirements: - `spender` cannot be the zero address."
      },
      "balanceOf(address)": {
        "details": "See {IERC20-balanceOf}."
      },
      "burn(uint256)": {
        "details": "Destroys `amount` tokens from the caller. See {ERC20-_burn}."
      },
      "burnFrom(address,uint256)": {
        "details": "Destroys `amount` tokens from `account`, deducting from the caller's allowance. See {ERC20-_burn} and {ERC20-allowance}. Requirements: - the caller must have allowance for ``accounts``'s tokens of at least `amount`."
      },
      "cap()": {
        "details": "Returns the cap on the token's total supply."
      },
      "decimals()": {
        "details": "Returns the number of decimals used to get its user representation. For example, if `decimals` equals `2`, a balance of `505` tokens should be displayed to a user as `5.05` (`505 / 10 ** 2`). Tokens usually opt for a value of 18, imitating the relationship between Ether and Wei. This is the value {ERC20} uses, unless this function is overridden; NOTE: This information is only used for _display_ purposes: it in no way affects any of the arithmetic of the contract, including {IERC20-balanceOf} and {IERC20-transfer}."
      },
      "decreaseAllowance(address,uint256)": {
        "details": "Atomically decreases the allowance granted to `spender` by the caller. This is an alternative to {approve} that can be used as a mitigation for problems described in {IERC20-approve}. Emits an {Approval} event indicating the updated allowance. Requirements: - `spender` cannot be the zero address. - `spender` must have allowance for the caller of at least `subtractedValue`."
      },
      "decreaseCap(uint256)": {
        "details": "Decrease the cap supply"
      },
      "decreaseMaxOwnership(uint256)": {
        "details": "Decrease the Maximum Ownership Percentage with new `_decreaseMaxOwnershipPercentage` value, that can only be passed by the owner/admin of the contract"
      },
      "flashFee(address,uint256)": {
        "details": "Returns the fee applied when doing flash loans. By default this implementation has 0 fees. This function can be overloaded to make the flash loan mechanism deflationary.",
        "params": {
          "amount": "The amount of tokens to be loaned.",
          "token": "The token to be flash loaned."
        },
        "returns": {
          "_0": "The fees applied to the corresponding flash loan."
        }
      },
      "flashLoan(address,address,uint256,bytes)": {
        "details": "Performs a flash loan. New tokens are minted and sent to the `receiver`, who is required to implement the {IERC3156FlashBorrower} interface. By the end of the flash loan, the receiver is expected to own amount + fee tokens and have them approved back to the token contract itself so they can be burned.",
        "params": {
          "amount": "The amount of tokens to be loaned.",
          "data": "An arbitrary datafield that is passed to the receiver.",
          "receiver": "The receiver of the flash loan. Should implement the {IERC3156FlashBorrower.onFlashLoan} interface.",
          "token": "The token to be flash loaned. Only `address(this)` is supported."
        },
        "returns": {
          "_0": "`true` is the flash loan was successful."
        }
      },
      "increaseAllowance(address,uint256)": {
        "details": "Atomically increases the allowance granted to `spender` by the caller. This is an alternative to {approve} that can be used as a mitigation for problems described in {IERC20-approve}. Emits an {Approval} event indicating the updated allowance. Requirements: - `spender` cannot be the zero address."
      },
      "increaseCap(uint256)": {
        "details": "Increase the cap supply"
      },
      "increaseMaxOwnership(uint256)": {
        "details": "Increase the Maximum Ownership Percentage with new `_increaseMaxOwnershipPercentage` value, that can only be passed by the owner/admin of the contract"
      },
      "maxFlashLoan(address)": {
        "details": "Returns the maximum amount of tokens available for loan.",
        "params": {
          "token": "The address of the token that is requested."
        },
        "returns": {
          "_0": "The amont of token that can be loaned."
        }
      },
      "maxOwnership()": {
        "details": "Return the Maximum Ownership Percentage of an address"
      },
      "mint(address,uint256)": {
        "details": "Minting `amount` number of new tokens to `to` address with `onLyRestrictedOwnership` modifier checks"
      },
      "name()": {
        "details": "Returns the name of the token."
      },
      "nonces(address)": {
        "details": "See {IERC20Permit-nonces}."
      },
      "owner()": {
        "details": "Returns the address of the current owner."
      },
      "permit(address,address,uint256,uint256,uint8,bytes32,bytes32)": {
        "details": "See {IERC20Permit-permit}."
      },
      "renounceOwnership()": {
        "details": "Leaves the contract without owner. It will not be possible to call `onlyOwner` functions anymore. Can only be called by the current owner. NOTE: Renouncing ownership will leave the contract without an owner, thereby removing any functionality that is only available to the owner."
      },
      "setCap(uint256)": {
        "details": "Set new cap supply"
      },
      "setMaxOwnership(uint256)": {
        "details": "Set the Maximum Ownership Percentage with new `_newMaxOwnershipPercentage` value, that can only be passed by the owner/admin of the contract"
      },
      "symbol()": {
        "details": "Returns the symbol of the token, usually a shorter version of the name."
      },
      "totalSupply()": {
        "details": "See {IERC20-totalSupply}."
      },
      "transferFrom(address,address,uint256)": {
        "details": "See {IERC20-transferFrom}. Emits an {Approval} event indicating the updated allowance. This is not required by the EIP. See the note at the beginning of {ERC20}. Requirements: - `sender` and `recipient` cannot be the zero address. - `sender` must have a balance of at least `amount`. - the caller must have allowance for ``sender``'s tokens of at least `amount`."
      },
      "transferOwnership(address)": {
        "details": "Transfers ownership of the contract to a new account (`newOwner`). Can only be called by the current owner."
      }
    },
    "stateVariables": {
      "_maximumOwnershipPercentage": {
        "details": "Represents the Maximum Ownership percentage a wallet can hold MINE Token NOTE: At the moment, we will be using 3 decimals for the calculation"
      }
    },
    "version": 1
  },
  "userdoc": {
    "kind": "user",
    "methods": {},
    "version": 1
  }
}