{
  "contractName": "PSUNFT",
  "abi": [
    {
      "inputs": [
        {
          "internalType": "string",
          "name": "_uri",
          "type": "string"
        }
      ],
      "stateMutability": "nonpayable",
      "type": "constructor"
    },
    {
      "anonymous": false,
      "inputs": [
        {
          "indexed": true,
          "internalType": "address",
          "name": "account",
          "type": "address"
        },
        {
          "indexed": true,
          "internalType": "address",
          "name": "operator",
          "type": "address"
        },
        {
          "indexed": false,
          "internalType": "bool",
          "name": "approved",
          "type": "bool"
        }
      ],
      "name": "ApprovalForAll",
      "type": "event"
    },
    {
      "anonymous": false,
      "inputs": [
        {
          "indexed": true,
          "internalType": "address",
          "name": "previousOwner",
          "type": "address"
        },
        {
          "indexed": true,
          "internalType": "address",
          "name": "newOwner",
          "type": "address"
        }
      ],
      "name": "OwnershipTransferred",
      "type": "event"
    },
    {
      "anonymous": false,
      "inputs": [
        {
          "indexed": false,
          "internalType": "address",
          "name": "account",
          "type": "address"
        }
      ],
      "name": "Paused",
      "type": "event"
    },
    {
      "anonymous": false,
      "inputs": [
        {
          "indexed": true,
          "internalType": "address",
          "name": "operator",
          "type": "address"
        },
        {
          "indexed": true,
          "internalType": "address",
          "name": "from",
          "type": "address"
        },
        {
          "indexed": true,
          "internalType": "address",
          "name": "to",
          "type": "address"
        },
        {
          "indexed": false,
          "internalType": "uint256[]",
          "name": "ids",
          "type": "uint256[]"
        },
        {
          "indexed": false,
          "internalType": "uint256[]",
          "name": "values",
          "type": "uint256[]"
        }
      ],
      "name": "TransferBatch",
      "type": "event"
    },
    {
      "anonymous": false,
      "inputs": [
        {
          "indexed": true,
          "internalType": "address",
          "name": "operator",
          "type": "address"
        },
        {
          "indexed": true,
          "internalType": "address",
          "name": "from",
          "type": "address"
        },
        {
          "indexed": true,
          "internalType": "address",
          "name": "to",
          "type": "address"
        },
        {
          "indexed": false,
          "internalType": "uint256",
          "name": "id",
          "type": "uint256"
        },
        {
          "indexed": false,
          "internalType": "uint256",
          "name": "value",
          "type": "uint256"
        }
      ],
      "name": "TransferSingle",
      "type": "event"
    },
    {
      "anonymous": false,
      "inputs": [
        {
          "indexed": false,
          "internalType": "string",
          "name": "value",
          "type": "string"
        },
        {
          "indexed": true,
          "internalType": "uint256",
          "name": "id",
          "type": "uint256"
        }
      ],
      "name": "URI",
      "type": "event"
    },
    {
      "anonymous": false,
      "inputs": [
        {
          "indexed": false,
          "internalType": "address",
          "name": "account",
          "type": "address"
        }
      ],
      "name": "Unpaused",
      "type": "event"
    },
    {
      "inputs": [
        {
          "internalType": "address",
          "name": "account",
          "type": "address"
        },
        {
          "internalType": "uint256",
          "name": "id",
          "type": "uint256"
        }
      ],
      "name": "balanceOf",
      "outputs": [
        {
          "internalType": "uint256",
          "name": "",
          "type": "uint256"
        }
      ],
      "stateMutability": "view",
      "type": "function"
    },
    {
      "inputs": [
        {
          "internalType": "address[]",
          "name": "accounts",
          "type": "address[]"
        },
        {
          "internalType": "uint256[]",
          "name": "ids",
          "type": "uint256[]"
        }
      ],
      "name": "balanceOfBatch",
      "outputs": [
        {
          "internalType": "uint256[]",
          "name": "",
          "type": "uint256[]"
        }
      ],
      "stateMutability": "view",
      "type": "function"
    },
    {
      "inputs": [
        {
          "internalType": "address",
          "name": "account",
          "type": "address"
        },
        {
          "internalType": "uint256",
          "name": "id",
          "type": "uint256"
        },
        {
          "internalType": "uint256",
          "name": "value",
          "type": "uint256"
        }
      ],
      "name": "burn",
      "outputs": [],
      "stateMutability": "nonpayable",
      "type": "function"
    },
    {
      "inputs": [
        {
          "internalType": "address",
          "name": "account",
          "type": "address"
        },
        {
          "internalType": "uint256[]",
          "name": "ids",
          "type": "uint256[]"
        },
        {
          "internalType": "uint256[]",
          "name": "values",
          "type": "uint256[]"
        }
      ],
      "name": "burnBatch",
      "outputs": [],
      "stateMutability": "nonpayable",
      "type": "function"
    },
    {
      "inputs": [
        {
          "internalType": "uint256",
          "name": "id",
          "type": "uint256"
        }
      ],
      "name": "exists",
      "outputs": [
        {
          "internalType": "bool",
          "name": "",
          "type": "bool"
        }
      ],
      "stateMutability": "view",
      "type": "function"
    },
    {
      "inputs": [
        {
          "internalType": "address",
          "name": "account",
          "type": "address"
        },
        {
          "internalType": "address",
          "name": "operator",
          "type": "address"
        }
      ],
      "name": "isApprovedForAll",
      "outputs": [
        {
          "internalType": "bool",
          "name": "",
          "type": "bool"
        }
      ],
      "stateMutability": "view",
      "type": "function"
    },
    {
      "inputs": [
        {
          "internalType": "address",
          "name": "account",
          "type": "address"
        },
        {
          "internalType": "uint256",
          "name": "id",
          "type": "uint256"
        },
        {
          "internalType": "uint256",
          "name": "amount",
          "type": "uint256"
        },
        {
          "internalType": "bytes",
          "name": "data",
          "type": "bytes"
        }
      ],
      "name": "mint",
      "outputs": [],
      "stateMutability": "nonpayable",
      "type": "function"
    },
    {
      "inputs": [
        {
          "internalType": "address",
          "name": "to",
          "type": "address"
        },
        {
          "internalType": "uint256[]",
          "name": "ids",
          "type": "uint256[]"
        },
        {
          "internalType": "uint256[]",
          "name": "amounts",
          "type": "uint256[]"
        },
        {
          "internalType": "bytes",
          "name": "data",
          "type": "bytes"
        }
      ],
      "name": "mintBatch",
      "outputs": [],
      "stateMutability": "nonpayable",
      "type": "function"
    },
    {
      "inputs": [],
      "name": "owner",
      "outputs": [
        {
          "internalType": "address",
          "name": "",
          "type": "address"
        }
      ],
      "stateMutability": "view",
      "type": "function"
    },
    {
      "inputs": [],
      "name": "pause",
      "outputs": [],
      "stateMutability": "nonpayable",
      "type": "function"
    },
    {
      "inputs": [],
      "name": "paused",
      "outputs": [
        {
          "internalType": "bool",
          "name": "",
          "type": "bool"
        }
      ],
      "stateMutability": "view",
      "type": "function"
    },
    {
      "inputs": [],
      "name": "renounceOwnership",
      "outputs": [],
      "stateMutability": "nonpayable",
      "type": "function"
    },
    {
      "inputs": [
        {
          "internalType": "address",
          "name": "from",
          "type": "address"
        },
        {
          "internalType": "address",
          "name": "to",
          "type": "address"
        },
        {
          "internalType": "uint256[]",
          "name": "ids",
          "type": "uint256[]"
        },
        {
          "internalType": "uint256[]",
          "name": "amounts",
          "type": "uint256[]"
        },
        {
          "internalType": "bytes",
          "name": "data",
          "type": "bytes"
        }
      ],
      "name": "safeBatchTransferFrom",
      "outputs": [],
      "stateMutability": "nonpayable",
      "type": "function"
    },
    {
      "inputs": [
        {
          "internalType": "address",
          "name": "from",
          "type": "address"
        },
        {
          "internalType": "address",
          "name": "to",
          "type": "address"
        },
        {
          "internalType": "uint256",
          "name": "id",
          "type": "uint256"
        },
        {
          "internalType": "uint256",
          "name": "amount",
          "type": "uint256"
        },
        {
          "internalType": "bytes",
          "name": "data",
          "type": "bytes"
        }
      ],
      "name": "safeTransferFrom",
      "outputs": [],
      "stateMutability": "nonpayable",
      "type": "function"
    },
    {
      "inputs": [
        {
          "internalType": "address",
          "name": "operator",
          "type": "address"
        },
        {
          "internalType": "bool",
          "name": "approved",
          "type": "bool"
        }
      ],
      "name": "setApprovalForAll",
      "outputs": [],
      "stateMutability": "nonpayable",
      "type": "function"
    },
    {
      "inputs": [
        {
          "internalType": "string",
          "name": "newuri",
          "type": "string"
        }
      ],
      "name": "setURI",
      "outputs": [],
      "stateMutability": "nonpayable",
      "type": "function"
    },
    {
      "inputs": [
        {
          "internalType": "bytes4",
          "name": "interfaceId",
          "type": "bytes4"
        }
      ],
      "name": "supportsInterface",
      "outputs": [
        {
          "internalType": "bool",
          "name": "",
          "type": "bool"
        }
      ],
      "stateMutability": "view",
      "type": "function"
    },
    {
      "inputs": [
        {
          "internalType": "uint256",
          "name": "id",
          "type": "uint256"
        }
      ],
      "name": "totalSupply",
      "outputs": [
        {
          "internalType": "uint256",
          "name": "",
          "type": "uint256"
        }
      ],
      "stateMutability": "view",
      "type": "function"
    },
    {
      "inputs": [
        {
          "internalType": "address",
          "name": "newOwner",
          "type": "address"
        }
      ],
      "name": "transferOwnership",
      "outputs": [],
      "stateMutability": "nonpayable",
      "type": "function"
    },
    {
      "inputs": [],
      "name": "unpause",
      "outputs": [],
      "stateMutability": "nonpayable",
      "type": "function"
    },
    {
      "inputs": [
        {
          "internalType": "uint256",
          "name": "",
          "type": "uint256"
        }
      ],
      "name": "uri",
      "outputs": [
        {
          "internalType": "string",
          "name": "",
          "type": "string"
        }
      ],
      "stateMutability": "view",
      "type": "function"
    },
    {
      "inputs": [
        {
          "internalType": "uint256",
          "name": "id",
          "type": "uint256"
        }
      ],
      "name": "getTokenDetails",
      "outputs": [
        {
          "internalType": "uint8",
          "name": "",
          "type": "uint8"
        },
        {
          "internalType": "uint8",
          "name": "",
          "type": "uint8"
        },
        {
          "internalType": "string",
          "name": "",
          "type": "string"
        },
        {
          "internalType": "string",
          "name": "",
          "type": "string"
        }
      ],
      "stateMutability": "view",
      "type": "function"
    },
    {
      "inputs": [],
      "name": "setTokenDetails",
      "outputs": [],
      "stateMutability": "nonpayable",
      "type": "function"
    }
  ],
  "bytecode": "0x60806040523480156200001157600080fd5b506040516200284038038062002840833981016040819052620000349162000189565b8080620000418162000062565b506200004d336200007b565b50506003805460ff60a01b19169055620002a2565b805162000077906002906020840190620000cd565b5050565b600380546001600160a01b038381166001600160a01b0319831681179093556040519116919082907f8be0079c531659141344cd1fd0a4f28419497f9722a3daafe3b4186f6b6457e090600090a35050565b828054620000db9062000265565b90600052602060002090601f016020900481019282620000ff57600085556200014a565b82601f106200011a57805160ff19168380011785556200014a565b828001600101855582156200014a579182015b828111156200014a5782518255916020019190600101906200012d565b50620001589291506200015c565b5090565b5b808211156200015857600081556001016200015d565b634e487b7160e01b600052604160045260246000fd5b600060208083850312156200019d57600080fd5b82516001600160401b0380821115620001b557600080fd5b818501915085601f830112620001ca57600080fd5b815181811115620001df57620001df62000173565b604051601f8201601f19908116603f011681019083821181831017156200020a576200020a62000173565b8160405282815288868487010111156200022357600080fd5b600093505b8284101562000247578484018601518185018701529285019262000228565b82841115620002595760008684830101525b98975050505050505050565b600181811c908216806200027a57607f821691505b602082108114156200029c57634e487b7160e01b600052602260045260246000fd5b50919050565b61258e80620002b26000396000f3fe608060405234801561001057600080fd5b506004361061014c5760003560e01c80636b20c454116100c3578063bd85b0391161007c578063bd85b039146102bd578063c1e03728146102dd578063e985e9c514610300578063f242432a1461033c578063f2fde38b1461034f578063f5298aca1461036257600080fd5b80636b20c45414610259578063715018a61461026c578063731133e9146102745780638456cb59146102875780638da5cb5b1461028f578063a22cb465146102aa57600080fd5b80631f7fdffa116101155780631f7fdffa146101d75780632eb2c2d6146101ea5780633f4ba83a146101fd5780634e1273f4146102055780634f558e79146102255780635c975abb1461024757600080fd5b8062fdd58e1461015157806301ffc9a71461017757806302fe53051461019a5780630e89341c146101af578063136c93e6146101cf575b600080fd5b61016461015f3660046119ac565b610375565b6040519081526020015b60405180910390f35b61018a6101853660046119ec565b61040c565b604051901515815260200161016e565b6101ad6101a8366004611ab1565b61045e565b005b6101c26101bd366004611b02565b610494565b60405161016e9190611b68565b6101ad610528565b6101ad6101e5366004611c30565b610554565b6101ad6101f8366004611cc9565b610590565b6101ad610627565b610218610213366004611d73565b610659565b60405161016e9190611e79565b61018a610233366004611b02565b600090815260046020526040902054151590565b600354600160a01b900460ff1661018a565b6101ad610267366004611e8c565b610783565b6101ad6107cb565b6101ad610282366004611f00565b6107ff565b6101ad610835565b6003546040516001600160a01b03909116815260200161016e565b6101ad6102b8366004611f55565b610867565b6101646102cb366004611b02565b60009081526004602052604090205490565b6102f06102eb366004611b02565b610876565b60405161016e9493929190611f91565b61018a61030e366004611fd3565b6001600160a01b03918216600090815260016020908152604080832093909416825291909152205460ff1690565b6101ad61034a366004612006565b6109ff565b6101ad61035d36600461206b565b610a44565b6101ad610370366004612086565b610adc565b60006001600160a01b0383166103e65760405162461bcd60e51b815260206004820152602b60248201527f455243313135353a2062616c616e636520717565727920666f7220746865207a60448201526a65726f206164647265737360a81b60648201526084015b60405180910390fd5b506000908152602081815260408083206001600160a01b03949094168352929052205490565b60006001600160e01b03198216636cdb3d1360e11b148061043d57506001600160e01b031982166303a24d0760e21b145b8061045857506301ffc9a760e01b6001600160e01b03198316145b92915050565b6003546001600160a01b031633146104885760405162461bcd60e51b81526004016103dd906120b9565b61049181610b1f565b50565b6060600280546104a3906120ee565b80601f01602080910402602001604051908101604052809291908181526020018280546104cf906120ee565b801561051c5780601f106104f15761010080835404028352916020019161051c565b820191906000526020600020905b8154815290600101906020018083116104ff57829003601f168201915b50505050509050919050565b6003546001600160a01b031633146105525760405162461bcd60e51b81526004016103dd906120b9565b565b6003546001600160a01b0316331461057e5760405162461bcd60e51b81526004016103dd906120b9565b61058a84848484610b32565b50505050565b6001600160a01b0385163314806105ac57506105ac853361030e565b6106135760405162461bcd60e51b815260206004820152603260248201527f455243313135353a207472616e736665722063616c6c6572206973206e6f74206044820152711bdddb995c881b9bdc88185c1c1c9bdd995960721b60648201526084016103dd565b6106208585858585610c8c565b5050505050565b6003546001600160a01b031633146106515760405162461bcd60e51b81526004016103dd906120b9565b610552610e36565b606081518351146106be5760405162461bcd60e51b815260206004820152602960248201527f455243313135353a206163636f756e747320616e6420696473206c656e677468604482015268040dad2e6dac2e8c6d60bb1b60648201526084016103dd565b6000835167ffffffffffffffff8111156106da576106da611a10565b604051908082528060200260200182016040528015610703578160200160208202803683370190505b50905060005b845181101561077b5761074e85828151811061072757610727612129565b602002602001015185838151811061074157610741612129565b6020026020010151610375565b82828151811061076057610760612129565b602090810291909101015261077481612155565b9050610709565b509392505050565b6001600160a01b03831633148061079f575061079f833361030e565b6107bb5760405162461bcd60e51b81526004016103dd90612170565b6107c6838383610ed3565b505050565b6003546001600160a01b031633146107f55760405162461bcd60e51b81526004016103dd906120b9565b6105526000611061565b6003546001600160a01b031633146108295760405162461bcd60e51b81526004016103dd906120b9565b61058a848484846110b3565b6003546001600160a01b0316331461085f5760405162461bcd60e51b81526004016103dd906120b9565b610552611189565b610872338383611211565b5050565b60008181526005602090815260408083208151608081018352815460ff808216835261010090910416938101939093526001810180548594606094859487949293909291840191906108c7906120ee565b80601f01602080910402602001604051908101604052809291908181526020018280546108f3906120ee565b80156109405780601f1061091557610100808354040283529160200191610940565b820191906000526020600020905b81548152906001019060200180831161092357829003601f168201915b50505050508152602001600282018054610959906120ee565b80601f0160208091040260200160405190810160405280929190818152602001828054610985906120ee565b80156109d25780601f106109a7576101008083540402835291602001916109d2565b820191906000526020600020905b8154815290600101906020018083116109b557829003601f168201915b505050919092525050815160208301516040840151606090940151919a9099509297509550909350505050565b6001600160a01b038516331480610a1b5750610a1b853361030e565b610a375760405162461bcd60e51b81526004016103dd90612170565b61062085858585856112f2565b6003546001600160a01b03163314610a6e5760405162461bcd60e51b81526004016103dd906120b9565b6001600160a01b038116610ad35760405162461bcd60e51b815260206004820152602660248201527f4f776e61626c653a206e6577206f776e657220697320746865207a65726f206160448201526564647265737360d01b60648201526084016103dd565b61049181611061565b6001600160a01b038316331480610af85750610af8833361030e565b610b145760405162461bcd60e51b81526004016103dd90612170565b6107c683838361140f565b80516108729060029060208401906118f7565b6001600160a01b038416610b585760405162461bcd60e51b81526004016103dd906121b9565b8151835114610b795760405162461bcd60e51b81526004016103dd906121fa565b33610b8981600087878787611510565b60005b8451811015610c2457838181518110610ba757610ba7612129565b6020026020010151600080878481518110610bc457610bc4612129565b602002602001015181526020019081526020016000206000886001600160a01b03166001600160a01b031681526020019081526020016000206000828254610c0c9190612242565b90915550819050610c1c81612155565b915050610b8c565b50846001600160a01b031660006001600160a01b0316826001600160a01b03167f4a39dc06d4c0dbc64b70af90fd698a233a518aa5d07e595d983b8c0526c8f7fb8787604051610c7592919061225a565b60405180910390a46106208160008787878761156b565b8151835114610cad5760405162461bcd60e51b81526004016103dd906121fa565b6001600160a01b038416610cd35760405162461bcd60e51b81526004016103dd90612288565b33610ce2818787878787611510565b60005b8451811015610dc8576000858281518110610d0257610d02612129565b602002602001015190506000858381518110610d2057610d20612129565b602090810291909101810151600084815280835260408082206001600160a01b038e168352909352919091205490915081811015610d705760405162461bcd60e51b81526004016103dd906122cd565b6000838152602081815260408083206001600160a01b038e8116855292528083208585039055908b16825281208054849290610dad908490612242565b9250508190555050505080610dc190612155565b9050610ce5565b50846001600160a01b0316866001600160a01b0316826001600160a01b03167f4a39dc06d4c0dbc64b70af90fd698a233a518aa5d07e595d983b8c0526c8f7fb8787604051610e1892919061225a565b60405180910390a4610e2e81878787878761156b565b505050505050565b600354600160a01b900460ff16610e865760405162461bcd60e51b815260206004820152601460248201527314185d5cd8589b194e881b9bdd081c185d5cd95960621b60448201526064016103dd565b6003805460ff60a01b191690557f5db9ee0a495bf2e6ff9c91a7834c1ba4fdd244a5e8aa4e537bd38aeae4b073aa335b6040516001600160a01b03909116815260200160405180910390a1565b6001600160a01b038316610ef95760405162461bcd60e51b81526004016103dd90612317565b8051825114610f1a5760405162461bcd60e51b81526004016103dd906121fa565b6000339050610f3d81856000868660405180602001604052806000815250611510565b60005b8351811015611002576000848281518110610f5d57610f5d612129565b602002602001015190506000848381518110610f7b57610f7b612129565b602090810291909101810151600084815280835260408082206001600160a01b038c168352909352919091205490915081811015610fcb5760405162461bcd60e51b81526004016103dd9061235a565b6000928352602083815260408085206001600160a01b038b1686529091529092209103905580610ffa81612155565b915050610f40565b5060006001600160a01b0316846001600160a01b0316826001600160a01b03167f4a39dc06d4c0dbc64b70af90fd698a233a518aa5d07e595d983b8c0526c8f7fb868660405161105392919061225a565b60405180910390a450505050565b600380546001600160a01b038381166001600160a01b0319831681179093556040519116919082907f8be0079c531659141344cd1fd0a4f28419497f9722a3daafe3b4186f6b6457e090600090a35050565b6001600160a01b0384166110d95760405162461bcd60e51b81526004016103dd906121b9565b336110f9816000876110ea886116d6565b6110f3886116d6565b87611510565b6000848152602081815260408083206001600160a01b038916845290915281208054859290611129908490612242565b909155505060408051858152602081018590526001600160a01b0380881692600092918516917fc3d58168c5ae7397731d063d5bbf3d657854427343f4c083240f7aacaa2d0f62910160405180910390a461062081600087878787611721565b600354600160a01b900460ff16156111d65760405162461bcd60e51b815260206004820152601060248201526f14185d5cd8589b194e881c185d5cd95960821b60448201526064016103dd565b6003805460ff60a01b1916600160a01b1790557f62e78cea01bee320cd4e420270b5ea74000d11b0c9f74754ebdbfc544b05a258610eb63390565b816001600160a01b0316836001600160a01b031614156112855760405162461bcd60e51b815260206004820152602960248201527f455243313135353a2073657474696e6720617070726f76616c20737461747573604482015268103337b91039b2b63360b91b60648201526084016103dd565b6001600160a01b03838116600081815260016020908152604080832094871680845294825291829020805460ff191686151590811790915591519182527f17307eab39ab6107e8899845ad3d59bd9653f200f220920489ca2b5937696c31910160405180910390a3505050565b6001600160a01b0384166113185760405162461bcd60e51b81526004016103dd90612288565b336113288187876110ea886116d6565b6000848152602081815260408083206001600160a01b038a168452909152902054838110156113695760405162461bcd60e51b81526004016103dd906122cd565b6000858152602081815260408083206001600160a01b038b81168552925280832087850390559088168252812080548692906113a6908490612242565b909155505060408051868152602081018690526001600160a01b03808916928a821692918616917fc3d58168c5ae7397731d063d5bbf3d657854427343f4c083240f7aacaa2d0f62910160405180910390a4611406828888888888611721565b50505050505050565b6001600160a01b0383166114355760405162461bcd60e51b81526004016103dd90612317565b3361146481856000611446876116d6565b61144f876116d6565b60405180602001604052806000815250611510565b6000838152602081815260408083206001600160a01b0388168452909152902054828110156114a55760405162461bcd60e51b81526004016103dd9061235a565b6000848152602081815260408083206001600160a01b03898116808652918452828520888703905582518981529384018890529092908616917fc3d58168c5ae7397731d063d5bbf3d657854427343f4c083240f7aacaa2d0f62910160405180910390a45050505050565b600354600160a01b900460ff161561155d5760405162461bcd60e51b815260206004820152601060248201526f14185d5cd8589b194e881c185d5cd95960821b60448201526064016103dd565b610e2e8686868686866117eb565b6001600160a01b0384163b15610e2e5760405163bc197c8160e01b81526001600160a01b0385169063bc197c81906115af908990899088908890889060040161239e565b602060405180830381600087803b1580156115c957600080fd5b505af19250505080156115f9575060408051601f3d908101601f191682019092526115f6918101906123fc565b60015b6116a657611605612419565b806308c379a0141561163f575061161a612435565b806116255750611641565b8060405162461bcd60e51b81526004016103dd9190611b68565b505b60405162461bcd60e51b815260206004820152603460248201527f455243313135353a207472616e7366657220746f206e6f6e20455243313135356044820152732932b1b2b4bb32b91034b6b83632b6b2b73a32b960611b60648201526084016103dd565b6001600160e01b0319811663bc197c8160e01b146114065760405162461bcd60e51b81526004016103dd906124bf565b6040805160018082528183019092526060916000919060208083019080368337019050509050828160008151811061171057611710612129565b602090810291909101015292915050565b6001600160a01b0384163b15610e2e5760405163f23a6e6160e01b81526001600160a01b0385169063f23a6e61906117659089908990889088908890600401612507565b602060405180830381600087803b15801561177f57600080fd5b505af19250505080156117af575060408051601f3d908101601f191682019092526117ac918101906123fc565b60015b6117bb57611605612419565b6001600160e01b0319811663f23a6e6160e01b146114065760405162461bcd60e51b81526004016103dd906124bf565b6001600160a01b0385166118725760005b83518110156118705782818151811061181757611817612129565b60200260200101516004600086848151811061183557611835612129565b60200260200101518152602001908152602001600020600082825461185a9190612242565b90915550611869905081612155565b90506117fc565b505b6001600160a01b038416610e2e5760005b83518110156114065782818151811061189e5761189e612129565b6020026020010151600460008684815181106118bc576118bc612129565b6020026020010151815260200190815260200160002060008282546118e19190612541565b909155506118f0905081612155565b9050611883565b828054611903906120ee565b90600052602060002090601f016020900481019282611925576000855561196b565b82601f1061193e57805160ff191683800117855561196b565b8280016001018555821561196b579182015b8281111561196b578251825591602001919060010190611950565b5061197792915061197b565b5090565b5b80821115611977576000815560010161197c565b80356001600160a01b03811681146119a757600080fd5b919050565b600080604083850312156119bf57600080fd5b6119c883611990565b946020939093013593505050565b6001600160e01b03198116811461049157600080fd5b6000602082840312156119fe57600080fd5b8135611a09816119d6565b9392505050565b634e487b7160e01b600052604160045260246000fd5b601f8201601f1916810167ffffffffffffffff81118282101715611a4c57611a4c611a10565b6040525050565b600067ffffffffffffffff831115611a6d57611a6d611a10565b604051611a84601f8501601f191660200182611a26565b809150838152848484011115611a9957600080fd5b83836020830137600060208583010152509392505050565b600060208284031215611ac357600080fd5b813567ffffffffffffffff811115611ada57600080fd5b8201601f81018413611aeb57600080fd5b611afa84823560208401611a53565b949350505050565b600060208284031215611b1457600080fd5b5035919050565b6000815180845260005b81811015611b4157602081850181015186830182015201611b25565b81811115611b53576000602083870101525b50601f01601f19169290920160200192915050565b602081526000611a096020830184611b1b565b600067ffffffffffffffff821115611b9557611b95611a10565b5060051b60200190565b600082601f830112611bb057600080fd5b81356020611bbd82611b7b565b604051611bca8282611a26565b83815260059390931b8501820192828101915086841115611bea57600080fd5b8286015b84811015611c055780358352918301918301611bee565b509695505050505050565b600082601f830112611c2157600080fd5b611a0983833560208501611a53565b60008060008060808587031215611c4657600080fd5b611c4f85611990565b9350602085013567ffffffffffffffff80821115611c6c57600080fd5b611c7888838901611b9f565b94506040870135915080821115611c8e57600080fd5b611c9a88838901611b9f565b93506060870135915080821115611cb057600080fd5b50611cbd87828801611c10565b91505092959194509250565b600080600080600060a08688031215611ce157600080fd5b611cea86611990565b9450611cf860208701611990565b9350604086013567ffffffffffffffff80821115611d1557600080fd5b611d2189838a01611b9f565b94506060880135915080821115611d3757600080fd5b611d4389838a01611b9f565b93506080880135915080821115611d5957600080fd5b50611d6688828901611c10565b9150509295509295909350565b60008060408385031215611d8657600080fd5b823567ffffffffffffffff80821115611d9e57600080fd5b818501915085601f830112611db257600080fd5b81356020611dbf82611b7b565b604051611dcc8282611a26565b83815260059390931b8501820192828101915089841115611dec57600080fd5b948201945b83861015611e1157611e0286611990565b82529482019490820190611df1565b96505086013592505080821115611e2757600080fd5b50611e3485828601611b9f565b9150509250929050565b600081518084526020808501945080840160005b83811015611e6e57815187529582019590820190600101611e52565b509495945050505050565b602081526000611a096020830184611e3e565b600080600060608486031215611ea157600080fd5b611eaa84611990565b9250602084013567ffffffffffffffff80821115611ec757600080fd5b611ed387838801611b9f565b93506040860135915080821115611ee957600080fd5b50611ef686828701611b9f565b9150509250925092565b60008060008060808587031215611f1657600080fd5b611f1f85611990565b93506020850135925060408501359150606085013567ffffffffffffffff811115611f4957600080fd5b611cbd87828801611c10565b60008060408385031215611f6857600080fd5b611f7183611990565b915060208301358015158114611f8657600080fd5b809150509250929050565b60ff8516815260ff84166020820152608060408201526000611fb66080830185611b1b565b8281036060840152611fc88185611b1b565b979650505050505050565b60008060408385031215611fe657600080fd5b611fef83611990565b9150611ffd60208401611990565b90509250929050565b600080600080600060a0868803121561201e57600080fd5b61202786611990565b945061203560208701611990565b93506040860135925060608601359150608086013567ffffffffffffffff81111561205f57600080fd5b611d6688828901611c10565b60006020828403121561207d57600080fd5b611a0982611990565b60008060006060848603121561209b57600080fd5b6120a484611990565b95602085013595506040909401359392505050565b6020808252818101527f4f776e61626c653a2063616c6c6572206973206e6f7420746865206f776e6572604082015260600190565b600181811c9082168061210257607f821691505b6020821081141561212357634e487b7160e01b600052602260045260246000fd5b50919050565b634e487b7160e01b600052603260045260246000fd5b634e487b7160e01b600052601160045260246000fd5b60006000198214156121695761216961213f565b5060010190565b60208082526029908201527f455243313135353a2063616c6c6572206973206e6f74206f776e6572206e6f7260408201526808185c1c1c9bdd995960ba1b606082015260800190565b60208082526021908201527f455243313135353a206d696e7420746f20746865207a65726f206164647265736040820152607360f81b606082015260800190565b60208082526028908201527f455243313135353a2069647320616e6420616d6f756e7473206c656e677468206040820152670dad2e6dac2e8c6d60c31b606082015260800190565b600082198211156122555761225561213f565b500190565b60408152600061226d6040830185611e3e565b828103602084015261227f8185611e3e565b95945050505050565b60208082526025908201527f455243313135353a207472616e7366657220746f20746865207a65726f206164604082015264647265737360d81b606082015260800190565b6020808252602a908201527f455243313135353a20696e73756666696369656e742062616c616e636520666f60408201526939103a3930b739b332b960b11b606082015260800190565b60208082526023908201527f455243313135353a206275726e2066726f6d20746865207a65726f206164647260408201526265737360e81b606082015260800190565b60208082526024908201527f455243313135353a206275726e20616d6f756e7420657863656564732062616c604082015263616e636560e01b606082015260800190565b6001600160a01b0386811682528516602082015260a0604082018190526000906123ca90830186611e3e565b82810360608401526123dc8186611e3e565b905082810360808401526123f08185611b1b565b98975050505050505050565b60006020828403121561240e57600080fd5b8151611a09816119d6565b600060033d11156124325760046000803e5060005160e01c5b90565b600060443d10156124435790565b6040516003193d81016004833e81513d67ffffffffffffffff816024840111818411171561247357505050505090565b828501915081518181111561248b5750505050505090565b843d87010160208285010111156124a55750505050505090565b6124b460208286010187611a26565b509095945050505050565b60208082526028908201527f455243313135353a204552433131353552656365697665722072656a656374656040820152676420746f6b656e7360c01b606082015260800190565b6001600160a01b03868116825285166020820152604081018490526060810183905260a060808201819052600090611fc890830184611b1b565b6000828210156125535761255361213f565b50039056fea2646970667358221220d9d54a94964dc954ab897a9bfd6187cdd353e61366ee862a3577d3b5ae6454fd64736f6c63430008090033",
  "immutableReferences": {},
  "source": "// SPDX-License-Identifier: GPL-3.0-or-later\n\npragma solidity ^0.8.9;\n\nimport \"../tokens/ERC1155Custom.sol\";\n\ncontract PSUNFT is ERC1155Custom {\n    struct PSUDetails {\n        uint8 efficiency;\n        uint8 wattage;\n        string rating;\n        string grade;\n    }\n\n    mapping(uint256 => PSUDetails) private _tokenDetails;\n\n    constructor(string memory _uri) ERC1155Custom(_uri) {}\n\n    function getTokenDetails(uint256 id)\n        public\n        view\n        returns (\n            uint8,\n            uint8,\n            string memory,\n            string memory\n        )\n    {\n        PSUDetails memory psuDetailsByTokenId = _tokenDetails[id];\n        return (\n            psuDetailsByTokenId.efficiency,\n            psuDetailsByTokenId.wattage,\n            psuDetailsByTokenId.rating,\n            psuDetailsByTokenId.grade\n        );\n    }\n\n    function setTokenDetails() public onlyOwner {}\n}\n",
  "sourcePath": "/home/yosephkurniasoenggoro/Documents/GitHub/miners-nations-smart-contracts/contracts/nfts/PSU.sol",
  "compiler": {
    "name": "solc",
    "version": "0.8.9+commit.e5eed63a.Emscripten.clang"
  },
  "schemaVersion": "3.4.3",
  "updatedAt": "2022-01-08T16:16:59.070Z",
  "devdoc": {
    "kind": "dev",
    "methods": {
      "balanceOf(address,uint256)": {
        "details": "See {IERC1155-balanceOf}. Requirements: - `account` cannot be the zero address."
      },
      "balanceOfBatch(address[],uint256[])": {
        "details": "See {IERC1155-balanceOfBatch}. Requirements: - `accounts` and `ids` must have the same length."
      },
      "exists(uint256)": {
        "details": "Indicates whether any token exist with a given id, or not."
      },
      "isApprovedForAll(address,address)": {
        "details": "See {IERC1155-isApprovedForAll}."
      },
      "owner()": {
        "details": "Returns the address of the current owner."
      },
      "paused()": {
        "details": "Returns true if the contract is paused, and false otherwise."
      },
      "renounceOwnership()": {
        "details": "Leaves the contract without owner. It will not be possible to call `onlyOwner` functions anymore. Can only be called by the current owner. NOTE: Renouncing ownership will leave the contract without an owner, thereby removing any functionality that is only available to the owner."
      },
      "safeBatchTransferFrom(address,address,uint256[],uint256[],bytes)": {
        "details": "See {IERC1155-safeBatchTransferFrom}."
      },
      "safeTransferFrom(address,address,uint256,uint256,bytes)": {
        "details": "See {IERC1155-safeTransferFrom}."
      },
      "setApprovalForAll(address,bool)": {
        "details": "See {IERC1155-setApprovalForAll}."
      },
      "supportsInterface(bytes4)": {
        "details": "See {IERC165-supportsInterface}."
      },
      "totalSupply(uint256)": {
        "details": "Total amount of tokens in with a given id."
      },
      "transferOwnership(address)": {
        "details": "Transfers ownership of the contract to a new account (`newOwner`). Can only be called by the current owner."
      },
      "uri(uint256)": {
        "details": "See {IERC1155MetadataURI-uri}. This implementation returns the same URI for *all* token types. It relies on the token type ID substitution mechanism https://eips.ethereum.org/EIPS/eip-1155#metadata[defined in the EIP]. Clients calling this function must replace the `\\{id\\}` substring with the actual token type ID."
      }
    },
    "version": 1
  },
  "userdoc": {
    "kind": "user",
    "methods": {},
    "version": 1
  }
}