{
  "contractName": "RAMNFT",
  "abi": [
    {
      "inputs": [
        {
          "internalType": "string",
          "name": "_uri",
          "type": "string"
        }
      ],
      "stateMutability": "nonpayable",
      "type": "constructor"
    },
    {
      "anonymous": false,
      "inputs": [
        {
          "indexed": true,
          "internalType": "address",
          "name": "account",
          "type": "address"
        },
        {
          "indexed": true,
          "internalType": "address",
          "name": "operator",
          "type": "address"
        },
        {
          "indexed": false,
          "internalType": "bool",
          "name": "approved",
          "type": "bool"
        }
      ],
      "name": "ApprovalForAll",
      "type": "event"
    },
    {
      "anonymous": false,
      "inputs": [
        {
          "indexed": true,
          "internalType": "address",
          "name": "previousOwner",
          "type": "address"
        },
        {
          "indexed": true,
          "internalType": "address",
          "name": "newOwner",
          "type": "address"
        }
      ],
      "name": "OwnershipTransferred",
      "type": "event"
    },
    {
      "anonymous": false,
      "inputs": [
        {
          "indexed": false,
          "internalType": "address",
          "name": "account",
          "type": "address"
        }
      ],
      "name": "Paused",
      "type": "event"
    },
    {
      "anonymous": false,
      "inputs": [
        {
          "indexed": true,
          "internalType": "address",
          "name": "operator",
          "type": "address"
        },
        {
          "indexed": true,
          "internalType": "address",
          "name": "from",
          "type": "address"
        },
        {
          "indexed": true,
          "internalType": "address",
          "name": "to",
          "type": "address"
        },
        {
          "indexed": false,
          "internalType": "uint256[]",
          "name": "ids",
          "type": "uint256[]"
        },
        {
          "indexed": false,
          "internalType": "uint256[]",
          "name": "values",
          "type": "uint256[]"
        }
      ],
      "name": "TransferBatch",
      "type": "event"
    },
    {
      "anonymous": false,
      "inputs": [
        {
          "indexed": true,
          "internalType": "address",
          "name": "operator",
          "type": "address"
        },
        {
          "indexed": true,
          "internalType": "address",
          "name": "from",
          "type": "address"
        },
        {
          "indexed": true,
          "internalType": "address",
          "name": "to",
          "type": "address"
        },
        {
          "indexed": false,
          "internalType": "uint256",
          "name": "id",
          "type": "uint256"
        },
        {
          "indexed": false,
          "internalType": "uint256",
          "name": "value",
          "type": "uint256"
        }
      ],
      "name": "TransferSingle",
      "type": "event"
    },
    {
      "anonymous": false,
      "inputs": [
        {
          "indexed": false,
          "internalType": "string",
          "name": "value",
          "type": "string"
        },
        {
          "indexed": true,
          "internalType": "uint256",
          "name": "id",
          "type": "uint256"
        }
      ],
      "name": "URI",
      "type": "event"
    },
    {
      "anonymous": false,
      "inputs": [
        {
          "indexed": false,
          "internalType": "address",
          "name": "account",
          "type": "address"
        }
      ],
      "name": "Unpaused",
      "type": "event"
    },
    {
      "inputs": [
        {
          "internalType": "address",
          "name": "account",
          "type": "address"
        },
        {
          "internalType": "uint256",
          "name": "id",
          "type": "uint256"
        }
      ],
      "name": "balanceOf",
      "outputs": [
        {
          "internalType": "uint256",
          "name": "",
          "type": "uint256"
        }
      ],
      "stateMutability": "view",
      "type": "function"
    },
    {
      "inputs": [
        {
          "internalType": "address[]",
          "name": "accounts",
          "type": "address[]"
        },
        {
          "internalType": "uint256[]",
          "name": "ids",
          "type": "uint256[]"
        }
      ],
      "name": "balanceOfBatch",
      "outputs": [
        {
          "internalType": "uint256[]",
          "name": "",
          "type": "uint256[]"
        }
      ],
      "stateMutability": "view",
      "type": "function"
    },
    {
      "inputs": [
        {
          "internalType": "address",
          "name": "account",
          "type": "address"
        },
        {
          "internalType": "uint256",
          "name": "id",
          "type": "uint256"
        },
        {
          "internalType": "uint256",
          "name": "value",
          "type": "uint256"
        }
      ],
      "name": "burn",
      "outputs": [],
      "stateMutability": "nonpayable",
      "type": "function"
    },
    {
      "inputs": [
        {
          "internalType": "address",
          "name": "account",
          "type": "address"
        },
        {
          "internalType": "uint256[]",
          "name": "ids",
          "type": "uint256[]"
        },
        {
          "internalType": "uint256[]",
          "name": "values",
          "type": "uint256[]"
        }
      ],
      "name": "burnBatch",
      "outputs": [],
      "stateMutability": "nonpayable",
      "type": "function"
    },
    {
      "inputs": [
        {
          "internalType": "uint256",
          "name": "id",
          "type": "uint256"
        }
      ],
      "name": "exists",
      "outputs": [
        {
          "internalType": "bool",
          "name": "",
          "type": "bool"
        }
      ],
      "stateMutability": "view",
      "type": "function"
    },
    {
      "inputs": [
        {
          "internalType": "address",
          "name": "account",
          "type": "address"
        },
        {
          "internalType": "address",
          "name": "operator",
          "type": "address"
        }
      ],
      "name": "isApprovedForAll",
      "outputs": [
        {
          "internalType": "bool",
          "name": "",
          "type": "bool"
        }
      ],
      "stateMutability": "view",
      "type": "function"
    },
    {
      "inputs": [
        {
          "internalType": "address",
          "name": "account",
          "type": "address"
        },
        {
          "internalType": "uint256",
          "name": "id",
          "type": "uint256"
        },
        {
          "internalType": "uint256",
          "name": "amount",
          "type": "uint256"
        },
        {
          "internalType": "bytes",
          "name": "data",
          "type": "bytes"
        }
      ],
      "name": "mint",
      "outputs": [],
      "stateMutability": "nonpayable",
      "type": "function"
    },
    {
      "inputs": [
        {
          "internalType": "address",
          "name": "to",
          "type": "address"
        },
        {
          "internalType": "uint256[]",
          "name": "ids",
          "type": "uint256[]"
        },
        {
          "internalType": "uint256[]",
          "name": "amounts",
          "type": "uint256[]"
        },
        {
          "internalType": "bytes",
          "name": "data",
          "type": "bytes"
        }
      ],
      "name": "mintBatch",
      "outputs": [],
      "stateMutability": "nonpayable",
      "type": "function"
    },
    {
      "inputs": [],
      "name": "owner",
      "outputs": [
        {
          "internalType": "address",
          "name": "",
          "type": "address"
        }
      ],
      "stateMutability": "view",
      "type": "function"
    },
    {
      "inputs": [],
      "name": "pause",
      "outputs": [],
      "stateMutability": "nonpayable",
      "type": "function"
    },
    {
      "inputs": [],
      "name": "paused",
      "outputs": [
        {
          "internalType": "bool",
          "name": "",
          "type": "bool"
        }
      ],
      "stateMutability": "view",
      "type": "function"
    },
    {
      "inputs": [],
      "name": "renounceOwnership",
      "outputs": [],
      "stateMutability": "nonpayable",
      "type": "function"
    },
    {
      "inputs": [
        {
          "internalType": "address",
          "name": "from",
          "type": "address"
        },
        {
          "internalType": "address",
          "name": "to",
          "type": "address"
        },
        {
          "internalType": "uint256[]",
          "name": "ids",
          "type": "uint256[]"
        },
        {
          "internalType": "uint256[]",
          "name": "amounts",
          "type": "uint256[]"
        },
        {
          "internalType": "bytes",
          "name": "data",
          "type": "bytes"
        }
      ],
      "name": "safeBatchTransferFrom",
      "outputs": [],
      "stateMutability": "nonpayable",
      "type": "function"
    },
    {
      "inputs": [
        {
          "internalType": "address",
          "name": "from",
          "type": "address"
        },
        {
          "internalType": "address",
          "name": "to",
          "type": "address"
        },
        {
          "internalType": "uint256",
          "name": "id",
          "type": "uint256"
        },
        {
          "internalType": "uint256",
          "name": "amount",
          "type": "uint256"
        },
        {
          "internalType": "bytes",
          "name": "data",
          "type": "bytes"
        }
      ],
      "name": "safeTransferFrom",
      "outputs": [],
      "stateMutability": "nonpayable",
      "type": "function"
    },
    {
      "inputs": [
        {
          "internalType": "address",
          "name": "operator",
          "type": "address"
        },
        {
          "internalType": "bool",
          "name": "approved",
          "type": "bool"
        }
      ],
      "name": "setApprovalForAll",
      "outputs": [],
      "stateMutability": "nonpayable",
      "type": "function"
    },
    {
      "inputs": [
        {
          "internalType": "string",
          "name": "newuri",
          "type": "string"
        }
      ],
      "name": "setURI",
      "outputs": [],
      "stateMutability": "nonpayable",
      "type": "function"
    },
    {
      "inputs": [
        {
          "internalType": "bytes4",
          "name": "interfaceId",
          "type": "bytes4"
        }
      ],
      "name": "supportsInterface",
      "outputs": [
        {
          "internalType": "bool",
          "name": "",
          "type": "bool"
        }
      ],
      "stateMutability": "view",
      "type": "function"
    },
    {
      "inputs": [
        {
          "internalType": "uint256",
          "name": "id",
          "type": "uint256"
        }
      ],
      "name": "totalSupply",
      "outputs": [
        {
          "internalType": "uint256",
          "name": "",
          "type": "uint256"
        }
      ],
      "stateMutability": "view",
      "type": "function"
    },
    {
      "inputs": [
        {
          "internalType": "address",
          "name": "newOwner",
          "type": "address"
        }
      ],
      "name": "transferOwnership",
      "outputs": [],
      "stateMutability": "nonpayable",
      "type": "function"
    },
    {
      "inputs": [],
      "name": "unpause",
      "outputs": [],
      "stateMutability": "nonpayable",
      "type": "function"
    },
    {
      "inputs": [
        {
          "internalType": "uint256",
          "name": "",
          "type": "uint256"
        }
      ],
      "name": "uri",
      "outputs": [
        {
          "internalType": "string",
          "name": "",
          "type": "string"
        }
      ],
      "stateMutability": "view",
      "type": "function"
    },
    {
      "inputs": [
        {
          "internalType": "uint256",
          "name": "id",
          "type": "uint256"
        }
      ],
      "name": "getTokenDetails",
      "outputs": [
        {
          "internalType": "uint256",
          "name": "",
          "type": "uint256"
        },
        {
          "internalType": "uint8",
          "name": "",
          "type": "uint8"
        },
        {
          "internalType": "string",
          "name": "",
          "type": "string"
        }
      ],
      "stateMutability": "view",
      "type": "function"
    },
    {
      "inputs": [],
      "name": "setTokenDetails",
      "outputs": [],
      "stateMutability": "nonpayable",
      "type": "function"
    }
  ],
  "bytecode": "0x60806040523480156200001157600080fd5b506040516200278538038062002785833981016040819052620000349162000189565b8080620000418162000062565b506200004d336200007b565b50506003805460ff60a01b19169055620002a2565b805162000077906002906020840190620000cd565b5050565b600380546001600160a01b038381166001600160a01b0319831681179093556040519116919082907f8be0079c531659141344cd1fd0a4f28419497f9722a3daafe3b4186f6b6457e090600090a35050565b828054620000db9062000265565b90600052602060002090601f016020900481019282620000ff57600085556200014a565b82601f106200011a57805160ff19168380011785556200014a565b828001600101855582156200014a579182015b828111156200014a5782518255916020019190600101906200012d565b50620001589291506200015c565b5090565b5b808211156200015857600081556001016200015d565b634e487b7160e01b600052604160045260246000fd5b600060208083850312156200019d57600080fd5b82516001600160401b0380821115620001b557600080fd5b818501915085601f830112620001ca57600080fd5b815181811115620001df57620001df62000173565b604051601f8201601f19908116603f011681019083821181831017156200020a576200020a62000173565b8160405282815288868487010111156200022357600080fd5b600093505b8284101562000247578484018601518185018701529285019262000228565b82841115620002595760008684830101525b98975050505050505050565b600181811c908216806200027a57607f821691505b602082108114156200029c57634e487b7160e01b600052602260045260246000fd5b50919050565b6124d380620002b26000396000f3fe608060405234801561001057600080fd5b506004361061014c5760003560e01c80636b20c454116100c3578063bd85b0391161007c578063bd85b039146102bd578063c1e03728146102dd578063e985e9c5146102ff578063f242432a1461033b578063f2fde38b1461034e578063f5298aca1461036157600080fd5b80636b20c45414610259578063715018a61461026c578063731133e9146102745780638456cb59146102875780638da5cb5b1461028f578063a22cb465146102aa57600080fd5b80631f7fdffa116101155780631f7fdffa146101d75780632eb2c2d6146101ea5780633f4ba83a146101fd5780634e1273f4146102055780634f558e79146102255780635c975abb1461024757600080fd5b8062fdd58e1461015157806301ffc9a71461017757806302fe53051461019a5780630e89341c146101af578063136c93e6146101cf575b600080fd5b61016461015f366004611906565b610374565b6040519081526020015b60405180910390f35b61018a610185366004611946565b61040b565b604051901515815260200161016e565b6101ad6101a8366004611a0b565b61045d565b005b6101c26101bd366004611a5c565b610493565b60405161016e9190611ac2565b6101ad610527565b6101ad6101e5366004611b8a565b610553565b6101ad6101f8366004611c23565b61058f565b6101ad610626565b610218610213366004611ccd565b610658565b60405161016e9190611dd3565b61018a610233366004611a5c565b600090815260046020526040902054151590565b600354600160a01b900460ff1661018a565b6101ad610267366004611de6565b610782565b6101ad6107ca565b6101ad610282366004611e5a565b6107fe565b6101ad610834565b6003546040516001600160a01b03909116815260200161016e565b6101ad6102b8366004611eaf565b610866565b6101646102cb366004611a5c565b60009081526004602052604090205490565b6102f06102eb366004611a5c565b610875565b60405161016e93929190611eeb565b61018a61030d366004611f16565b6001600160a01b03918216600090815260016020908152604080832093909416825291909152205460ff1690565b6101ad610349366004611f49565b610959565b6101ad61035c366004611fae565b61099e565b6101ad61036f366004611fc9565b610a36565b60006001600160a01b0383166103e55760405162461bcd60e51b815260206004820152602b60248201527f455243313135353a2062616c616e636520717565727920666f7220746865207a60448201526a65726f206164647265737360a81b60648201526084015b60405180910390fd5b506000908152602081815260408083206001600160a01b03949094168352929052205490565b60006001600160e01b03198216636cdb3d1360e11b148061043c57506001600160e01b031982166303a24d0760e21b145b8061045757506301ffc9a760e01b6001600160e01b03198316145b92915050565b6003546001600160a01b031633146104875760405162461bcd60e51b81526004016103dc90611ffc565b61049081610a79565b50565b6060600280546104a290612031565b80601f01602080910402602001604051908101604052809291908181526020018280546104ce90612031565b801561051b5780601f106104f05761010080835404028352916020019161051b565b820191906000526020600020905b8154815290600101906020018083116104fe57829003601f168201915b50505050509050919050565b6003546001600160a01b031633146105515760405162461bcd60e51b81526004016103dc90611ffc565b565b6003546001600160a01b0316331461057d5760405162461bcd60e51b81526004016103dc90611ffc565b61058984848484610a8c565b50505050565b6001600160a01b0385163314806105ab57506105ab853361030d565b6106125760405162461bcd60e51b815260206004820152603260248201527f455243313135353a207472616e736665722063616c6c6572206973206e6f74206044820152711bdddb995c881b9bdc88185c1c1c9bdd995960721b60648201526084016103dc565b61061f8585858585610be6565b5050505050565b6003546001600160a01b031633146106505760405162461bcd60e51b81526004016103dc90611ffc565b610551610d90565b606081518351146106bd5760405162461bcd60e51b815260206004820152602960248201527f455243313135353a206163636f756e747320616e6420696473206c656e677468604482015268040dad2e6dac2e8c6d60bb1b60648201526084016103dc565b6000835167ffffffffffffffff8111156106d9576106d961196a565b604051908082528060200260200182016040528015610702578160200160208202803683370190505b50905060005b845181101561077a5761074d8582815181106107265761072661206c565b60200260200101518583815181106107405761074061206c565b6020026020010151610374565b82828151811061075f5761075f61206c565b602090810291909101015261077381612098565b9050610708565b509392505050565b6001600160a01b03831633148061079e575061079e833361030d565b6107ba5760405162461bcd60e51b81526004016103dc906120b3565b6107c5838383610e2d565b505050565b6003546001600160a01b031633146107f45760405162461bcd60e51b81526004016103dc90611ffc565b6105516000610fbb565b6003546001600160a01b031633146108285760405162461bcd60e51b81526004016103dc90611ffc565b6105898484848461100d565b6003546001600160a01b0316331461085e5760405162461bcd60e51b81526004016103dc90611ffc565b6105516110e3565b61087133838361116b565b5050565b600081815260056020908152604080832081516060818101845282548252600183015460ff1694820194909452600282018054869594869492908401916108bb90612031565b80601f01602080910402602001604051908101604052809291908181526020018280546108e790612031565b80156109345780601f1061090957610100808354040283529160200191610934565b820191906000526020600020905b81548152906001019060200180831161091757829003601f168201915b5050509190925250508151602083015160409093015190989297509550909350505050565b6001600160a01b0385163314806109755750610975853361030d565b6109915760405162461bcd60e51b81526004016103dc906120b3565b61061f858585858561124c565b6003546001600160a01b031633146109c85760405162461bcd60e51b81526004016103dc90611ffc565b6001600160a01b038116610a2d5760405162461bcd60e51b815260206004820152602660248201527f4f776e61626c653a206e6577206f776e657220697320746865207a65726f206160448201526564647265737360d01b60648201526084016103dc565b61049081610fbb565b6001600160a01b038316331480610a525750610a52833361030d565b610a6e5760405162461bcd60e51b81526004016103dc906120b3565b6107c5838383611369565b8051610871906002906020840190611851565b6001600160a01b038416610ab25760405162461bcd60e51b81526004016103dc906120fc565b8151835114610ad35760405162461bcd60e51b81526004016103dc9061213d565b33610ae38160008787878761146a565b60005b8451811015610b7e57838181518110610b0157610b0161206c565b6020026020010151600080878481518110610b1e57610b1e61206c565b602002602001015181526020019081526020016000206000886001600160a01b03166001600160a01b031681526020019081526020016000206000828254610b669190612185565b90915550819050610b7681612098565b915050610ae6565b50846001600160a01b031660006001600160a01b0316826001600160a01b03167f4a39dc06d4c0dbc64b70af90fd698a233a518aa5d07e595d983b8c0526c8f7fb8787604051610bcf92919061219d565b60405180910390a461061f816000878787876114c5565b8151835114610c075760405162461bcd60e51b81526004016103dc9061213d565b6001600160a01b038416610c2d5760405162461bcd60e51b81526004016103dc906121c2565b33610c3c81878787878761146a565b60005b8451811015610d22576000858281518110610c5c57610c5c61206c565b602002602001015190506000858381518110610c7a57610c7a61206c565b602090810291909101810151600084815280835260408082206001600160a01b038e168352909352919091205490915081811015610cca5760405162461bcd60e51b81526004016103dc90612207565b6000838152602081815260408083206001600160a01b038e8116855292528083208585039055908b16825281208054849290610d07908490612185565b9250508190555050505080610d1b90612098565b9050610c3f565b50846001600160a01b0316866001600160a01b0316826001600160a01b03167f4a39dc06d4c0dbc64b70af90fd698a233a518aa5d07e595d983b8c0526c8f7fb8787604051610d7292919061219d565b60405180910390a4610d888187878787876114c5565b505050505050565b600354600160a01b900460ff16610de05760405162461bcd60e51b815260206004820152601460248201527314185d5cd8589b194e881b9bdd081c185d5cd95960621b60448201526064016103dc565b6003805460ff60a01b191690557f5db9ee0a495bf2e6ff9c91a7834c1ba4fdd244a5e8aa4e537bd38aeae4b073aa335b6040516001600160a01b03909116815260200160405180910390a1565b6001600160a01b038316610e535760405162461bcd60e51b81526004016103dc90612251565b8051825114610e745760405162461bcd60e51b81526004016103dc9061213d565b6000339050610e978185600086866040518060200160405280600081525061146a565b60005b8351811015610f5c576000848281518110610eb757610eb761206c565b602002602001015190506000848381518110610ed557610ed561206c565b602090810291909101810151600084815280835260408082206001600160a01b038c168352909352919091205490915081811015610f255760405162461bcd60e51b81526004016103dc90612294565b6000928352602083815260408085206001600160a01b038b1686529091529092209103905580610f5481612098565b915050610e9a565b5060006001600160a01b0316846001600160a01b0316826001600160a01b03167f4a39dc06d4c0dbc64b70af90fd698a233a518aa5d07e595d983b8c0526c8f7fb8686604051610fad92919061219d565b60405180910390a450505050565b600380546001600160a01b038381166001600160a01b0319831681179093556040519116919082907f8be0079c531659141344cd1fd0a4f28419497f9722a3daafe3b4186f6b6457e090600090a35050565b6001600160a01b0384166110335760405162461bcd60e51b81526004016103dc906120fc565b336110538160008761104488611630565b61104d88611630565b8761146a565b6000848152602081815260408083206001600160a01b038916845290915281208054859290611083908490612185565b909155505060408051858152602081018590526001600160a01b0380881692600092918516917fc3d58168c5ae7397731d063d5bbf3d657854427343f4c083240f7aacaa2d0f62910160405180910390a461061f8160008787878761167b565b600354600160a01b900460ff16156111305760405162461bcd60e51b815260206004820152601060248201526f14185d5cd8589b194e881c185d5cd95960821b60448201526064016103dc565b6003805460ff60a01b1916600160a01b1790557f62e78cea01bee320cd4e420270b5ea74000d11b0c9f74754ebdbfc544b05a258610e103390565b816001600160a01b0316836001600160a01b031614156111df5760405162461bcd60e51b815260206004820152602960248201527f455243313135353a2073657474696e6720617070726f76616c20737461747573604482015268103337b91039b2b63360b91b60648201526084016103dc565b6001600160a01b03838116600081815260016020908152604080832094871680845294825291829020805460ff191686151590811790915591519182527f17307eab39ab6107e8899845ad3d59bd9653f200f220920489ca2b5937696c31910160405180910390a3505050565b6001600160a01b0384166112725760405162461bcd60e51b81526004016103dc906121c2565b3361128281878761104488611630565b6000848152602081815260408083206001600160a01b038a168452909152902054838110156112c35760405162461bcd60e51b81526004016103dc90612207565b6000858152602081815260408083206001600160a01b038b8116855292528083208785039055908816825281208054869290611300908490612185565b909155505060408051868152602081018690526001600160a01b03808916928a821692918616917fc3d58168c5ae7397731d063d5bbf3d657854427343f4c083240f7aacaa2d0f62910160405180910390a461136082888888888861167b565b50505050505050565b6001600160a01b03831661138f5760405162461bcd60e51b81526004016103dc90612251565b336113be818560006113a087611630565b6113a987611630565b6040518060200160405280600081525061146a565b6000838152602081815260408083206001600160a01b0388168452909152902054828110156113ff5760405162461bcd60e51b81526004016103dc90612294565b6000848152602081815260408083206001600160a01b03898116808652918452828520888703905582518981529384018890529092908616917fc3d58168c5ae7397731d063d5bbf3d657854427343f4c083240f7aacaa2d0f62910160405180910390a45050505050565b600354600160a01b900460ff16156114b75760405162461bcd60e51b815260206004820152601060248201526f14185d5cd8589b194e881c185d5cd95960821b60448201526064016103dc565b610d88868686868686611745565b6001600160a01b0384163b15610d885760405163bc197c8160e01b81526001600160a01b0385169063bc197c819061150990899089908890889088906004016122d8565b602060405180830381600087803b15801561152357600080fd5b505af1925050508015611553575060408051601f3d908101601f1916820190925261155091810190612336565b60015b6116005761155f612353565b806308c379a01415611599575061157461236f565b8061157f575061159b565b8060405162461bcd60e51b81526004016103dc9190611ac2565b505b60405162461bcd60e51b815260206004820152603460248201527f455243313135353a207472616e7366657220746f206e6f6e20455243313135356044820152732932b1b2b4bb32b91034b6b83632b6b2b73a32b960611b60648201526084016103dc565b6001600160e01b0319811663bc197c8160e01b146113605760405162461bcd60e51b81526004016103dc906123f9565b6040805160018082528183019092526060916000919060208083019080368337019050509050828160008151811061166a5761166a61206c565b602090810291909101015292915050565b6001600160a01b0384163b15610d885760405163f23a6e6160e01b81526001600160a01b0385169063f23a6e61906116bf9089908990889088908890600401612441565b602060405180830381600087803b1580156116d957600080fd5b505af1925050508015611709575060408051601f3d908101601f1916820190925261170691810190612336565b60015b6117155761155f612353565b6001600160e01b0319811663f23a6e6160e01b146113605760405162461bcd60e51b81526004016103dc906123f9565b6001600160a01b0385166117cc5760005b83518110156117ca578281815181106117715761177161206c565b60200260200101516004600086848151811061178f5761178f61206c565b6020026020010151815260200190815260200160002060008282546117b49190612185565b909155506117c3905081612098565b9050611756565b505b6001600160a01b038416610d885760005b8351811015611360578281815181106117f8576117f861206c565b6020026020010151600460008684815181106118165761181661206c565b60200260200101518152602001908152602001600020600082825461183b9190612486565b9091555061184a905081612098565b90506117dd565b82805461185d90612031565b90600052602060002090601f01602090048101928261187f57600085556118c5565b82601f1061189857805160ff19168380011785556118c5565b828001600101855582156118c5579182015b828111156118c55782518255916020019190600101906118aa565b506118d19291506118d5565b5090565b5b808211156118d157600081556001016118d6565b80356001600160a01b038116811461190157600080fd5b919050565b6000806040838503121561191957600080fd5b611922836118ea565b946020939093013593505050565b6001600160e01b03198116811461049057600080fd5b60006020828403121561195857600080fd5b813561196381611930565b9392505050565b634e487b7160e01b600052604160045260246000fd5b601f8201601f1916810167ffffffffffffffff811182821017156119a6576119a661196a565b6040525050565b600067ffffffffffffffff8311156119c7576119c761196a565b6040516119de601f8501601f191660200182611980565b8091508381528484840111156119f357600080fd5b83836020830137600060208583010152509392505050565b600060208284031215611a1d57600080fd5b813567ffffffffffffffff811115611a3457600080fd5b8201601f81018413611a4557600080fd5b611a54848235602084016119ad565b949350505050565b600060208284031215611a6e57600080fd5b5035919050565b6000815180845260005b81811015611a9b57602081850181015186830182015201611a7f565b81811115611aad576000602083870101525b50601f01601f19169290920160200192915050565b6020815260006119636020830184611a75565b600067ffffffffffffffff821115611aef57611aef61196a565b5060051b60200190565b600082601f830112611b0a57600080fd5b81356020611b1782611ad5565b604051611b248282611980565b83815260059390931b8501820192828101915086841115611b4457600080fd5b8286015b84811015611b5f5780358352918301918301611b48565b509695505050505050565b600082601f830112611b7b57600080fd5b611963838335602085016119ad565b60008060008060808587031215611ba057600080fd5b611ba9856118ea565b9350602085013567ffffffffffffffff80821115611bc657600080fd5b611bd288838901611af9565b94506040870135915080821115611be857600080fd5b611bf488838901611af9565b93506060870135915080821115611c0a57600080fd5b50611c1787828801611b6a565b91505092959194509250565b600080600080600060a08688031215611c3b57600080fd5b611c44866118ea565b9450611c52602087016118ea565b9350604086013567ffffffffffffffff80821115611c6f57600080fd5b611c7b89838a01611af9565b94506060880135915080821115611c9157600080fd5b611c9d89838a01611af9565b93506080880135915080821115611cb357600080fd5b50611cc088828901611b6a565b9150509295509295909350565b60008060408385031215611ce057600080fd5b823567ffffffffffffffff80821115611cf857600080fd5b818501915085601f830112611d0c57600080fd5b81356020611d1982611ad5565b604051611d268282611980565b83815260059390931b8501820192828101915089841115611d4657600080fd5b948201945b83861015611d6b57611d5c866118ea565b82529482019490820190611d4b565b96505086013592505080821115611d8157600080fd5b50611d8e85828601611af9565b9150509250929050565b600081518084526020808501945080840160005b83811015611dc857815187529582019590820190600101611dac565b509495945050505050565b6020815260006119636020830184611d98565b600080600060608486031215611dfb57600080fd5b611e04846118ea565b9250602084013567ffffffffffffffff80821115611e2157600080fd5b611e2d87838801611af9565b93506040860135915080821115611e4357600080fd5b50611e5086828701611af9565b9150509250925092565b60008060008060808587031215611e7057600080fd5b611e79856118ea565b93506020850135925060408501359150606085013567ffffffffffffffff811115611ea357600080fd5b611c1787828801611b6a565b60008060408385031215611ec257600080fd5b611ecb836118ea565b915060208301358015158114611ee057600080fd5b809150509250929050565b83815260ff83166020820152606060408201526000611f0d6060830184611a75565b95945050505050565b60008060408385031215611f2957600080fd5b611f32836118ea565b9150611f40602084016118ea565b90509250929050565b600080600080600060a08688031215611f6157600080fd5b611f6a866118ea565b9450611f78602087016118ea565b93506040860135925060608601359150608086013567ffffffffffffffff811115611fa257600080fd5b611cc088828901611b6a565b600060208284031215611fc057600080fd5b611963826118ea565b600080600060608486031215611fde57600080fd5b611fe7846118ea565b95602085013595506040909401359392505050565b6020808252818101527f4f776e61626c653a2063616c6c6572206973206e6f7420746865206f776e6572604082015260600190565b600181811c9082168061204557607f821691505b6020821081141561206657634e487b7160e01b600052602260045260246000fd5b50919050565b634e487b7160e01b600052603260045260246000fd5b634e487b7160e01b600052601160045260246000fd5b60006000198214156120ac576120ac612082565b5060010190565b60208082526029908201527f455243313135353a2063616c6c6572206973206e6f74206f776e6572206e6f7260408201526808185c1c1c9bdd995960ba1b606082015260800190565b60208082526021908201527f455243313135353a206d696e7420746f20746865207a65726f206164647265736040820152607360f81b606082015260800190565b60208082526028908201527f455243313135353a2069647320616e6420616d6f756e7473206c656e677468206040820152670dad2e6dac2e8c6d60c31b606082015260800190565b6000821982111561219857612198612082565b500190565b6040815260006121b06040830185611d98565b8281036020840152611f0d8185611d98565b60208082526025908201527f455243313135353a207472616e7366657220746f20746865207a65726f206164604082015264647265737360d81b606082015260800190565b6020808252602a908201527f455243313135353a20696e73756666696369656e742062616c616e636520666f60408201526939103a3930b739b332b960b11b606082015260800190565b60208082526023908201527f455243313135353a206275726e2066726f6d20746865207a65726f206164647260408201526265737360e81b606082015260800190565b60208082526024908201527f455243313135353a206275726e20616d6f756e7420657863656564732062616c604082015263616e636560e01b606082015260800190565b6001600160a01b0386811682528516602082015260a06040820181905260009061230490830186611d98565b82810360608401526123168186611d98565b9050828103608084015261232a8185611a75565b98975050505050505050565b60006020828403121561234857600080fd5b815161196381611930565b600060033d111561236c5760046000803e5060005160e01c5b90565b600060443d101561237d5790565b6040516003193d81016004833e81513d67ffffffffffffffff81602484011181841117156123ad57505050505090565b82850191508151818111156123c55750505050505090565b843d87010160208285010111156123df5750505050505090565b6123ee60208286010187611980565b509095945050505050565b60208082526028908201527f455243313135353a204552433131353552656365697665722072656a656374656040820152676420746f6b656e7360c01b606082015260800190565b6001600160a01b03868116825285166020820152604081018490526060810183905260a06080820181905260009061247b90830184611a75565b979650505050505050565b60008282101561249857612498612082565b50039056fea2646970667358221220e510ecc6ca8cb3baaac3bb5a5c36ab2d5707f1c58a10453e18ab4812d655581864736f6c63430008090033",
  "immutableReferences": {},
  "source": "// SPDX-License-Identifier: GPL-3.0-or-later\n\npragma solidity ^0.8.9;\n\nimport \"../tokens/ERC1155Custom.sol\";\n\ncontract RAMNFT is ERC1155Custom {\n    struct RAMDetails {\n        uint256 clockSpeed;\n        uint8 storageSpace;\n        string grade;\n    }\n\n    mapping(uint256 => RAMDetails) private _tokenDetails;\n\n    constructor(string memory _uri) ERC1155Custom(_uri) {}\n\n    function getTokenDetails(uint256 id)\n        public\n        view\n        returns (\n            uint256,\n            uint8,\n            string memory\n        )\n    {\n        RAMDetails memory ramDetailsByTokenId = _tokenDetails[id];\n        return (\n            ramDetailsByTokenId.clockSpeed,\n            ramDetailsByTokenId.storageSpace,\n            ramDetailsByTokenId.grade\n        );\n    }\n\n    function setTokenDetails() public onlyOwner {}\n}\n",
  "sourcePath": "/home/yosephkurniasoenggoro/Documents/GitHub/miners-nations-smart-contracts/contracts/nfts/RAM.sol",
  "compiler": {
    "name": "solc",
    "version": "0.8.9+commit.e5eed63a.Emscripten.clang"
  },
  "schemaVersion": "3.4.3",
  "updatedAt": "2022-01-08T17:12:57.636Z",
  "devdoc": {
    "kind": "dev",
    "methods": {
      "balanceOf(address,uint256)": {
        "details": "See {IERC1155-balanceOf}. Requirements: - `account` cannot be the zero address."
      },
      "balanceOfBatch(address[],uint256[])": {
        "details": "See {IERC1155-balanceOfBatch}. Requirements: - `accounts` and `ids` must have the same length."
      },
      "exists(uint256)": {
        "details": "Indicates whether any token exist with a given id, or not."
      },
      "isApprovedForAll(address,address)": {
        "details": "See {IERC1155-isApprovedForAll}."
      },
      "owner()": {
        "details": "Returns the address of the current owner."
      },
      "paused()": {
        "details": "Returns true if the contract is paused, and false otherwise."
      },
      "renounceOwnership()": {
        "details": "Leaves the contract without owner. It will not be possible to call `onlyOwner` functions anymore. Can only be called by the current owner. NOTE: Renouncing ownership will leave the contract without an owner, thereby removing any functionality that is only available to the owner."
      },
      "safeBatchTransferFrom(address,address,uint256[],uint256[],bytes)": {
        "details": "See {IERC1155-safeBatchTransferFrom}."
      },
      "safeTransferFrom(address,address,uint256,uint256,bytes)": {
        "details": "See {IERC1155-safeTransferFrom}."
      },
      "setApprovalForAll(address,bool)": {
        "details": "See {IERC1155-setApprovalForAll}."
      },
      "supportsInterface(bytes4)": {
        "details": "See {IERC165-supportsInterface}."
      },
      "totalSupply(uint256)": {
        "details": "Total amount of tokens in with a given id."
      },
      "transferOwnership(address)": {
        "details": "Transfers ownership of the contract to a new account (`newOwner`). Can only be called by the current owner."
      },
      "uri(uint256)": {
        "details": "See {IERC1155MetadataURI-uri}. This implementation returns the same URI for *all* token types. It relies on the token type ID substitution mechanism https://eips.ethereum.org/EIPS/eip-1155#metadata[defined in the EIP]. Clients calling this function must replace the `\\{id\\}` substring with the actual token type ID."
      }
    },
    "version": 1
  },
  "userdoc": {
    "kind": "user",
    "methods": {},
    "version": 1
  }
}