{
  "contractName": "RIG",
  "abi": [
    {
      "inputs": [],
      "stateMutability": "nonpayable",
      "type": "constructor"
    },
    {
      "anonymous": false,
      "inputs": [
        {
          "indexed": true,
          "internalType": "address",
          "name": "owner",
          "type": "address"
        },
        {
          "indexed": true,
          "internalType": "address",
          "name": "spender",
          "type": "address"
        },
        {
          "indexed": false,
          "internalType": "uint256",
          "name": "value",
          "type": "uint256"
        }
      ],
      "name": "Approval",
      "type": "event"
    },
    {
      "anonymous": false,
      "inputs": [
        {
          "indexed": true,
          "internalType": "address",
          "name": "delegator",
          "type": "address"
        },
        {
          "indexed": true,
          "internalType": "address",
          "name": "fromDelegate",
          "type": "address"
        },
        {
          "indexed": true,
          "internalType": "address",
          "name": "toDelegate",
          "type": "address"
        }
      ],
      "name": "DelegateChanged",
      "type": "event"
    },
    {
      "anonymous": false,
      "inputs": [
        {
          "indexed": true,
          "internalType": "address",
          "name": "delegate",
          "type": "address"
        },
        {
          "indexed": false,
          "internalType": "uint256",
          "name": "previousBalance",
          "type": "uint256"
        },
        {
          "indexed": false,
          "internalType": "uint256",
          "name": "newBalance",
          "type": "uint256"
        }
      ],
      "name": "DelegateVotesChanged",
      "type": "event"
    },
    {
      "anonymous": false,
      "inputs": [
        {
          "indexed": true,
          "internalType": "address",
          "name": "previousOwner",
          "type": "address"
        },
        {
          "indexed": true,
          "internalType": "address",
          "name": "newOwner",
          "type": "address"
        }
      ],
      "name": "OwnershipTransferred",
      "type": "event"
    },
    {
      "anonymous": false,
      "inputs": [
        {
          "indexed": true,
          "internalType": "address",
          "name": "from",
          "type": "address"
        },
        {
          "indexed": true,
          "internalType": "address",
          "name": "to",
          "type": "address"
        },
        {
          "indexed": false,
          "internalType": "uint256",
          "name": "value",
          "type": "uint256"
        }
      ],
      "name": "Transfer",
      "type": "event"
    },
    {
      "inputs": [],
      "name": "DOMAIN_SEPARATOR",
      "outputs": [
        {
          "internalType": "bytes32",
          "name": "",
          "type": "bytes32"
        }
      ],
      "stateMutability": "view",
      "type": "function"
    },
    {
      "inputs": [
        {
          "internalType": "address",
          "name": "owner",
          "type": "address"
        },
        {
          "internalType": "address",
          "name": "spender",
          "type": "address"
        }
      ],
      "name": "allowance",
      "outputs": [
        {
          "internalType": "uint256",
          "name": "",
          "type": "uint256"
        }
      ],
      "stateMutability": "view",
      "type": "function"
    },
    {
      "inputs": [
        {
          "internalType": "address",
          "name": "spender",
          "type": "address"
        },
        {
          "internalType": "uint256",
          "name": "amount",
          "type": "uint256"
        }
      ],
      "name": "approve",
      "outputs": [
        {
          "internalType": "bool",
          "name": "",
          "type": "bool"
        }
      ],
      "stateMutability": "nonpayable",
      "type": "function"
    },
    {
      "inputs": [
        {
          "internalType": "address",
          "name": "account",
          "type": "address"
        }
      ],
      "name": "balanceOf",
      "outputs": [
        {
          "internalType": "uint256",
          "name": "",
          "type": "uint256"
        }
      ],
      "stateMutability": "view",
      "type": "function"
    },
    {
      "inputs": [
        {
          "internalType": "uint256",
          "name": "amount",
          "type": "uint256"
        }
      ],
      "name": "burn",
      "outputs": [],
      "stateMutability": "nonpayable",
      "type": "function"
    },
    {
      "inputs": [
        {
          "internalType": "address",
          "name": "account",
          "type": "address"
        },
        {
          "internalType": "uint256",
          "name": "amount",
          "type": "uint256"
        }
      ],
      "name": "burnFrom",
      "outputs": [],
      "stateMutability": "nonpayable",
      "type": "function"
    },
    {
      "inputs": [],
      "name": "cap",
      "outputs": [
        {
          "internalType": "uint256",
          "name": "",
          "type": "uint256"
        }
      ],
      "stateMutability": "view",
      "type": "function"
    },
    {
      "inputs": [
        {
          "internalType": "address",
          "name": "account",
          "type": "address"
        },
        {
          "internalType": "uint32",
          "name": "pos",
          "type": "uint32"
        }
      ],
      "name": "checkpoints",
      "outputs": [
        {
          "components": [
            {
              "internalType": "uint32",
              "name": "fromBlock",
              "type": "uint32"
            },
            {
              "internalType": "uint224",
              "name": "votes",
              "type": "uint224"
            }
          ],
          "internalType": "struct ERC20Votes.Checkpoint",
          "name": "",
          "type": "tuple"
        }
      ],
      "stateMutability": "view",
      "type": "function"
    },
    {
      "inputs": [],
      "name": "decimals",
      "outputs": [
        {
          "internalType": "uint8",
          "name": "",
          "type": "uint8"
        }
      ],
      "stateMutability": "view",
      "type": "function"
    },
    {
      "inputs": [
        {
          "internalType": "address",
          "name": "spender",
          "type": "address"
        },
        {
          "internalType": "uint256",
          "name": "subtractedValue",
          "type": "uint256"
        }
      ],
      "name": "decreaseAllowance",
      "outputs": [
        {
          "internalType": "bool",
          "name": "",
          "type": "bool"
        }
      ],
      "stateMutability": "nonpayable",
      "type": "function"
    },
    {
      "inputs": [
        {
          "internalType": "uint256",
          "name": "_decreaseCap",
          "type": "uint256"
        }
      ],
      "name": "decreaseCap",
      "outputs": [],
      "stateMutability": "nonpayable",
      "type": "function"
    },
    {
      "inputs": [
        {
          "internalType": "address",
          "name": "delegatee",
          "type": "address"
        }
      ],
      "name": "delegate",
      "outputs": [],
      "stateMutability": "nonpayable",
      "type": "function"
    },
    {
      "inputs": [
        {
          "internalType": "address",
          "name": "delegatee",
          "type": "address"
        },
        {
          "internalType": "uint256",
          "name": "nonce",
          "type": "uint256"
        },
        {
          "internalType": "uint256",
          "name": "expiry",
          "type": "uint256"
        },
        {
          "internalType": "uint8",
          "name": "v",
          "type": "uint8"
        },
        {
          "internalType": "bytes32",
          "name": "r",
          "type": "bytes32"
        },
        {
          "internalType": "bytes32",
          "name": "s",
          "type": "bytes32"
        }
      ],
      "name": "delegateBySig",
      "outputs": [],
      "stateMutability": "nonpayable",
      "type": "function"
    },
    {
      "inputs": [
        {
          "internalType": "address",
          "name": "account",
          "type": "address"
        }
      ],
      "name": "delegates",
      "outputs": [
        {
          "internalType": "address",
          "name": "",
          "type": "address"
        }
      ],
      "stateMutability": "view",
      "type": "function"
    },
    {
      "inputs": [
        {
          "internalType": "address",
          "name": "token",
          "type": "address"
        },
        {
          "internalType": "uint256",
          "name": "amount",
          "type": "uint256"
        }
      ],
      "name": "flashFee",
      "outputs": [
        {
          "internalType": "uint256",
          "name": "",
          "type": "uint256"
        }
      ],
      "stateMutability": "view",
      "type": "function"
    },
    {
      "inputs": [
        {
          "internalType": "contract IERC3156FlashBorrower",
          "name": "receiver",
          "type": "address"
        },
        {
          "internalType": "address",
          "name": "token",
          "type": "address"
        },
        {
          "internalType": "uint256",
          "name": "amount",
          "type": "uint256"
        },
        {
          "internalType": "bytes",
          "name": "data",
          "type": "bytes"
        }
      ],
      "name": "flashLoan",
      "outputs": [
        {
          "internalType": "bool",
          "name": "",
          "type": "bool"
        }
      ],
      "stateMutability": "nonpayable",
      "type": "function"
    },
    {
      "inputs": [
        {
          "internalType": "uint256",
          "name": "blockNumber",
          "type": "uint256"
        }
      ],
      "name": "getPastTotalSupply",
      "outputs": [
        {
          "internalType": "uint256",
          "name": "",
          "type": "uint256"
        }
      ],
      "stateMutability": "view",
      "type": "function"
    },
    {
      "inputs": [
        {
          "internalType": "address",
          "name": "account",
          "type": "address"
        },
        {
          "internalType": "uint256",
          "name": "blockNumber",
          "type": "uint256"
        }
      ],
      "name": "getPastVotes",
      "outputs": [
        {
          "internalType": "uint256",
          "name": "",
          "type": "uint256"
        }
      ],
      "stateMutability": "view",
      "type": "function"
    },
    {
      "inputs": [
        {
          "internalType": "address",
          "name": "account",
          "type": "address"
        }
      ],
      "name": "getVotes",
      "outputs": [
        {
          "internalType": "uint256",
          "name": "",
          "type": "uint256"
        }
      ],
      "stateMutability": "view",
      "type": "function"
    },
    {
      "inputs": [
        {
          "internalType": "address",
          "name": "spender",
          "type": "address"
        },
        {
          "internalType": "uint256",
          "name": "addedValue",
          "type": "uint256"
        }
      ],
      "name": "increaseAllowance",
      "outputs": [
        {
          "internalType": "bool",
          "name": "",
          "type": "bool"
        }
      ],
      "stateMutability": "nonpayable",
      "type": "function"
    },
    {
      "inputs": [
        {
          "internalType": "uint256",
          "name": "_increaseCap",
          "type": "uint256"
        }
      ],
      "name": "increaseCap",
      "outputs": [],
      "stateMutability": "nonpayable",
      "type": "function"
    },
    {
      "inputs": [
        {
          "internalType": "address",
          "name": "token",
          "type": "address"
        }
      ],
      "name": "maxFlashLoan",
      "outputs": [
        {
          "internalType": "uint256",
          "name": "",
          "type": "uint256"
        }
      ],
      "stateMutability": "view",
      "type": "function"
    },
    {
      "inputs": [],
      "name": "name",
      "outputs": [
        {
          "internalType": "string",
          "name": "",
          "type": "string"
        }
      ],
      "stateMutability": "view",
      "type": "function"
    },
    {
      "inputs": [
        {
          "internalType": "address",
          "name": "owner",
          "type": "address"
        }
      ],
      "name": "nonces",
      "outputs": [
        {
          "internalType": "uint256",
          "name": "",
          "type": "uint256"
        }
      ],
      "stateMutability": "view",
      "type": "function"
    },
    {
      "inputs": [
        {
          "internalType": "address",
          "name": "account",
          "type": "address"
        }
      ],
      "name": "numCheckpoints",
      "outputs": [
        {
          "internalType": "uint32",
          "name": "",
          "type": "uint32"
        }
      ],
      "stateMutability": "view",
      "type": "function"
    },
    {
      "inputs": [],
      "name": "owner",
      "outputs": [
        {
          "internalType": "address",
          "name": "",
          "type": "address"
        }
      ],
      "stateMutability": "view",
      "type": "function"
    },
    {
      "inputs": [
        {
          "internalType": "address",
          "name": "owner",
          "type": "address"
        },
        {
          "internalType": "address",
          "name": "spender",
          "type": "address"
        },
        {
          "internalType": "uint256",
          "name": "value",
          "type": "uint256"
        },
        {
          "internalType": "uint256",
          "name": "deadline",
          "type": "uint256"
        },
        {
          "internalType": "uint8",
          "name": "v",
          "type": "uint8"
        },
        {
          "internalType": "bytes32",
          "name": "r",
          "type": "bytes32"
        },
        {
          "internalType": "bytes32",
          "name": "s",
          "type": "bytes32"
        }
      ],
      "name": "permit",
      "outputs": [],
      "stateMutability": "nonpayable",
      "type": "function"
    },
    {
      "inputs": [],
      "name": "renounceOwnership",
      "outputs": [],
      "stateMutability": "nonpayable",
      "type": "function"
    },
    {
      "inputs": [
        {
          "internalType": "uint256",
          "name": "_newCap",
          "type": "uint256"
        }
      ],
      "name": "setCap",
      "outputs": [],
      "stateMutability": "nonpayable",
      "type": "function"
    },
    {
      "inputs": [],
      "name": "symbol",
      "outputs": [
        {
          "internalType": "string",
          "name": "",
          "type": "string"
        }
      ],
      "stateMutability": "view",
      "type": "function"
    },
    {
      "inputs": [],
      "name": "totalSupply",
      "outputs": [
        {
          "internalType": "uint256",
          "name": "",
          "type": "uint256"
        }
      ],
      "stateMutability": "view",
      "type": "function"
    },
    {
      "inputs": [
        {
          "internalType": "address",
          "name": "recipient",
          "type": "address"
        },
        {
          "internalType": "uint256",
          "name": "amount",
          "type": "uint256"
        }
      ],
      "name": "transfer",
      "outputs": [
        {
          "internalType": "bool",
          "name": "",
          "type": "bool"
        }
      ],
      "stateMutability": "nonpayable",
      "type": "function"
    },
    {
      "inputs": [
        {
          "internalType": "address",
          "name": "sender",
          "type": "address"
        },
        {
          "internalType": "address",
          "name": "recipient",
          "type": "address"
        },
        {
          "internalType": "uint256",
          "name": "amount",
          "type": "uint256"
        }
      ],
      "name": "transferFrom",
      "outputs": [
        {
          "internalType": "bool",
          "name": "",
          "type": "bool"
        }
      ],
      "stateMutability": "nonpayable",
      "type": "function"
    },
    {
      "inputs": [
        {
          "internalType": "address",
          "name": "newOwner",
          "type": "address"
        }
      ],
      "name": "transferOwnership",
      "outputs": [],
      "stateMutability": "nonpayable",
      "type": "function"
    }
  ],
  "bytecode": "0x6101606040527f6e71edae12b1b97f4d1f60370fef10105fa2faae0126114a169c64845d6126c9610140523480156200003757600080fd5b50604051806040016040528060098152602001682924a3902a37b5b2b760b91b8152506040518060400160405280600381526020016252494760e81b815250655af3107a40008180604051806040016040528060018152602001603160f81b81525085858160039080519060200190620000b39291906200022a565b508051620000c99060049060208401906200022a565b505050620000e6620000e0620001d460201b60201c565b620001d8565b815160209283012081519183019190912060e08290526101008190524660a0818152604080517f8b73c3c69bb8fe3d512ecc4cf759cc79239f7b179b0ffacaa9a75d522b39400f818801819052818301969096526060810194909452608080850193909352308483018190528151808603909301835260c094850190915281519190950120905291909152610120525080620001c85760405162461bcd60e51b815260206004820152601560248201527f45524332304361707065643a2063617020697320300000000000000000000000604482015260640160405180910390fd5b600755506200030d9050565b3390565b600580546001600160a01b038381166001600160a01b0319831681179093556040519116919082907f8be0079c531659141344cd1fd0a4f28419497f9722a3daafe3b4186f6b6457e090600090a35050565b8280546200023890620002d0565b90600052602060002090601f0160209004810192826200025c5760008555620002a7565b82601f106200027757805160ff1916838001178555620002a7565b82800160010185558215620002a7579182015b82811115620002a75782518255916020019190600101906200028a565b50620002b5929150620002b9565b5090565b5b80821115620002b55760008155600101620002ba565b600181811c90821680620002e557607f821691505b602082108114156200030757634e487b7160e01b600052602260045260246000fd5b50919050565b60805160a05160c05160e051610100516101205161014051612748620003686000396000610fbd015260006115d401526000611623015260006115fe0152600061155701526000611581015260006115ab01526127486000f3fe608060405234801561001057600080fd5b50600436106102065760003560e01c806370a082311161011a5780639ab24eb0116100ad578063d505accf1161007c578063d505accf14610478578063d9d98ce41461048b578063dd62ed3e1461049e578063f1127ed8146104d7578063f2fde38b1461051457600080fd5b80639ab24eb01461042c578063a457c2d71461043f578063a9059cbb14610452578063c3cda5201461046557600080fd5b80637ecebe00116100e95780637ecebe00146103ed5780638da5cb5b146104005780638e539e8c1461041157806395d89b411461042457600080fd5b806370a0823114610396578063715018a6146103bf5780637430a689146103c757806379cc6790146103da57600080fd5b80633a46b1a81161019d578063587cde1e1161016c578063587cde1e146102f15780635c19a95c146103355780635cffe9de14610348578063613255ab1461035b5780636fcfff451461036e57600080fd5b80633a46b1a8146102a357806342966c68146102b657806347786d37146102cb578063523e9551146102de57600080fd5b8063313ce567116101d9578063313ce56714610271578063355274ea146102805780633644e51514610288578063395093511461029057600080fd5b806306fdde031461020b578063095ea7b31461022957806318160ddd1461024c57806323b872dd1461025e575b600080fd5b610213610527565b60405161022091906122a6565b60405180910390f35b61023c610237366004612310565b6105b9565b6040519015158152602001610220565b6002545b604051908152602001610220565b61023c61026c36600461233c565b6105cf565b60405160128152602001610220565b600754610250565b61025061067e565b61023c61029e366004612310565b61068d565b6102506102b1366004612310565b6106c9565b6102c96102c436600461237d565b610743565b005b6102c96102d936600461237d565b610750565b6102c96102ec36600461237d565b610802565b61031d6102ff366004612396565b6001600160a01b039081166000908152600860205260409020541690565b6040516001600160a01b039091168152602001610220565b6102c9610343366004612396565b6108b3565b61023c6103563660046123b3565b6108bd565b610250610369366004612396565b610aa9565b61038161037c366004612396565b610ad7565b60405163ffffffff9091168152602001610220565b6102506103a4366004612396565b6001600160a01b031660009081526020819052604090205490565b6102c9610af9565b6102c96103d536600461237d565b610b2f565b6102c96103e8366004612310565b610bf7565b6102506103fb366004612396565b610c7d565b6005546001600160a01b031661031d565b61025061041f36600461237d565b610c9b565b610213610cf7565b61025061043a366004612396565b610d06565b61023c61044d366004612310565b610d8d565b61023c610460366004612310565b610e26565b6102c9610473366004612468565b610e33565b6102c96104863660046124c2565b610f69565b610250610499366004612310565b6110cd565b6102506104ac366004612530565b6001600160a01b03918216600090815260016020908152604080832093909416825291909152205490565b6104ea6104e5366004612569565b611130565b60408051825163ffffffff1681526020928301516001600160e01b03169281019290925201610220565b6102c9610522366004612396565b6111b4565b606060038054610536906125a0565b80601f0160208091040260200160405190810160405280929190818152602001828054610562906125a0565b80156105af5780601f10610584576101008083540402835291602001916105af565b820191906000526020600020905b81548152906001019060200180831161059257829003601f168201915b5050505050905090565b60006105c633848461124c565b50600192915050565b60006105dc848484611370565b6001600160a01b0384166000908152600160209081526040808320338452909152902054828110156106665760405162461bcd60e51b815260206004820152602860248201527f45524332303a207472616e7366657220616d6f756e74206578636565647320616044820152676c6c6f77616e636560c01b60648201526084015b60405180910390fd5b610673853385840361124c565b506001949350505050565b600061068861154a565b905090565b3360008181526001602090815260408083206001600160a01b038716845290915281205490916105c69185906106c49086906125eb565b61124c565b600043821061071a5760405162461bcd60e51b815260206004820152601f60248201527f4552433230566f7465733a20626c6f636b206e6f7420796574206d696e656400604482015260640161065d565b6001600160a01b038316600090815260096020526040902061073c9083611671565b9392505050565b61074d338261172e565b50565b6005546001600160a01b0316331461077a5760405162461bcd60e51b815260040161065d90612603565b60025481116107fd5760405162461bcd60e51b815260206004820152604360248201527f4552433230437573746f6d3a204e6577206361702073657420746f206265206c60448201527f6f776572207468616e206f7220657175616c20746f20746f74616c20737570706064820152626c792160e81b608482015260a40161065d565b600755565b6005546001600160a01b0316331461082c5760405162461bcd60e51b815260040161065d90612603565b6000811161089b5760405162461bcd60e51b815260206004820152603660248201527f4552433230437573746f6d3a20496e637265617365204361702076616c756520604482015275686173206e6f6e2d76616c696420302076616c75652160501b606482015260840161065d565b6108ad6108a760075490565b8261173c565b60075550565b61074d3382611748565b6000806108ca86866110cd565b90506108d687866117c1565b6040516323e30c8b60e01b81527f439148f0bbc682ca079e46d6e2c2f0c1e3b820f1a291b069d8882abf8cf18dd9906001600160a01b038916906323e30c8b9061092e9033908b908b9088908c908c90600401612638565b602060405180830381600087803b15801561094857600080fd5b505af115801561095c573d6000803e3d6000fd5b505050506040513d601f19601f820116820180604052508101906109809190612694565b146109d95760405162461bcd60e51b8152602060048201526024808201527f4552433230466c6173684d696e743a20696e76616c69642072657475726e2076604482015263616c756560e01b606482015260840161065d565b6001600160a01b0387166000908152600160209081526040808320308452909152902054610a0782876125eb565b811015610a6e5760405162461bcd60e51b815260206004820152602f60248201527f4552433230466c6173684d696e743a20616c6c6f77616e636520646f6573206e60448201526e1bdd08185b1b1bddc81c99599d5b99608a1b606482015260840161065d565b610a88883084610a7e8a866126ad565b6106c491906126ad565b610a9b88610a9684896125eb565b61172e565b506001979650505050505050565b60006001600160a01b0382163014610ac2576000610ad1565b600254610ad1906000196126ad565b92915050565b6001600160a01b038116600090815260096020526040812054610ad1906117cb565b6005546001600160a01b03163314610b235760405162461bcd60e51b815260040161065d90612603565b610b2d6000611834565b565b6005546001600160a01b03163314610b595760405162461bcd60e51b815260040161065d90612603565b600081118015610b7c5750610b78610b7060075490565b600254611886565b8111155b610be55760405162461bcd60e51b815260206004820152603460248201527f4552433230437573746f6d3a204465637265617365204361702076616c756520604482015273686173206e6f6e2d76616c69642076616c75652160601b606482015260840161065d565b6108ad610bf160075490565b82611886565b6000610c0383336104ac565b905081811015610c615760405162461bcd60e51b8152602060048201526024808201527f45524332303a206275726e20616d6f756e74206578636565647320616c6c6f77604482015263616e636560e01b606482015260840161065d565b610c6e833384840361124c565b610c78838361172e565b505050565b6001600160a01b038116600090815260066020526040812054610ad1565b6000438210610cec5760405162461bcd60e51b815260206004820152601f60248201527f4552433230566f7465733a20626c6f636b206e6f7420796574206d696e656400604482015260640161065d565b610ad1600a83611671565b606060048054610536906125a0565b6001600160a01b0381166000908152600960205260408120548015610d7a576001600160a01b0383166000908152600960205260409020610d486001836126ad565b81548110610d5857610d586126c4565b60009182526020909120015464010000000090046001600160e01b0316610d7d565b60005b6001600160e01b03169392505050565b3360009081526001602090815260408083206001600160a01b038616845290915281205482811015610e0f5760405162461bcd60e51b815260206004820152602560248201527f45524332303a2064656372656173656420616c6c6f77616e63652062656c6f77604482015264207a65726f60d81b606482015260840161065d565b610e1c338585840361124c565b5060019392505050565b60006105c6338484611370565b83421115610e835760405162461bcd60e51b815260206004820152601d60248201527f4552433230566f7465733a207369676e61747572652065787069726564000000604482015260640161065d565b604080517fe48329057bfd03d55e49b547132e39cffd9c1820ad7b9d4c5307691425d15adf60208201526001600160a01b038816918101919091526060810186905260808101859052600090610efd90610ef59060a00160405160208183030381529060405280519060200120611892565b8585856118e0565b9050610f0881611908565b8614610f565760405162461bcd60e51b815260206004820152601960248201527f4552433230566f7465733a20696e76616c6964206e6f6e636500000000000000604482015260640161065d565b610f608188611748565b50505050505050565b83421115610fb95760405162461bcd60e51b815260206004820152601d60248201527f45524332305065726d69743a206578706972656420646561646c696e65000000604482015260640161065d565b60007f0000000000000000000000000000000000000000000000000000000000000000888888610fe88c611908565b6040805160208101969096526001600160a01b0394851690860152929091166060840152608083015260a082015260c0810186905260e001604051602081830303815290604052805190602001209050600061104382611892565b90506000611053828787876118e0565b9050896001600160a01b0316816001600160a01b0316146110b65760405162461bcd60e51b815260206004820152601e60248201527f45524332305065726d69743a20696e76616c6964207369676e61747572650000604482015260640161065d565b6110c18a8a8a61124c565b50505050505050505050565b60006001600160a01b03831630146111275760405162461bcd60e51b815260206004820152601b60248201527f4552433230466c6173684d696e743a2077726f6e6720746f6b656e0000000000604482015260640161065d565b50600092915050565b60408051808201909152600080825260208201526001600160a01b0383166000908152600960205260409020805463ffffffff8416908110611174576111746126c4565b60009182526020918290206040805180820190915291015463ffffffff8116825264010000000090046001600160e01b0316918101919091529392505050565b6005546001600160a01b031633146111de5760405162461bcd60e51b815260040161065d90612603565b6001600160a01b0381166112435760405162461bcd60e51b815260206004820152602660248201527f4f776e61626c653a206e6577206f776e657220697320746865207a65726f206160448201526564647265737360d01b606482015260840161065d565b61074d81611834565b6001600160a01b0383166112ae5760405162461bcd60e51b8152602060048201526024808201527f45524332303a20617070726f76652066726f6d20746865207a65726f206164646044820152637265737360e01b606482015260840161065d565b6001600160a01b03821661130f5760405162461bcd60e51b815260206004820152602260248201527f45524332303a20617070726f766520746f20746865207a65726f206164647265604482015261737360f01b606482015260840161065d565b6001600160a01b0383811660008181526001602090815260408083209487168084529482529182902085905590518481527f8c5be1e5ebec7d5bd14f71427d1e84f3dd0314c0f7b2291e5b200ac8c7c3b925910160405180910390a3505050565b6001600160a01b0383166113d45760405162461bcd60e51b815260206004820152602560248201527f45524332303a207472616e736665722066726f6d20746865207a65726f206164604482015264647265737360d81b606482015260840161065d565b6001600160a01b0382166114365760405162461bcd60e51b815260206004820152602360248201527f45524332303a207472616e7366657220746f20746865207a65726f206164647260448201526265737360e81b606482015260840161065d565b6001600160a01b038316600090815260208190526040902054818110156114ae5760405162461bcd60e51b815260206004820152602660248201527f45524332303a207472616e7366657220616d6f756e7420657863656564732062604482015265616c616e636560d01b606482015260840161065d565b6001600160a01b038085166000908152602081905260408082208585039055918516815290812080548492906114e59084906125eb565b92505081905550826001600160a01b0316846001600160a01b03167fddf252ad1be2c89b69c2b068fc378daa952ba7f163c4a11628f55a4df523b3ef8460405161153191815260200190565b60405180910390a3611544848484611930565b50505050565b6000306001600160a01b037f0000000000000000000000000000000000000000000000000000000000000000161480156115a357507f000000000000000000000000000000000000000000000000000000000000000046145b156115cd57507f000000000000000000000000000000000000000000000000000000000000000090565b50604080517f00000000000000000000000000000000000000000000000000000000000000006020808301919091527f0000000000000000000000000000000000000000000000000000000000000000828401527f000000000000000000000000000000000000000000000000000000000000000060608301524660808301523060a0808401919091528351808403909101815260c0909201909252805191012090565b8154600090815b818110156116d557600061168c828461193b565b9050848682815481106116a1576116a16126c4565b60009182526020909120015463ffffffff1611156116c1578092506116cf565b6116cc8160016125eb565b91505b50611678565b811561171957846116e76001846126ad565b815481106116f7576116f76126c4565b60009182526020909120015464010000000090046001600160e01b031661171c565b60005b6001600160e01b031695945050505050565b6117388282611956565b5050565b600061073c82846125eb565b6001600160a01b038281166000818152600860208181526040808420805485845282862054949093528787166001600160a01b03198416811790915590519190951694919391928592917f3134e8a2e6d97e929a7e54011ea5485d7d196dd5f0ba4d4ef95803e8e3fc257f9190a461154482848361196e565b6117388282611aab565b600063ffffffff8211156118305760405162461bcd60e51b815260206004820152602660248201527f53616665436173743a2076616c756520646f65736e27742066697420696e203360448201526532206269747360d01b606482015260840161065d565b5090565b600580546001600160a01b038381166001600160a01b0319831681179093556040519116919082907f8be0079c531659141344cd1fd0a4f28419497f9722a3daafe3b4186f6b6457e090600090a35050565b600061073c82846126ad565b6000610ad161189f61154a565b8360405161190160f01b6020820152602281018390526042810182905260009060620160405160208183030381529060405280519060200120905092915050565b60008060006118f187878787611b35565b915091506118fe81611c22565b5095945050505050565b6001600160a01b03811660009081526006602052604090208054600181018255905b50919050565b610c78838383611ddd565b600061194a60028484186126da565b61073c908484166125eb565b6119608282611e0f565b611544600a61188683611e19565b816001600160a01b0316836001600160a01b0316141580156119905750600081115b15610c78576001600160a01b03831615611a1e576001600160a01b038316600090815260096020526040812081906119cb9061188685611e19565b91509150846001600160a01b03167fdec2bacdd2f05b59de34da9b523dff8be42e5e38e818c82fdb0bae774387a7248383604051611a13929190918252602082015260400190565b60405180910390a250505b6001600160a01b03821615610c78576001600160a01b03821660009081526009602052604081208190611a549061173c85611e19565b91509150836001600160a01b03167fdec2bacdd2f05b59de34da9b523dff8be42e5e38e818c82fdb0bae774387a7248383604051611a9c929190918252602082015260400190565b60405180910390a25050505050565b611ab58282611f92565b6002546001600160e01b031015611b275760405162461bcd60e51b815260206004820152603060248201527f4552433230566f7465733a20746f74616c20737570706c79207269736b73206f60448201526f766572666c6f77696e6720766f74657360801b606482015260840161065d565b611544600a61173c83611e19565b6000807f7fffffffffffffffffffffffffffffff5d576e7357a4501ddfe92f46681b20a0831115611b6c5750600090506003611c19565b8460ff16601b14158015611b8457508460ff16601c14155b15611b955750600090506004611c19565b6040805160008082526020820180845289905260ff881692820192909252606081018690526080810185905260019060a0016020604051602081039080840390855afa158015611be9573d6000803e3d6000fd5b5050604051601f1901519150506001600160a01b038116611c1257600060019250925050611c19565b9150600090505b94509492505050565b6000816004811115611c3657611c366126fc565b1415611c3f5750565b6001816004811115611c5357611c536126fc565b1415611ca15760405162461bcd60e51b815260206004820152601860248201527f45434453413a20696e76616c6964207369676e61747572650000000000000000604482015260640161065d565b6002816004811115611cb557611cb56126fc565b1415611d035760405162461bcd60e51b815260206004820152601f60248201527f45434453413a20696e76616c6964207369676e6174757265206c656e67746800604482015260640161065d565b6003816004811115611d1757611d176126fc565b1415611d705760405162461bcd60e51b815260206004820152602260248201527f45434453413a20696e76616c6964207369676e6174757265202773272076616c604482015261756560f01b606482015260840161065d565b6004816004811115611d8457611d846126fc565b141561074d5760405162461bcd60e51b815260206004820152602260248201527f45434453413a20696e76616c6964207369676e6174757265202776272076616c604482015261756560f01b606482015260840161065d565b6001600160a01b03838116600090815260086020526040808220548584168352912054610c789291821691168361196e565b6117388282612001565b825460009081908015611e645785611e326001836126ad565b81548110611e4257611e426126c4565b60009182526020909120015464010000000090046001600160e01b0316611e67565b60005b6001600160e01b03169250611e8083858763ffffffff16565b9150600081118015611ebe57504386611e9a6001846126ad565b81548110611eaa57611eaa6126c4565b60009182526020909120015463ffffffff16145b15611f1e57611ecc82612156565b86611ed86001846126ad565b81548110611ee857611ee86126c4565b9060005260206000200160000160046101000a8154816001600160e01b0302191690836001600160e01b03160217905550611f89565b856040518060400160405280611f33436117cb565b63ffffffff168152602001611f4785612156565b6001600160e01b0390811690915282546001810184556000938452602093849020835194909301519091166401000000000263ffffffff909316929092179101555b50935093915050565b60075481611f9f60025490565b611fa991906125eb565b1115611ff75760405162461bcd60e51b815260206004820152601960248201527f45524332304361707065643a2063617020657863656564656400000000000000604482015260640161065d565b61173882826121bf565b6001600160a01b0382166120615760405162461bcd60e51b815260206004820152602160248201527f45524332303a206275726e2066726f6d20746865207a65726f206164647265736044820152607360f81b606482015260840161065d565b6001600160a01b038216600090815260208190526040902054818110156120d55760405162461bcd60e51b815260206004820152602260248201527f45524332303a206275726e20616d6f756e7420657863656564732062616c616e604482015261636560f01b606482015260840161065d565b6001600160a01b03831660009081526020819052604081208383039055600280548492906121049084906126ad565b90915550506040518281526000906001600160a01b038516907fddf252ad1be2c89b69c2b068fc378daa952ba7f163c4a11628f55a4df523b3ef9060200160405180910390a3610c7883600084611930565b60006001600160e01b038211156118305760405162461bcd60e51b815260206004820152602760248201527f53616665436173743a2076616c756520646f65736e27742066697420696e20326044820152663234206269747360c81b606482015260840161065d565b6001600160a01b0382166122155760405162461bcd60e51b815260206004820152601f60248201527f45524332303a206d696e7420746f20746865207a65726f206164647265737300604482015260640161065d565b806002600082825461222791906125eb565b90915550506001600160a01b038216600090815260208190526040812080548392906122549084906125eb565b90915550506040518181526001600160a01b038316906000907fddf252ad1be2c89b69c2b068fc378daa952ba7f163c4a11628f55a4df523b3ef9060200160405180910390a361173860008383611930565b600060208083528351808285015260005b818110156122d3578581018301518582016040015282016122b7565b818111156122e5576000604083870101525b50601f01601f1916929092016040019392505050565b6001600160a01b038116811461074d57600080fd5b6000806040838503121561232357600080fd5b823561232e816122fb565b946020939093013593505050565b60008060006060848603121561235157600080fd5b833561235c816122fb565b9250602084013561236c816122fb565b929592945050506040919091013590565b60006020828403121561238f57600080fd5b5035919050565b6000602082840312156123a857600080fd5b813561073c816122fb565b6000806000806000608086880312156123cb57600080fd5b85356123d6816122fb565b945060208601356123e6816122fb565b935060408601359250606086013567ffffffffffffffff8082111561240a57600080fd5b818801915088601f83011261241e57600080fd5b81358181111561242d57600080fd5b89602082850101111561243f57600080fd5b9699959850939650602001949392505050565b803560ff8116811461246357600080fd5b919050565b60008060008060008060c0878903121561248157600080fd5b863561248c816122fb565b955060208701359450604087013593506124a860608801612452565b92506080870135915060a087013590509295509295509295565b600080600080600080600060e0888a0312156124dd57600080fd5b87356124e8816122fb565b965060208801356124f8816122fb565b9550604088013594506060880135935061251460808901612452565b925060a0880135915060c0880135905092959891949750929550565b6000806040838503121561254357600080fd5b823561254e816122fb565b9150602083013561255e816122fb565b809150509250929050565b6000806040838503121561257c57600080fd5b8235612587816122fb565b9150602083013563ffffffff8116811461255e57600080fd5b600181811c908216806125b457607f821691505b6020821081141561192a57634e487b7160e01b600052602260045260246000fd5b634e487b7160e01b600052601160045260246000fd5b600082198211156125fe576125fe6125d5565b500190565b6020808252818101527f4f776e61626c653a2063616c6c6572206973206e6f7420746865206f776e6572604082015260600190565b6001600160a01b03878116825286166020820152604081018590526060810184905260a06080820181905281018290526000828460c0840137600060c0848401015260c0601f19601f8501168301019050979650505050505050565b6000602082840312156126a657600080fd5b5051919050565b6000828210156126bf576126bf6125d5565b500390565b634e487b7160e01b600052603260045260246000fd5b6000826126f757634e487b7160e01b600052601260045260246000fd5b500490565b634e487b7160e01b600052602160045260246000fdfea26469706673582212201eae32511039d4f528807966f7c219896aa3d73fb9bb3829e65ca3c25425fa0d64736f6c63430008090033",
  "immutableReferences": {
    "1717": [
      {
        "length": 32,
        "start": 4029
      }
    ],
    "2589": [
      {
        "length": 32,
        "start": 5547
      }
    ],
    "2591": [
      {
        "length": 32,
        "start": 5505
      }
    ],
    "2593": [
      {
        "length": 32,
        "start": 5463
      }
    ],
    "2595": [
      {
        "length": 32,
        "start": 5630
      }
    ],
    "2597": [
      {
        "length": 32,
        "start": 5667
      }
    ],
    "2599": [
      {
        "length": 32,
        "start": 5588
      }
    ]
  },
  "source": "// SPDX-License-Identifier: GPL-3.0-or-later\n\npragma solidity ^0.8.9;\n\nimport \"@openzeppelin/contracts/token/ERC20/extensions/ERC20Votes.sol\";\nimport \"../tokens/ERC20Custom.sol\";\n\ncontract RIG is ERC20Custom, ERC20Votes {\n    constructor() ERC20Custom(\"RIG Token\", \"RIG\", 100000000000000) {}\n\n    // The following functions are overrides required by Solidity.\n    function _afterTokenTransfer(\n        address from,\n        address to,\n        uint256 amount\n    ) internal override(ERC20Custom, ERC20Votes) {\n        super._afterTokenTransfer(from, to, amount);\n    }\n\n    function _mint(address to, uint256 amount)\n        internal\n        override(ERC20Custom, ERC20Votes)\n    {\n        super._mint(to, amount);\n    }\n\n    function _burn(address account, uint256 amount)\n        internal\n        override(ERC20Custom, ERC20Votes)\n    {\n        super._burn(account, amount);\n    }\n}\n",
  "sourcePath": "/home/yosephkurniasoenggoro/Documents/GitHub/miners-nations-smart-contracts/contracts/erc20/RIG.sol",
  "compiler": {
    "name": "solc",
    "version": "0.8.9+commit.e5eed63a.Emscripten.clang"
  },
  "schemaVersion": "3.4.3",
  "updatedAt": "2022-01-09T10:31:52.603Z",
  "devdoc": {
    "kind": "dev",
    "methods": {
      "DOMAIN_SEPARATOR()": {
        "details": "See {IERC20Permit-DOMAIN_SEPARATOR}."
      },
      "allowance(address,address)": {
        "details": "See {IERC20-allowance}."
      },
      "approve(address,uint256)": {
        "details": "See {IERC20-approve}. Requirements: - `spender` cannot be the zero address."
      },
      "balanceOf(address)": {
        "details": "See {IERC20-balanceOf}."
      },
      "burn(uint256)": {
        "details": "Destroys `amount` tokens from the caller. See {ERC20-_burn}."
      },
      "burnFrom(address,uint256)": {
        "details": "Destroys `amount` tokens from `account`, deducting from the caller's allowance. See {ERC20-_burn} and {ERC20-allowance}. Requirements: - the caller must have allowance for ``accounts``'s tokens of at least `amount`."
      },
      "cap()": {
        "details": "Returns the cap on the token's total supply."
      },
      "checkpoints(address,uint32)": {
        "details": "Get the `pos`-th checkpoint for `account`."
      },
      "decimals()": {
        "details": "Returns the number of decimals used to get its user representation. For example, if `decimals` equals `2`, a balance of `505` tokens should be displayed to a user as `5.05` (`505 / 10 ** 2`). Tokens usually opt for a value of 18, imitating the relationship between Ether and Wei. This is the value {ERC20} uses, unless this function is overridden; NOTE: This information is only used for _display_ purposes: it in no way affects any of the arithmetic of the contract, including {IERC20-balanceOf} and {IERC20-transfer}."
      },
      "decreaseAllowance(address,uint256)": {
        "details": "Atomically decreases the allowance granted to `spender` by the caller. This is an alternative to {approve} that can be used as a mitigation for problems described in {IERC20-approve}. Emits an {Approval} event indicating the updated allowance. Requirements: - `spender` cannot be the zero address. - `spender` must have allowance for the caller of at least `subtractedValue`."
      },
      "decreaseCap(uint256)": {
        "details": "Decrease the cap supply"
      },
      "delegate(address)": {
        "details": "Delegate votes from the sender to `delegatee`."
      },
      "delegateBySig(address,uint256,uint256,uint8,bytes32,bytes32)": {
        "details": "Delegates votes from signer to `delegatee`"
      },
      "delegates(address)": {
        "details": "Get the address `account` is currently delegating to."
      },
      "flashFee(address,uint256)": {
        "details": "Returns the fee applied when doing flash loans. By default this implementation has 0 fees. This function can be overloaded to make the flash loan mechanism deflationary.",
        "params": {
          "amount": "The amount of tokens to be loaned.",
          "token": "The token to be flash loaned."
        },
        "returns": {
          "_0": "The fees applied to the corresponding flash loan."
        }
      },
      "flashLoan(address,address,uint256,bytes)": {
        "details": "Performs a flash loan. New tokens are minted and sent to the `receiver`, who is required to implement the {IERC3156FlashBorrower} interface. By the end of the flash loan, the receiver is expected to own amount + fee tokens and have them approved back to the token contract itself so they can be burned.",
        "params": {
          "amount": "The amount of tokens to be loaned.",
          "data": "An arbitrary datafield that is passed to the receiver.",
          "receiver": "The receiver of the flash loan. Should implement the {IERC3156FlashBorrower.onFlashLoan} interface.",
          "token": "The token to be flash loaned. Only `address(this)` is supported."
        },
        "returns": {
          "_0": "`true` is the flash loan was successful."
        }
      },
      "getPastTotalSupply(uint256)": {
        "details": "Retrieve the `totalSupply` at the end of `blockNumber`. Note, this value is the sum of all balances. It is but NOT the sum of all the delegated votes! Requirements: - `blockNumber` must have been already mined"
      },
      "getPastVotes(address,uint256)": {
        "details": "Retrieve the number of votes for `account` at the end of `blockNumber`. Requirements: - `blockNumber` must have been already mined"
      },
      "getVotes(address)": {
        "details": "Gets the current votes balance for `account`"
      },
      "increaseAllowance(address,uint256)": {
        "details": "Atomically increases the allowance granted to `spender` by the caller. This is an alternative to {approve} that can be used as a mitigation for problems described in {IERC20-approve}. Emits an {Approval} event indicating the updated allowance. Requirements: - `spender` cannot be the zero address."
      },
      "increaseCap(uint256)": {
        "details": "Increase the cap supply"
      },
      "maxFlashLoan(address)": {
        "details": "Returns the maximum amount of tokens available for loan.",
        "params": {
          "token": "The address of the token that is requested."
        },
        "returns": {
          "_0": "The amont of token that can be loaned."
        }
      },
      "name()": {
        "details": "Returns the name of the token."
      },
      "nonces(address)": {
        "details": "See {IERC20Permit-nonces}."
      },
      "numCheckpoints(address)": {
        "details": "Get number of checkpoints for `account`."
      },
      "owner()": {
        "details": "Returns the address of the current owner."
      },
      "permit(address,address,uint256,uint256,uint8,bytes32,bytes32)": {
        "details": "See {IERC20Permit-permit}."
      },
      "renounceOwnership()": {
        "details": "Leaves the contract without owner. It will not be possible to call `onlyOwner` functions anymore. Can only be called by the current owner. NOTE: Renouncing ownership will leave the contract without an owner, thereby removing any functionality that is only available to the owner."
      },
      "setCap(uint256)": {
        "details": "Set new cap supply"
      },
      "symbol()": {
        "details": "Returns the symbol of the token, usually a shorter version of the name."
      },
      "totalSupply()": {
        "details": "See {IERC20-totalSupply}."
      },
      "transfer(address,uint256)": {
        "details": "See {IERC20-transfer}. Requirements: - `recipient` cannot be the zero address. - the caller must have a balance of at least `amount`."
      },
      "transferFrom(address,address,uint256)": {
        "details": "See {IERC20-transferFrom}. Emits an {Approval} event indicating the updated allowance. This is not required by the EIP. See the note at the beginning of {ERC20}. Requirements: - `sender` and `recipient` cannot be the zero address. - `sender` must have a balance of at least `amount`. - the caller must have allowance for ``sender``'s tokens of at least `amount`."
      },
      "transferOwnership(address)": {
        "details": "Transfers ownership of the contract to a new account (`newOwner`). Can only be called by the current owner."
      }
    },
    "version": 1
  },
  "userdoc": {
    "kind": "user",
    "methods": {},
    "version": 1
  }
}