{
  "contractName": "RIGNFT",
  "abi": [
    {
      "inputs": [
        {
          "internalType": "string",
          "name": "_name",
          "type": "string"
        },
        {
          "internalType": "string",
          "name": "_symbol",
          "type": "string"
        }
      ],
      "stateMutability": "nonpayable",
      "type": "constructor"
    },
    {
      "anonymous": false,
      "inputs": [
        {
          "indexed": true,
          "internalType": "address",
          "name": "owner",
          "type": "address"
        },
        {
          "indexed": true,
          "internalType": "address",
          "name": "approved",
          "type": "address"
        },
        {
          "indexed": true,
          "internalType": "uint256",
          "name": "tokenId",
          "type": "uint256"
        }
      ],
      "name": "Approval",
      "type": "event"
    },
    {
      "anonymous": false,
      "inputs": [
        {
          "indexed": true,
          "internalType": "address",
          "name": "owner",
          "type": "address"
        },
        {
          "indexed": true,
          "internalType": "address",
          "name": "operator",
          "type": "address"
        },
        {
          "indexed": false,
          "internalType": "bool",
          "name": "approved",
          "type": "bool"
        }
      ],
      "name": "ApprovalForAll",
      "type": "event"
    },
    {
      "anonymous": false,
      "inputs": [
        {
          "indexed": true,
          "internalType": "address",
          "name": "previousOwner",
          "type": "address"
        },
        {
          "indexed": true,
          "internalType": "address",
          "name": "newOwner",
          "type": "address"
        }
      ],
      "name": "OwnershipTransferred",
      "type": "event"
    },
    {
      "anonymous": false,
      "inputs": [
        {
          "indexed": false,
          "internalType": "address",
          "name": "account",
          "type": "address"
        }
      ],
      "name": "Paused",
      "type": "event"
    },
    {
      "anonymous": false,
      "inputs": [
        {
          "indexed": true,
          "internalType": "address",
          "name": "from",
          "type": "address"
        },
        {
          "indexed": true,
          "internalType": "address",
          "name": "to",
          "type": "address"
        },
        {
          "indexed": true,
          "internalType": "uint256",
          "name": "tokenId",
          "type": "uint256"
        }
      ],
      "name": "Transfer",
      "type": "event"
    },
    {
      "anonymous": false,
      "inputs": [
        {
          "indexed": false,
          "internalType": "address",
          "name": "account",
          "type": "address"
        }
      ],
      "name": "Unpaused",
      "type": "event"
    },
    {
      "inputs": [
        {
          "internalType": "address",
          "name": "to",
          "type": "address"
        },
        {
          "internalType": "uint256",
          "name": "tokenId",
          "type": "uint256"
        }
      ],
      "name": "approve",
      "outputs": [],
      "stateMutability": "nonpayable",
      "type": "function"
    },
    {
      "inputs": [
        {
          "internalType": "address",
          "name": "owner",
          "type": "address"
        }
      ],
      "name": "balanceOf",
      "outputs": [
        {
          "internalType": "uint256",
          "name": "",
          "type": "uint256"
        }
      ],
      "stateMutability": "view",
      "type": "function"
    },
    {
      "inputs": [
        {
          "internalType": "uint256",
          "name": "tokenId",
          "type": "uint256"
        }
      ],
      "name": "burn",
      "outputs": [],
      "stateMutability": "nonpayable",
      "type": "function"
    },
    {
      "inputs": [
        {
          "internalType": "uint256",
          "name": "tokenId",
          "type": "uint256"
        }
      ],
      "name": "getApproved",
      "outputs": [
        {
          "internalType": "address",
          "name": "",
          "type": "address"
        }
      ],
      "stateMutability": "view",
      "type": "function"
    },
    {
      "inputs": [
        {
          "internalType": "address",
          "name": "owner",
          "type": "address"
        },
        {
          "internalType": "address",
          "name": "operator",
          "type": "address"
        }
      ],
      "name": "isApprovedForAll",
      "outputs": [
        {
          "internalType": "bool",
          "name": "",
          "type": "bool"
        }
      ],
      "stateMutability": "view",
      "type": "function"
    },
    {
      "inputs": [],
      "name": "name",
      "outputs": [
        {
          "internalType": "string",
          "name": "",
          "type": "string"
        }
      ],
      "stateMutability": "view",
      "type": "function"
    },
    {
      "inputs": [],
      "name": "owner",
      "outputs": [
        {
          "internalType": "address",
          "name": "",
          "type": "address"
        }
      ],
      "stateMutability": "view",
      "type": "function"
    },
    {
      "inputs": [
        {
          "internalType": "uint256",
          "name": "tokenId",
          "type": "uint256"
        }
      ],
      "name": "ownerOf",
      "outputs": [
        {
          "internalType": "address",
          "name": "",
          "type": "address"
        }
      ],
      "stateMutability": "view",
      "type": "function"
    },
    {
      "inputs": [],
      "name": "pause",
      "outputs": [],
      "stateMutability": "nonpayable",
      "type": "function"
    },
    {
      "inputs": [],
      "name": "paused",
      "outputs": [
        {
          "internalType": "bool",
          "name": "",
          "type": "bool"
        }
      ],
      "stateMutability": "view",
      "type": "function"
    },
    {
      "inputs": [],
      "name": "renounceOwnership",
      "outputs": [],
      "stateMutability": "nonpayable",
      "type": "function"
    },
    {
      "inputs": [
        {
          "internalType": "address",
          "name": "to",
          "type": "address"
        },
        {
          "internalType": "string",
          "name": "uri",
          "type": "string"
        }
      ],
      "name": "safeMint",
      "outputs": [],
      "stateMutability": "nonpayable",
      "type": "function"
    },
    {
      "inputs": [
        {
          "internalType": "address",
          "name": "from",
          "type": "address"
        },
        {
          "internalType": "address",
          "name": "to",
          "type": "address"
        },
        {
          "internalType": "uint256",
          "name": "tokenId",
          "type": "uint256"
        }
      ],
      "name": "safeTransferFrom",
      "outputs": [],
      "stateMutability": "nonpayable",
      "type": "function"
    },
    {
      "inputs": [
        {
          "internalType": "address",
          "name": "from",
          "type": "address"
        },
        {
          "internalType": "address",
          "name": "to",
          "type": "address"
        },
        {
          "internalType": "uint256",
          "name": "tokenId",
          "type": "uint256"
        },
        {
          "internalType": "bytes",
          "name": "_data",
          "type": "bytes"
        }
      ],
      "name": "safeTransferFrom",
      "outputs": [],
      "stateMutability": "nonpayable",
      "type": "function"
    },
    {
      "inputs": [
        {
          "internalType": "address",
          "name": "operator",
          "type": "address"
        },
        {
          "internalType": "bool",
          "name": "approved",
          "type": "bool"
        }
      ],
      "name": "setApprovalForAll",
      "outputs": [],
      "stateMutability": "nonpayable",
      "type": "function"
    },
    {
      "inputs": [
        {
          "internalType": "bytes4",
          "name": "interfaceId",
          "type": "bytes4"
        }
      ],
      "name": "supportsInterface",
      "outputs": [
        {
          "internalType": "bool",
          "name": "",
          "type": "bool"
        }
      ],
      "stateMutability": "view",
      "type": "function"
    },
    {
      "inputs": [],
      "name": "symbol",
      "outputs": [
        {
          "internalType": "string",
          "name": "",
          "type": "string"
        }
      ],
      "stateMutability": "view",
      "type": "function"
    },
    {
      "inputs": [
        {
          "internalType": "uint256",
          "name": "tokenId",
          "type": "uint256"
        }
      ],
      "name": "tokenURI",
      "outputs": [
        {
          "internalType": "string",
          "name": "",
          "type": "string"
        }
      ],
      "stateMutability": "view",
      "type": "function"
    },
    {
      "inputs": [
        {
          "internalType": "address",
          "name": "from",
          "type": "address"
        },
        {
          "internalType": "address",
          "name": "to",
          "type": "address"
        },
        {
          "internalType": "uint256",
          "name": "tokenId",
          "type": "uint256"
        }
      ],
      "name": "transferFrom",
      "outputs": [],
      "stateMutability": "nonpayable",
      "type": "function"
    },
    {
      "inputs": [
        {
          "internalType": "address",
          "name": "newOwner",
          "type": "address"
        }
      ],
      "name": "transferOwnership",
      "outputs": [],
      "stateMutability": "nonpayable",
      "type": "function"
    },
    {
      "inputs": [],
      "name": "unpause",
      "outputs": [],
      "stateMutability": "nonpayable",
      "type": "function"
    },
    {
      "inputs": [
        {
          "internalType": "uint256",
          "name": "id",
          "type": "uint256"
        }
      ],
      "name": "getTokenDetails",
      "outputs": [
        {
          "internalType": "uint256",
          "name": "",
          "type": "uint256"
        },
        {
          "internalType": "uint8",
          "name": "",
          "type": "uint8"
        },
        {
          "internalType": "uint8",
          "name": "",
          "type": "uint8"
        },
        {
          "internalType": "uint256",
          "name": "",
          "type": "uint256"
        },
        {
          "internalType": "string",
          "name": "",
          "type": "string"
        },
        {
          "internalType": "string",
          "name": "",
          "type": "string"
        }
      ],
      "stateMutability": "view",
      "type": "function"
    },
    {
      "inputs": [],
      "name": "setTokenDetails",
      "outputs": [],
      "stateMutability": "nonpayable",
      "type": "function"
    }
  ],
  "bytecode": "0x60806040523480156200001157600080fd5b506040516200228538038062002285833981016040819052620000349162000255565b81818181816000908051906020019062000050929190620000e2565b50805162000066906001906020840190620000e2565b50506007805460ff19169055506200007e3362000088565b50505050620002fc565b600780546001600160a01b03838116610100818102610100600160a81b031985161790945560405193909204169182907f8be0079c531659141344cd1fd0a4f28419497f9722a3daafe3b4186f6b6457e090600090a35050565b828054620000f090620002bf565b90600052602060002090601f0160209004810192826200011457600085556200015f565b82601f106200012f57805160ff19168380011785556200015f565b828001600101855582156200015f579182015b828111156200015f57825182559160200191906001019062000142565b506200016d92915062000171565b5090565b5b808211156200016d576000815560010162000172565b634e487b7160e01b600052604160045260246000fd5b600082601f830112620001b057600080fd5b81516001600160401b0380821115620001cd57620001cd62000188565b604051601f8301601f19908116603f01168101908282118183101715620001f857620001f862000188565b816040528381526020925086838588010111156200021557600080fd5b600091505b838210156200023957858201830151818301840152908201906200021a565b838211156200024b5760008385830101525b9695505050505050565b600080604083850312156200026957600080fd5b82516001600160401b03808211156200028157600080fd5b6200028f868387016200019e565b93506020850151915080821115620002a657600080fd5b50620002b5858286016200019e565b9150509250929050565b600181811c90821680620002d457607f821691505b60208210811415620002f657634e487b7160e01b600052602260045260246000fd5b50919050565b611f79806200030c6000396000f3fe608060405234801561001057600080fd5b506004361061014d5760003560e01c806370a08231116100c3578063b88d4fde1161007c578063b88d4fde14610298578063c1e03728146102ab578063c87b56dd146102d0578063d204c45e146102e3578063e985e9c5146102f6578063f2fde38b1461033257600080fd5b806370a0823114610236578063715018a6146102575780638456cb591461025f5780638da5cb5b1461026757806395d89b411461027d578063a22cb4651461028557600080fd5b806323b872dd1161011557806323b872dd146101d75780633f4ba83a146101ea57806342842e0e146101f257806342966c68146102055780635c975abb146102185780636352211e1461022357600080fd5b806301ffc9a71461015257806306fdde031461017a578063081812fc1461018f578063095ea7b3146101ba578063136c93e6146101cf575b600080fd5b61016561016036600461198c565b610345565b60405190151581526020015b60405180910390f35b610182610397565b6040516101719190611a01565b6101a261019d366004611a14565b610429565b6040516001600160a01b039091168152602001610171565b6101cd6101c8366004611a49565b6104b6565b005b6101cd6105cc565b6101cd6101e5366004611a73565b6105fe565b6101cd610630565b6101cd610200366004611a73565b610668565b6101cd610213366004611a14565b610683565b60075460ff16610165565b6101a2610231366004611a14565b6106fd565b610249610244366004611aaf565b610774565b604051908152602001610171565b6101cd6107fb565b6101cd610835565b60075461010090046001600160a01b03166101a2565b61018261086d565b6101cd610293366004611aca565b61087c565b6101cd6102a6366004611b92565b61088b565b6102be6102b9366004611a14565b6108c3565b60405161017196959493929190611c0e565b6101826102de366004611a14565b610a76565b6101cd6102f1366004611c5e565b610a81565b610165610304366004611cc0565b6001600160a01b03918216600090815260056020908152604080832093909416825291909152205460ff1690565b6101cd610340366004611aaf565b610ae0565b60006001600160e01b031982166380ac58cd60e01b148061037657506001600160e01b03198216635b5e139f60e01b145b8061039157506301ffc9a760e01b6001600160e01b03198316145b92915050565b6060600080546103a690611cf3565b80601f01602080910402602001604051908101604052809291908181526020018280546103d290611cf3565b801561041f5780601f106103f45761010080835404028352916020019161041f565b820191906000526020600020905b81548152906001019060200180831161040257829003601f168201915b5050505050905090565b600061043482610b7e565b61049a5760405162461bcd60e51b815260206004820152602c60248201527f4552433732313a20617070726f76656420717565727920666f72206e6f6e657860448201526b34b9ba32b73a103a37b5b2b760a11b60648201526084015b60405180910390fd5b506000908152600460205260409020546001600160a01b031690565b60006104c1826106fd565b9050806001600160a01b0316836001600160a01b0316141561052f5760405162461bcd60e51b815260206004820152602160248201527f4552433732313a20617070726f76616c20746f2063757272656e74206f776e656044820152603960f91b6064820152608401610491565b336001600160a01b038216148061054b575061054b8133610304565b6105bd5760405162461bcd60e51b815260206004820152603860248201527f4552433732313a20617070726f76652063616c6c6572206973206e6f74206f7760448201527f6e6572206e6f7220617070726f76656420666f7220616c6c00000000000000006064820152608401610491565b6105c78383610b9b565b505050565b6007546001600160a01b036101009091041633146105fc5760405162461bcd60e51b815260040161049190611d2e565b565b610609335b82610c09565b6106255760405162461bcd60e51b815260040161049190611d63565b6105c7838383610cf3565b6007546001600160a01b036101009091041633146106605760405162461bcd60e51b815260040161049190611d2e565b6105fc610e9e565b6105c78383836040518060200160405280600081525061088b565b61068c33610603565b6106f15760405162461bcd60e51b815260206004820152603060248201527f4552433732314275726e61626c653a2063616c6c6572206973206e6f74206f7760448201526f1b995c881b9bdc88185c1c1c9bdd995960821b6064820152608401610491565b6106fa81610f31565b50565b6000818152600260205260408120546001600160a01b0316806103915760405162461bcd60e51b815260206004820152602960248201527f4552433732313a206f776e657220717565727920666f72206e6f6e657869737460448201526832b73a103a37b5b2b760b91b6064820152608401610491565b60006001600160a01b0382166107df5760405162461bcd60e51b815260206004820152602a60248201527f4552433732313a2062616c616e636520717565727920666f7220746865207a65604482015269726f206164647265737360b01b6064820152608401610491565b506001600160a01b031660009081526003602052604090205490565b6007546001600160a01b0361010090910416331461082b5760405162461bcd60e51b815260040161049190611d2e565b6105fc6000610f3a565b6007546001600160a01b036101009091041633146108655760405162461bcd60e51b815260040161049190611d2e565b6105fc610f94565b6060600180546103a690611cf3565b61088733838361100f565b5050565b6108953383610c09565b6108b15760405162461bcd60e51b815260040161049190611d63565b6108bd848484846110de565b50505050565b6000818152600960209081526040808320815160c08101835281548152600182015460ff80821695830195909552610100900490931691830191909152600281015460608381019190915260038201805485948594859493849386939291608084019161092f90611cf3565b80601f016020809104026020016040519081016040528092919081815260200182805461095b90611cf3565b80156109a85780601f1061097d576101008083540402835291602001916109a8565b820191906000526020600020905b81548152906001019060200180831161098b57829003601f168201915b505050505081526020016004820180546109c190611cf3565b80601f01602080910402602001604051908101604052809291908181526020018280546109ed90611cf3565b8015610a3a5780601f10610a0f57610100808354040283529160200191610a3a565b820191906000526020600020905b815481529060010190602001808311610a1d57829003601f168201915b5050509190925250508151602083015160408401516060850151608086015160a090960151939e929d50909b5099509297509550909350505050565b606061039182611111565b6007546001600160a01b03610100909104163314610ab15760405162461bcd60e51b815260040161049190611d2e565b6000610abc60085490565b9050610acc600880546001019055565b610ad68382611280565b6105c7818361129a565b6007546001600160a01b03610100909104163314610b105760405162461bcd60e51b815260040161049190611d2e565b6001600160a01b038116610b755760405162461bcd60e51b815260206004820152602660248201527f4f776e61626c653a206e6577206f776e657220697320746865207a65726f206160448201526564647265737360d01b6064820152608401610491565b6106fa81610f3a565b6000908152600260205260409020546001600160a01b0316151590565b600081815260046020526040902080546001600160a01b0319166001600160a01b0384169081179091558190610bd0826106fd565b6001600160a01b03167f8c5be1e5ebec7d5bd14f71427d1e84f3dd0314c0f7b2291e5b200ac8c7c3b92560405160405180910390a45050565b6000610c1482610b7e565b610c755760405162461bcd60e51b815260206004820152602c60248201527f4552433732313a206f70657261746f7220717565727920666f72206e6f6e657860448201526b34b9ba32b73a103a37b5b2b760a11b6064820152608401610491565b6000610c80836106fd565b9050806001600160a01b0316846001600160a01b03161480610cbb5750836001600160a01b0316610cb084610429565b6001600160a01b0316145b80610ceb57506001600160a01b0380821660009081526005602090815260408083209388168352929052205460ff165b949350505050565b826001600160a01b0316610d06826106fd565b6001600160a01b031614610d6e5760405162461bcd60e51b815260206004820152602960248201527f4552433732313a207472616e73666572206f6620746f6b656e2074686174206960448201526839903737ba1037bbb760b91b6064820152608401610491565b6001600160a01b038216610dd05760405162461bcd60e51b8152602060048201526024808201527f4552433732313a207472616e7366657220746f20746865207a65726f206164646044820152637265737360e01b6064820152608401610491565b610ddb838383611325565b610de6600082610b9b565b6001600160a01b0383166000908152600360205260408120805460019290610e0f908490611dca565b90915550506001600160a01b0382166000908152600360205260408120805460019290610e3d908490611de1565b909155505060008181526002602052604080822080546001600160a01b0319166001600160a01b0386811691821790925591518493918716917fddf252ad1be2c89b69c2b068fc378daa952ba7f163c4a11628f55a4df523b3ef91a4505050565b60075460ff16610ee75760405162461bcd60e51b815260206004820152601460248201527314185d5cd8589b194e881b9bdd081c185d5cd95960621b6044820152606401610491565b6007805460ff191690557f5db9ee0a495bf2e6ff9c91a7834c1ba4fdd244a5e8aa4e537bd38aeae4b073aa335b6040516001600160a01b03909116815260200160405180910390a1565b6106fa8161136b565b600780546001600160a01b03838116610100818102610100600160a81b031985161790945560405193909204169182907f8be0079c531659141344cd1fd0a4f28419497f9722a3daafe3b4186f6b6457e090600090a35050565b60075460ff1615610fda5760405162461bcd60e51b815260206004820152601060248201526f14185d5cd8589b194e881c185d5cd95960821b6044820152606401610491565b6007805460ff191660011790557f62e78cea01bee320cd4e420270b5ea74000d11b0c9f74754ebdbfc544b05a258610f143390565b816001600160a01b0316836001600160a01b031614156110715760405162461bcd60e51b815260206004820152601960248201527f4552433732313a20617070726f766520746f2063616c6c6572000000000000006044820152606401610491565b6001600160a01b03838116600081815260056020908152604080832094871680845294825291829020805460ff191686151590811790915591519182527f17307eab39ab6107e8899845ad3d59bd9653f200f220920489ca2b5937696c31910160405180910390a3505050565b6110e9848484610cf3565b6110f5848484846113ab565b6108bd5760405162461bcd60e51b815260040161049190611df9565b606061111c82610b7e565b6111825760405162461bcd60e51b815260206004820152603160248201527f45524337323155524953746f726167653a2055524920717565727920666f72206044820152703737b732bc34b9ba32b73a103a37b5b2b760791b6064820152608401610491565b6000828152600660205260408120805461119b90611cf3565b80601f01602080910402602001604051908101604052809291908181526020018280546111c790611cf3565b80156112145780601f106111e957610100808354040283529160200191611214565b820191906000526020600020905b8154815290600101906020018083116111f757829003601f168201915b50505050509050600061123260408051602081019091526000815290565b9050805160001415611245575092915050565b81511561127757808260405160200161125f929190611e4b565b60405160208183030381529060405292505050919050565b610ceb846114b8565b610887828260405180602001604052806000815250611590565b6112a382610b7e565b6113065760405162461bcd60e51b815260206004820152602e60248201527f45524337323155524953746f726167653a2055524920736574206f66206e6f6e60448201526d32bc34b9ba32b73a103a37b5b2b760911b6064820152608401610491565b600082815260066020908152604090912082516105c7928401906118a7565b60075460ff16156105c75760405162461bcd60e51b815260206004820152601060248201526f14185d5cd8589b194e881c185d5cd95960821b6044820152606401610491565b611374816115c3565b6000818152600660205260409020805461138d90611cf3565b1590506106fa5760008181526006602052604081206106fa9161192b565b60006001600160a01b0384163b156114ad57604051630a85bd0160e11b81526001600160a01b0385169063150b7a02906113ef903390899088908890600401611e7a565b602060405180830381600087803b15801561140957600080fd5b505af1925050508015611439575060408051601f3d908101601f1916820190925261143691810190611eb7565b60015b611493573d808015611467576040519150601f19603f3d011682016040523d82523d6000602084013e61146c565b606091505b50805161148b5760405162461bcd60e51b815260040161049190611df9565b805181602001fd5b6001600160e01b031916630a85bd0160e11b149050610ceb565b506001949350505050565b60606114c382610b7e565b6115275760405162461bcd60e51b815260206004820152602f60248201527f4552433732314d657461646174613a2055524920717565727920666f72206e6f60448201526e3732bc34b9ba32b73a103a37b5b2b760891b6064820152608401610491565b600061153e60408051602081019091526000815290565b9050600081511161155e5760405180602001604052806000815250611589565b806115688461166a565b604051602001611579929190611e4b565b6040516020818303038152906040525b9392505050565b61159a8383611768565b6115a760008484846113ab565b6105c75760405162461bcd60e51b815260040161049190611df9565b60006115ce826106fd565b90506115dc81600084611325565b6115e7600083610b9b565b6001600160a01b0381166000908152600360205260408120805460019290611610908490611dca565b909155505060008281526002602052604080822080546001600160a01b0319169055518391906001600160a01b038416907fddf252ad1be2c89b69c2b068fc378daa952ba7f163c4a11628f55a4df523b3ef908390a45050565b60608161168e5750506040805180820190915260018152600360fc1b602082015290565b8160005b81156116b857806116a281611ed4565b91506116b19050600a83611f05565b9150611692565b60008167ffffffffffffffff8111156116d3576116d3611b06565b6040519080825280601f01601f1916602001820160405280156116fd576020820181803683370190505b5090505b8415610ceb57611712600183611dca565b915061171f600a86611f19565b61172a906030611de1565b60f81b81838151811061173f5761173f611f2d565b60200101906001600160f81b031916908160001a905350611761600a86611f05565b9450611701565b6001600160a01b0382166117be5760405162461bcd60e51b815260206004820181905260248201527f4552433732313a206d696e7420746f20746865207a65726f20616464726573736044820152606401610491565b6117c781610b7e565b156118145760405162461bcd60e51b815260206004820152601c60248201527f4552433732313a20746f6b656e20616c7265616479206d696e746564000000006044820152606401610491565b61182060008383611325565b6001600160a01b0382166000908152600360205260408120805460019290611849908490611de1565b909155505060008181526002602052604080822080546001600160a01b0319166001600160a01b03861690811790915590518392907fddf252ad1be2c89b69c2b068fc378daa952ba7f163c4a11628f55a4df523b3ef908290a45050565b8280546118b390611cf3565b90600052602060002090601f0160209004810192826118d5576000855561191b565b82601f106118ee57805160ff191683800117855561191b565b8280016001018555821561191b579182015b8281111561191b578251825591602001919060010190611900565b50611927929150611961565b5090565b50805461193790611cf3565b6000825580601f10611947575050565b601f0160209004906000526020600020908101906106fa91905b5b808211156119275760008155600101611962565b6001600160e01b0319811681146106fa57600080fd5b60006020828403121561199e57600080fd5b813561158981611976565b60005b838110156119c45781810151838201526020016119ac565b838111156108bd5750506000910152565b600081518084526119ed8160208601602086016119a9565b601f01601f19169290920160200192915050565b60208152600061158960208301846119d5565b600060208284031215611a2657600080fd5b5035919050565b80356001600160a01b0381168114611a4457600080fd5b919050565b60008060408385031215611a5c57600080fd5b611a6583611a2d565b946020939093013593505050565b600080600060608486031215611a8857600080fd5b611a9184611a2d565b9250611a9f60208501611a2d565b9150604084013590509250925092565b600060208284031215611ac157600080fd5b61158982611a2d565b60008060408385031215611add57600080fd5b611ae683611a2d565b915060208301358015158114611afb57600080fd5b809150509250929050565b634e487b7160e01b600052604160045260246000fd5b600067ffffffffffffffff80841115611b3757611b37611b06565b604051601f8501601f19908116603f01168101908282118183101715611b5f57611b5f611b06565b81604052809350858152868686011115611b7857600080fd5b858560208301376000602087830101525050509392505050565b60008060008060808587031215611ba857600080fd5b611bb185611a2d565b9350611bbf60208601611a2d565b925060408501359150606085013567ffffffffffffffff811115611be257600080fd5b8501601f81018713611bf357600080fd5b611c0287823560208401611b1c565b91505092959194509250565b86815260ff8616602082015260ff8516604082015283606082015260c060808201526000611c3f60c08301856119d5565b82810360a0840152611c5181856119d5565b9998505050505050505050565b60008060408385031215611c7157600080fd5b611c7a83611a2d565b9150602083013567ffffffffffffffff811115611c9657600080fd5b8301601f81018513611ca757600080fd5b611cb685823560208401611b1c565b9150509250929050565b60008060408385031215611cd357600080fd5b611cdc83611a2d565b9150611cea60208401611a2d565b90509250929050565b600181811c90821680611d0757607f821691505b60208210811415611d2857634e487b7160e01b600052602260045260246000fd5b50919050565b6020808252818101527f4f776e61626c653a2063616c6c6572206973206e6f7420746865206f776e6572604082015260600190565b60208082526031908201527f4552433732313a207472616e736665722063616c6c6572206973206e6f74206f6040820152701ddb995c881b9bdc88185c1c1c9bdd9959607a1b606082015260800190565b634e487b7160e01b600052601160045260246000fd5b600082821015611ddc57611ddc611db4565b500390565b60008219821115611df457611df4611db4565b500190565b60208082526032908201527f4552433732313a207472616e7366657220746f206e6f6e20455243373231526560408201527131b2b4bb32b91034b6b83632b6b2b73a32b960711b606082015260800190565b60008351611e5d8184602088016119a9565b835190830190611e718183602088016119a9565b01949350505050565b6001600160a01b0385811682528416602082015260408101839052608060608201819052600090611ead908301846119d5565b9695505050505050565b600060208284031215611ec957600080fd5b815161158981611976565b6000600019821415611ee857611ee8611db4565b5060010190565b634e487b7160e01b600052601260045260246000fd5b600082611f1457611f14611eef565b500490565b600082611f2857611f28611eef565b500690565b634e487b7160e01b600052603260045260246000fdfea264697066735822122076f637319d353a940b11b9e8fcdee20c707ad60090673878f34f5a50bc72c73164736f6c63430008090033",
  "immutableReferences": {},
  "source": "// SPDX-License-Identifier: GPL-3.0-or-later\n\npragma solidity ^0.8.9;\n\nimport \"../tokens/ERC721Custom.sol\";\n\ncontract RIGNFT is ERC721Custom {\n    struct RIGDetails {\n        uint256 hashRate;\n        uint8 gpuTemp;\n        uint8 rigTemp;\n        uint256 systemPowerLevel;\n        string minerOS;\n        string grade;\n    }\n\n    mapping(uint256 => RIGDetails) private _tokenDetails;\n\n    constructor(string memory _name, string memory _symbol)\n        ERC721Custom(_name, _symbol)\n    {}\n\n    function getTokenDetails(uint256 id)\n        public\n        view\n        returns (\n            uint256,\n            uint8,\n            uint8,\n            uint256,\n            string memory,\n            string memory\n        )\n    {\n        RIGDetails memory rigDetailsByTokenId = _tokenDetails[id];\n        return (\n            rigDetailsByTokenId.hashRate,\n            rigDetailsByTokenId.gpuTemp,\n            rigDetailsByTokenId.rigTemp,\n            rigDetailsByTokenId.systemPowerLevel,\n            rigDetailsByTokenId.minerOS,\n            rigDetailsByTokenId.grade\n        );\n    }\n\n    function setTokenDetails() public onlyOwner {}\n}\n",
  "sourcePath": "/home/yosephkurniasoenggoro/Documents/GitHub/miners-nations-smart-contracts/contracts/nfts/RIG.sol",
  "compiler": {
    "name": "solc",
    "version": "0.8.9+commit.e5eed63a.Emscripten.clang"
  },
  "schemaVersion": "3.4.3",
  "updatedAt": "2022-01-08T16:16:59.079Z",
  "devdoc": {
    "kind": "dev",
    "methods": {
      "approve(address,uint256)": {
        "details": "See {IERC721-approve}."
      },
      "balanceOf(address)": {
        "details": "See {IERC721-balanceOf}."
      },
      "burn(uint256)": {
        "details": "Burns `tokenId`. See {ERC721-_burn}. Requirements: - The caller must own `tokenId` or be an approved operator."
      },
      "getApproved(uint256)": {
        "details": "See {IERC721-getApproved}."
      },
      "isApprovedForAll(address,address)": {
        "details": "See {IERC721-isApprovedForAll}."
      },
      "name()": {
        "details": "See {IERC721Metadata-name}."
      },
      "owner()": {
        "details": "Returns the address of the current owner."
      },
      "ownerOf(uint256)": {
        "details": "See {IERC721-ownerOf}."
      },
      "paused()": {
        "details": "Returns true if the contract is paused, and false otherwise."
      },
      "renounceOwnership()": {
        "details": "Leaves the contract without owner. It will not be possible to call `onlyOwner` functions anymore. Can only be called by the current owner. NOTE: Renouncing ownership will leave the contract without an owner, thereby removing any functionality that is only available to the owner."
      },
      "safeTransferFrom(address,address,uint256)": {
        "details": "See {IERC721-safeTransferFrom}."
      },
      "safeTransferFrom(address,address,uint256,bytes)": {
        "details": "See {IERC721-safeTransferFrom}."
      },
      "setApprovalForAll(address,bool)": {
        "details": "See {IERC721-setApprovalForAll}."
      },
      "supportsInterface(bytes4)": {
        "details": "See {IERC165-supportsInterface}."
      },
      "symbol()": {
        "details": "See {IERC721Metadata-symbol}."
      },
      "transferFrom(address,address,uint256)": {
        "details": "See {IERC721-transferFrom}."
      },
      "transferOwnership(address)": {
        "details": "Transfers ownership of the contract to a new account (`newOwner`). Can only be called by the current owner."
      }
    },
    "version": 1
  },
  "userdoc": {
    "kind": "user",
    "methods": {},
    "version": 1
  }
}